:100000000C943E000C94EF0B0C945B000C945B0082
:100010000C9404010C945B000C945B000C945B004A
:100020000C945B000C94630B0C945B000C945B00D1
:100030000C945B000C94860C0C945B000C945B009D
:100040000C94740C0C945B000C945B000C945B009F
:100050000C945B000C945B000C945B000C945B00B4
:100060000C94BE0B0C945B000C945B000C945B0036
:100070000C945B000C945B000C945B0011241FBE7D
:10008000CFEFD0E1DEBFCDBF12E0A0E0B1E0E0ED08
:10009000F8E302C005900D92A434B107D9F727E028
:1000A000A4E4B2E001C01D92A034B207E1F70E94BF
:1000B00036020C94661C0C940000CF93DF93CDB7EE
:1000C000DEB781E290E021E230E0F90120812F707B
:1000D000FC01208382E290E020E7FC01208388E697
:1000E00090E028E630E0F90120812160FC012083C6
:1000F0008BE690E02BE630E0F9012081206FFC01D7
:10010000208380E290E0FC01808180934E02DF91A9
:10011000CF910895CF93DF9300D000D000D0CDB71A
:10012000DEB76B837C838D834E838B819C819A8326
:1001300089838E81882301F589819A81FC018081E0
:10014000918129813A81F90120813181F901408130
:1001500051812D81622F772767FD709521E030E076
:10016000062E02C0220F331F0A94E2F7242B352BF0
:10017000FC013183208321C089819A81FC01808127
:10018000918129813A81F90120813181F9014081F0
:1001900051812D81622F772767FD709521E030E036
:1001A000062E02C0220F331F0A94E2F720953095E5
:1001B00024233523FC013183208326960FB6F8943F
:1001C000DEBF0FBECDBFDF91CF910895CF93DF93F8
:1001D0001F92CDB7DEB789830F90DF91CF9108953D
:1001E000CF93DF931F92CDB7DEB789830F90DF9156
:1001F000CF910895CF93DF931F92CDB7DEB7898358
:100200000F90DF91CF9108951F920F9200905F00A1
:100210000F9211242F933F934F935F936F937F938C
:100220008F939F93AF93BF93EF93FF93CF93DF93FE
:10023000CDB7DEB780914502882309F0A5C0809133
:100240004E02282F30E080E290E0FC018081882F70
:1002500090E082279327807199270097A1F080E290
:1002600090E0FC018081882F90E0807199270097B1
:1002700039F081E08093490280E00E94FA0003C0D7
:1002800081E00E94FA0080914E02282F30E080E247
:1002900090E0FC018081882F90E082279327807274
:1002A00099270097B9F080E290E0FC018081882FC7
:1002B00090E080729927009739F081E080934402A2
:1002C00080E00E94E60006C081E08093070781E09D
:1002D0000E94E60080914E02282F30E080E290E0FC
:1002E000FC018081882F90E08227932780749927D2
:1002F0000097B9F080E290E0FC018081882F90E0C7
:1003000080749927009739F081E08093470280E05C
:100310000E94F00006C081E080934F0281E00E94BD
:10032000F00080914E02282F30E080E290E0FC0146
:100330008081882F90E082279327807899270097E3
:1003400019F180E290E0FC01808188237CF481E057
:10035000809350028091090190910A01A0910B01B4
:1003600040E0BC018A2F0E948A000EC081E0809389
:100370000A078091090190910A01A0910B0141E0C7
:10038000BC018A2F0E948A0082E08093450280E2AD
:1003900090E0FC01808180934E02DF91CF91FF912C
:1003A000EF91BF91AF919F918F917F916F915F91ED
:1003B0004F913F912F910F9000925F000F901F90EF
:1003C0001895CF93DF9300D0CDB7DEB79A8389839A
:1003D00085EC90E029813A81232F3327FC0120838B
:1003E00084EC90E02981FC01208380EC90E020ECFB
:1003F00030E0F90120812C7FFC01208381EC90E02A
:1004000028E1FC01208382EC90E026E0FC012083BF
:100410000F900F90DF91CF910895CF93DF9300D08D
:100420001F92CDB7DEB789837B836A83000080EC9F
:1004300090E0FC018081882F90E0807299270097DE
:10044000B1F389818A3029F462E171E08DE00E9484
:100450000D0286EC90E02981FC01208380E090E091
:100460000F900F900F90DF91CF910895CF93DF936E
:10047000CDB7DEB728970FB6F894DEBF0FBECDBF5D
:100480008BE090E00E94E10182E191E090933D07D2
:1004900080933C078CEB91E00E948A190E9410081F
:1004A0000E945D000E94D20C0E94FE0680915302C1
:1004B000882359F08CE090E09A838983CE010196DD
:1004C000BC0184E197E00E94130780911007882304
:1004D00069F0109210078BE090E09A838983CE0137
:1004E0000196BC0184E197E00E94130780910907FF
:1004F000882369F01092090783E090E09A8389834A
:10050000CE010196BC0184E197E00E94130780911F
:100510004602882369F01092460281E090E09A83B7
:100520008983CE010196BC0184E197E00E94130704
:1005300080914D02882359F010924D021A8219823F
:10054000CE010196BC0184E197E00E9413078091DF
:100550004A02882369F010924A0282E090E09A836E
:100560008983CE010196BC0184E197E00E941307C4
:1005700080915002882369F01092500284E090E04C
:100580009A838983CE010196BC0184E197E00E94A1
:10059000130780910A07882369F010920A0785E003
:1005A00090E09A838983CE010196BC0184E197E0B3
:1005B0000E94130780914402882369F0109244023C
:1005C00086E090E09A838983CE010196BC0184E1A4
:1005D00097E00E94130780910707882369F0109223
:1005E000070787E090E09A838983CE010196BC01DA
:1005F00084E197E00E94130780914702882369F005
:100600001092470288E090E09A838983CE01019698
:10061000BC0184E197E00E94130780914F02882378
:1006200069F010924F0289E090E09A838983CE01AD
:100630000196BC0184E197E00E9413078091490272
:10064000882371F0109249028AE090E09A838983AE
:10065000CE010196BC0184E197E00E94130726CFEA
:1006600025CFCF93DF93CDB7DEB780914102DF91E5
:10067000CF910895CF93DF9300D01F92CDB7DEB70F
:100680008091410289838091280790912907FC017C
:10069000808191818C309105C9F48CE08A838091AE
:1006A0000D0790910E079E012D5F3F4FA9016CE051
:1006B0000E943A122B8180910D0790910E07422FD4
:1006C0006A810E94C61580914202898389810F90B8
:1006D0000F900F90DF91CF910895CF93DF93CDB717
:1006E000DEB785EC91E00E948A1983E090E00E94D9
:1006F000F00DDF91CF910895CF93DF93CDB7DEB7A3
:1007000089ED91E00E948A190E94120EDF91CF912B
:100710000895CF93DF9300D01F92CDB7DEB78091BD
:10072000410289838091280790912907FC018081EB
:1007300091810097C9F483E08A8380910D0790919D
:100740000E079E012D5F3F4FA90163E00E943A1200
:100750002B8180910D0790910E07422F6A810E9494
:10076000C61580914202898389810F900F900F9066
:10077000DF91CF910895CF93DF93CDB7DEB788EEA9
:1007800091E00E948A190E94DB0881E00E944A09D8
:100790000E94CF0DDF91CF910895CF93DF93CDB716
:1007A000DEB70E94E10DDF91CF910895CF93DF93E3
:1007B00000D01F92CDB7DEB780914102898380912E
:1007C000280790912907FC01808191818230910551
:1007D00029F40E94F40880914202898380912807BD
:1007E00090912907FC018081918184309105C9F4A1
:1007F00085E08A8380910D0790910E079E012D5F01
:100800003F4FA90165E00E943A122B8180910D07AC
:1008100090910E07422F6A810E94C6158091420274
:10082000898389810F900F900F90DF91CF91089568
:10083000CF93DF93CDB7DEB70E94920DDF91CF91BA
:100840000895CF93DF93CDB7DEB70E94BB0DDF9144
:10085000CF910895CF93DF9300D01F92CDB7DEB72D
:100860008091410289838091280790912907FC019A
:100870008081918185309105C9F483E08A838091DC
:100880000D0790910E079E012D5F3F4FA90163E078
:100890000E943A122B8180910D0790910E07422FF2
:1008A0006A810E94C615809142028983809128073F
:1008B00090912907FC01808191818A30910549F44A
:1008C00080915102909152020E9427088091420229
:1008D000898389810F900F900F90DF91CF910895B8
:1008E000CF93DF93CDB7DEB7DF91CF910895CF934C
:1008F000DF93CDB7DEB7DF91CF910895CF93DF932C
:1009000000D000D01F92CDB7DEB78091410289831D
:100910008091280790912907FC0180819181833083
:10092000910529F40E9457098091420289838091A0
:10093000280790912907FC018081918186309105DB
:10094000C9F486E08A8380910D0790910E079E017D
:100950002C5F3F4FA90166E00E943A122C818091E2
:100960000D0790910E07422F6A810E94C615809153
:10097000420289838091280790912907FC01808198
:10098000918188309105C9F48BE08B8380910D07AC
:1009900090910E079E012B5F3F4FA9016BE00E94D3
:1009A0003A122D8180910D0790910E07422F6B8195
:1009B0000E94C61580914202898389810F900F9011
:1009C0000F900F900F90DF91CF910895CF93DF9309
:1009D000CDB7DEB70E942B0A80E00E944A090E9430
:1009E000DB08DF91CF910895CF93DF93CDB7DEB7CA
:1009F00081E00E944A09DF91CF910895CF93DF9360
:100A000000D000D01F92CDB7DEB78091410289831C
:100A10008091280790912907FC0180819181833082
:100A2000910529F40E94570980914202898380919F
:100A3000280790912907FC018081918182309105DE
:100A400029F40E94F408809142028983809128074A
:100A500090912907FC018081918187309105C9F42B
:100A600085E08A8380910D0790910E079E012C5F8F
:100A70003F4FA90165E00E943A122C8180910D0739
:100A800090910E07422F6A810E94C6158091420202
:100A900089838091280790912907FC0180819181A9
:100AA0008B309105C9F48AE08B8380910D0790917A
:100AB0000E079E012B5F3F4FA9016AE00E943A1288
:100AC0002D8180910D0790910E07422F6B810E941E
:100AD000C61580914202898389810F900F900F90F3
:100AE0000F900F90DF91CF910895CF93DF93CDB703
:100AF000DEB788E290E00E94F00DDF91CF9108957B
:100B0000CF93DF93CDB7DEB70E94120EDF91CF9166
:100B10000895CF93DF9300D01F92CDB7DEB78091B9
:100B2000410289838091280790912907FC018081E7
:100B300091810097C9F488E08A8380910D07909194
:100B40000E079E012D5F3F4FA90168E00E943A12F7
:100B50002B8180910D0790910E07422F6A810E9490
:100B6000C61580914202898389810F900F900F9062
:100B7000DF91CF910895CF93DF93CDB7DEB78AE0B1
:100B800090E00E94F00DDF91CF910895CF93DF9315
:100B9000CDB7DEB70E94120E0E94220EDF91CF91D8
:100BA0000895CF93DF9300D01F92CDB7DEB7809129
:100BB000410289838091280790912907FC01808157
:100BC00091810097C9F489E08A8380910D07909103
:100BD0000E079E012D5F3F4FA90169E00E943A1266
:100BE0002B8180910D0790910E07422F6A810E9400
:100BF000C615809142028983809128079091290728
:100C0000FC01808191818230910549F48091060731
:100C1000823018F40E94320E02C00E94220E898196
:100C20000F900F900F90DF91CF910895CF93DF93A6
:100C3000CDB7DEB7DF91CF910895CF93DF93CDB7D6
:100C4000DEB7DF91CF910895CF93DF931F92CDB799
:100C5000DEB780914102898380912807909129070E
:100C6000FC01808191818230910549F480910607D1
:100C7000863018F40E94320E02C00E94220E898132
:100C80000F90DF91CF910895CF93DF93CDB7DEB76B
:100C900085E090E00E94F00D0E94320EDF91CF912E
:100CA0000895CF93DF93CDB7DEB70E94120E0E9456
:100CB000220EDF91CF910895CF93DF9300D01F9242
:100CC000CDB7DEB78091410289838091280790914A
:100CD0002907FC01808191810097C9F485E08A830E
:100CE00080910D0790910E079E012D5F3F4FA90146
:100CF00065E00E943A122B8180910D0790910E07BA
:100D0000422F6A810E94C61580914202898389819F
:100D10000F900F900F90DF91CF910895CF93DF93B5
:100D2000CDB7DEB70E94DB0881E00E944A09DF915F
:100D3000CF910895CF93DF93CDB7DEB7DF91CF91F9
:100D40000895CF93DF9300D01F92CDB7DEB7809187
:100D5000410289838091280790912907FC018081B5
:100D6000918189309105C9F485E08A8380910D07CE
:100D700090910E079E012D5F3F4FA90165E00E94F3
:100D80003A122B8180910D0790910E07422F6A81B4
:100D90000E94C61580914202898380912807909114
:100DA0002907FC01808191818230910529F40E94FC
:100DB000F40880914202898389810F900F900F90EF
:100DC000DF91CF910895CF93DF93CDB7DEB7DF9159
:100DD000CF910895CF93DF93CDB7DEB7DF91CF9159
:100DE0000895CF93DF931F92CDB7DEB78091410274
:100DF000898389810F90DF91CF910895CF93DF93FD
:100E0000CDB7DEB784E197E090930E0780930D078E
:100E100020E04DE060E271E084E197E00E940B1178
:100E2000DF91CF910895CF93DF9300D000D0CDB75D
:100E3000DEB79A8389837C836B838B819C819093BB
:100E400029078093280789819A810E94B7110F9002
:100E50000F900F900F90DF91CF910895CF93DF9374
:100E600000D01F92CDB7DEB79A8389836B830000D1
:100E70008FE390E0FC018081882F90E082709927B9
:100E80000097B1F781E490E029813A81FC01318338
:100E9000208380E490E02B81FC012083F894FA9A6F
:100EA000F99A78940F900F900F90DF91CF91089559
:100EB000CF93DF9300D0CDB7DEB79A83898300004C
:100EC0008FE390E0FC018081882F90E08270992769
:100ED0000097B1F781E490E029813A81FC013183E8
:100EE00020838FE390E02FE330E0F901208121603F
:100EF000FC01208380E490E0FC0180810F900F9042
:100F0000DF91CF910895CF93DF9300D000D000D030
:100F1000CDB7DEB79D838C836E8319828C819D81D2
:100F20009B838A832E818A819B81622F0E942E0758
:100F30008A819B810E94580789839E8189819817A5
:100F4000E1F08981282F30E08E81882F90E0432FB7
:100F50004F932F93292F2F938F9381E092E0892F26
:100F60008F9381E092E08F930E9476190F900F90FB
:100F70000F900F900F900F9013C08981882F90E0F1
:100F8000292F2F938F938AE292E0892F8F938AE201
:100F900092E08F930E9476190F900F900F900F9010
:100FA00026960FB6F894DEBF0FBECDBFDF91CF916E
:100FB0000895CF93DF9300D000D01F92CDB7DEB756
:100FC0009D838C838C819D819A83898389819A8179
:100FD0000E9458078B838B810F900F900F900F907A
:100FE0000F90DF91CF910895CF93DF9300D01F92A0
:100FF000CDB7DEB79B838A83198289818F5F89830E
:1010000000008A819B819C01215031093B832A8306
:101010000097B9F70F900F900F90DF91CF9108953F
:10102000CF93DF93CDB7DEB784E592E09093520281
:10103000809351021092080710925302809151023E
:10104000909152020E945508DF91CF910895CF935D
:10105000DF9300D000D01F92CDB7DEB79D838C8385
:101060001B821A82198212C02C813D8189819A814A
:10107000820F931FFC01208189819A81622F0E9437
:10108000830789819A8101969A83898389819A81CC
:10109000823BF4E09F0740F38B810F900F900F90FD
:1010A0000F900F90DF91CF910895CF93DF93CDB73D
:1010B000DEB728970FB6F894DEBF0FBECDBF988776
:1010C0008F831B8282EB94E09D838C831A8219822A
:1010D00013C089819A810E94D9078E832F81388518
:1010E00089819A81820F931F2E81FC01208389813F
:1010F0009A8101969A83898329813A818C819D8185
:101100002817390730F38B8128960FB6F894DEBF85
:101110000FBECDBFDF91CF910895CF93DF9300D065
:10112000CDB7DEB70E944F0B9A838983209151027D
:101130003091520280910B0790910C070196880F15
:10114000991F820F931F29813A81FC0131832083EB
:101150008091510290915202FC01208131812F5FD8
:101160003F4FFC013183208389819A810F900F903A
:10117000DF91CF910895CF93DF9300D0CDB7DEB745
:10118000209151023091520280910B0790910C07EF
:101190000196880F991F820F931FFC018081918116
:1011A0009A83898389819A810E94250B0F900F90E1
:1011B000DF91CF910895CF93DF93CDB7DEB784E56C
:1011C00092E0909352028093510210921207109273
:1011D00011071092130710920C0710920B07109230
:1011E0001007DF91CF910895CF93DF93CDB7DEB78E
:1011F000809113078F5F80931307809113078A30C4
:1012000058F0809111079091120701969093120760
:10121000809311071092130780910F078130D1F44A
:10122000209154023091550280910B0790910C0748
:101230008217930718F00E94DB0809C080910B0702
:1012400090910C07019690930C0780930B070E94D6
:10125000BB081DC080910F078823C9F480910B073C
:1012600090910C07863222E0920760F40E948D086C
:1012700080910B0790910C07019690930C07809337
:101280000B0705C081E0809310070E945E09DF9183
:10129000CF910895CF93DF931F92CDB7DEB78983A7
:1012A000898180930F070F90DF91CF910895CF939D
:1012B000DF93CDB7DEB7DF91CF910895EF92FF9224
:1012C0000F931F93CF93DF93CDB7DEB72C970FB655
:1012D000F894DEBF0FBECDBF209151023091520273
:1012E00080910B0790910C070196880F991F820F30
:1012F000931FFC0120813181809151029091520213
:10130000FC0182819381A901481B590BCA019C836E
:101310008B838B819C81863091050CF48FC088EC87
:1013200090E09E838D838B819C812D813E81B901CC
:101330000E942018CB01AA2797FDA095BA2FBC01C7
:10134000CD010E949417DC01CB018F839887A98778
:10135000BA871A8219824AC0009151021091520232
:10136000E0900B07F0900C0720915102309152024F
:1013700080910B0790910C0701970196880F991F98
:10138000820F931FFC0180819181CC01A0E0B0E02D
:10139000BC01CD010E949217DC01CB012F81388561
:1013A00049855A85BC01CD010E940217DC01CB01A1
:1013B000BC01CD010E946617DC01CB019C01C70175
:1013C0000196880F991F800F911FFC0131832083A4
:1013D00080910B0790910C07019690930C078093D6
:1013E0000B0789819A8101969A83898329813A81A1
:1013F0008D819E81281739070CF4AECF40915102A0
:101400005091520280910B0790910C07209151024C
:1014100030915202F901228133810196880F991F80
:10142000840F951FFC013183208380910B079091DD
:101430000C07019690930C0780930B072C960FB620
:10144000F894DEBF0FBECDBFDF91CF911F910F91FA
:10145000FF90EF900895CF93DF93CDB7DEB78091E3
:1014600051029091520242EB54E060E070E00E9421
:101470006F19DF91CF910895CF93DF9300D000D003
:101480001F92CDB7DEB79B838A837D836C8381EB0C
:1014900090E0FC018081898381EB90E0FC01108267
:1014A00082EB90E0FC018081282F30E08A819B81D3
:1014B00028173907C1F082EB90E02A81FC012083D4
:1014C00082EB90E0FC018081882F90E09C012F5FEF
:1014D0003F4F8C819D812817390729F48C819D818C
:1014E00001969D838C8383EB90E02C81FC0120830B
:1014F00081EB90E02981FC0120830F900F900F90E9
:101500000F900F90DF91CF910895CF93DF93CDB7D8
:10151000DEB780912E0790912F078C3F9105E4F460
:1015200080912E0790912F07BC0180E090E00E94EF
:101530003C0A209130073091310780912E0790911D
:101540002F07820F931F90933107809330071092DB
:101550002F0710922E071AC080912E0790912F0707
:101560008C5F910990932F0780932E076CEF70E0AA
:1015700080E090E00E943C0A809130079091310712
:1015800084509F4F9093310780933007DF91CF9124
:101590000895CF93DF93CDB7DEB787E390E0FC01EA
:1015A000108280E790E022E0FC01208381EB90E054
:1015B00025E0FC012083DF91CF910895CF93DF9345
:1015C000CDB7DEB781EB90E0FC01108280E790E0C0
:1015D000FC01108287E390E022E0FC012083DF9190
:1015E000CF910895CF93DF9300D0CDB7DEB79A8324
:1015F000898389819A811816190624F081E090E088
:101600009A83898389819A8190932F0780932E07EB
:101610000E94850A0E94C90A0F900F90DF91CF9116
:101620000895CF93DF93CDB7DEB7F8948BE290E0C7
:101630002BE230E0F90120812F7EFC0120830E9403
:10164000DE0A7894DF91CF910895CF93DF9300D095
:10165000CDB7DEB79A838983F89489819A818A32DB
:1016600023E0920780F489819A81009739F089817B
:101670009A8190934C0280934B020BC010924C02C3
:1016800010924B0206C08AE293E090934C02809342
:101690004B0278940F900F90DF91CF910895CF93E4
:1016A000DF9300D0CDB7DEB7F89480914B029091D4
:1016B0004C029A838983789489819A810F900F9044
:1016C000DF91CF9108951F920F9200905F000F92CB
:1016D00011242F933F934F935F936F937F938F9337
:1016E0009F93AF93BF93EF93FF93CF93DF93CDB7C8
:1016F000DEB7F89480912E0790912F0718161906DF
:1017000034F18BE290E02BE230E0F901208120619E
:10171000FC01208381E090E00E94F4078BE290E0DE
:101720002BE230E0F90120812F7EFC0120838091A3
:101730003007909131078A32F3E09F071CF00E9436
:10174000DE0A07C081E090E00E94F20A02C00E9417
:10175000850A7894DF91CF91FF91EF91BF91AF917E
:101760009F918F917F916F915F914F913F912F91B9
:101770000F9000925F000F901F9018951F920F928C
:1017800000905F000F9211248F939F93EF93FF932C
:10179000CF93DF93CDB7DEB788E790E0FC0180817F
:1017A0009181909333078093320780912A078F5F4E
:1017B00080932A0780912A07823029F410922A0701
:1017C00081E080930907DF91CF91FF91EF919F9185
:1017D0008F910F9000925F000F901F9018951F92AD
:1017E0000F9200905F000F9211242F933F934F931D
:1017F0005F936F937F938F939F93AF93BF93EF9379
:10180000FF93CF93DF93CDB7DEB7F89489E290E0F2
:10181000FC018081882F90E084709927009719F04F
:101820000E94110B4CC0109231071092300780912A
:101830004B0290914C021816190664F480914B02E9
:1018400090914C022AE233E0A901481B590BCA01CE
:101850000E94F20A80912D078F5F80932D0790914F
:101860002D078DEC989F812D112486958695869560
:10187000880F282F220F220F820F592F581B852FD8
:101880008823E9F481E080934A0280912D07823316
:1018900010F010922D07809106078F5F8093060746
:1018A000809106078A3010F0109206078091450259
:1018B000882329F0809145028150809345027894D5
:1018C000DF91CF91FF91EF91BF91AF919F918F9158
:1018D0007F916F915F914F913F912F910F90009267
:1018E0005F000F901F9018951F920F9200905F005D
:1018F0000F921124CF93DF93CDB7DEB7DF91CF9155
:101900000F9000925F000F901F9018951F920F92FA
:1019100000905F000F9211242F933F934F935F939A
:101920006F937F938F939F93AF93BF93EF93FF93A7
:10193000CF93DF93CDB7DEB780912B0790912C0723
:10194000019790932C0780932B07809134079091F7
:1019500035070196909335078093340780912B07C4
:1019600090912C071816190634F00E94120E81E08F
:1019700080934D0203C081E080934602DF91CF91B6
:10198000FF91EF91BF91AF919F918F917F916F9157
:101990005F914F913F912F910F9000925F000F90B8
:1019A0001F901895CF93DF93CDB7DEB78EE790E009
:1019B0002FE0FC0120838AE290E02AE230E0F90186
:1019C00020812B7FFC0120838BE290E02BE230E032
:1019D000F90120812B7FFC0120838BE290E02BE238
:1019E00030E0F90120812F7EFC0120838AE290E023
:1019F0002AE230E0F90120812061FC0120838BE2A2
:101A000090E02BE230E0F90120812F7EFC01208361
:101A10008BE290E02BE230E0F9012081277FFC018E
:101A200020838AE290E02AE230E0F90120812860F8
:101A3000FC0120838BE290E02BE230E0F901208171
:101A4000277FFC01208389E690E021E0FC012083D0
:101A50008DE390E0FC0110821092460280E890E055
:101A6000FC01108281E890E028E0FC01208382E8FC
:101A700090E0FC01108288E890E020E33AE2FC016B
:101A80003183208384E890E0FC01118210828FE68C
:101A900090E0FC01108284E490E022E0FC012083CD
:101AA00087E490E02FEFFC01208386E490E0FC01C6
:101AB000108285E490E0FC0110828EE690E0FC014B
:101AC000108280EB90E022E0FC01208381EB90E02B
:101AD000FC01108286EB90E0FC01108283EB90E029
:101AE0002CEFFC01208382EB90E0FC01108280E768
:101AF00090E0FC0110828AE790E027E0FC0120835F
:101B00001092090710922A07109233071092320799
:101B10001092060710924A02109245027894DF91C3
:101B2000CF910895CF93DF93CDB7DEB78AE790E0EA
:101B300027E0FC0120831092090710922A078CE706
:101B400090E021E4FC0120838AE790E02FEAFC0189
:101B500020838BE790E023E0FC01208385E490E084
:101B600025E0FC0120838EE690E022E0FC0120834A
:101B7000DF91CF910895CF93DF93CDB7DEB78AE79A
:101B800090E027E0FC01208385E490E0FC011082D6
:101B90008EE690E0FC011082DF91CF910895CF9303
:101BA000DF93CDB7DEB710922D078CE390E0FC01F8
:101BB00010828DE390E021E0FC012083DF91CF9142
:101BC0000895CF93DF93CDB7DEB78DE390E0FC01AE
:101BD0001082F8940E94110B7894DF91CF910895B0
:101BE000CF93DF9300D0CDB7DEB79A83898310926D
:101BF0004D0289819A8190932C0780932B07109234
:101C00003507109234078FE690E022E0FC01208334
:101C100081E890E02DE0FC0120830F900F90DF9190
:101C2000CF910895CF93DF93CDB7DEB781E890E0F1
:101C300028E0FC0120838FE690E0FC011082DF9118
:101C4000CF910895CF93DF93CDB7DEB78BE290E0CD
:101C50002BE230E0F9012081277FFC012083DF9116
:101C6000CF910895CF93DF93CDB7DEB78BE290E0AD
:101C70002BE230E0F90120812860FC012083DF9114
:101C8000CF910895CF93DF9300D000D000D0CDB78F
:101C9000DEB79E838D83198264C18D819E81FC0194
:101CA000258136818981882F90E0880F991FAC01AA
:101CB000440F551F440F551F440F551FBA01681B91
:101CC000790BCB01820F931FFC0114868BE090E00F
:101CD0009C838B8340C08D819E81FC012581368150
:101CE0008981882F90E0880F991FAC01440F551F00
:101CF000440F551F440F551FBA01681B790BCB01C8
:101D0000280F391F8D819E81FC0145815681898173
:101D1000882F90E0880F991FBC01660F771F660F10
:101D2000771F660F771FFB01E81BF90BCF01480FE8
:101D3000591F8B819C810197840F951FFC01408165
:101D40008B819C81820F931FFC0140838B819C813E
:101D500001979C838B838B819C81181619060CF448
:101D6000BACF8D819E81FC01258136818981882FA2
:101D700090E0880F991FAC01440F551F440F551F69
:101D8000440F551FBA01681B790BCB01820F931FBB
:101D90002981FC0120838D819E81FC012581368172
:101DA0008981882F90E0880F991FAC01440F551F3F
:101DB000440F551F440F551FBA01681B790BCB0107
:101DC000820F931FFC0124852F5FFC0124878981EA
:101DD0008A83ACC08BE090E09C838B8340C08D8174
:101DE0009E81FC01258136818981882F90E0880FB2
:101DF000991FAC01440F551F440F551F440F551F29
:101E0000BA01681B790BCB01280F391F8D819E8188
:101E1000FC01458156818981882F90E0880F991FA8
:101E2000BC01660F771F660F771F660F771FFB01D8
:101E3000E81BF90BCF01480F591F8B819C8101973B
:101E4000840F951FFC0140818B819C81820F931F21
:101E5000FC0140838B819C8101979C838B838B81C8
:101E60009C81181619060CF4BACF8D819E81FC0155
:101E7000258136818981882F90E0880F991FAC01D8
:101E8000440F551F440F551F440F551FBA01681BBF
:101E9000790BCB01A901480F591F8D819E81FC014F
:101EA000628173818A81282F30E0C901880F991FD0
:101EB000820F931F880F991F880F991F860F971FF6
:101EC000FC018181FA0180838D819E81FC01258145
:101ED00036818981882F90E0880F991FAC01440FCB
:101EE000551F440F551F440F551FBA01681B790B2E
:101EF000CB01820F931FFC0124852F5FFC012487F7
:101F00008D819E81FC01428153818A81282F30E09E
:101F1000C901880F991F820F931F880F991F880F7F
:101F2000991F840F951FFC0181818A838D819E8179
:101F3000FC01428153818A81282F30E0C901880F3A
:101F4000991F820F931F880F991F880F991F840F65
:101F5000951FFC0181818F3F09F03CCF89818F5F04
:101F600089838D819E81FC0191818981891708F483
:101F700094CE26960FB6F894DEBF0FBECDBFDF918C
:101F8000CF910895CF93DF9300D01F92CDB7DEB7E6
:101F90009B838A8319821DC08A819B81FC012581D4
:101FA00036818981882F90E0880F991FAC01440FFA
:101FB000551F440F551F440F551FBA01681B790B5D
:101FC000CB01820F931F2FEFFC01258789818F5F43
:101FD00089838A819B81FC01918189818917E0F243
:101FE0000F900F900F90DF91CF910895CF93DF93D3
:101FF00000D000D0CDB7DEB79B838A836C838A8103
:102000009B81FC01428153818C81282F30E0C901E2
:10201000880F991F820F931F880F991F880F991F90
:10202000840F951FFC01868197810097C1F08A81FA
:102030009B81FC01428153818C81282F30E0C901B2
:10204000880F991F820F931F880F991F880F991F60
:10205000840F951FFC0186819781FC0109958A8177
:102060009B81FC01428153818C81282F30E0C90182
:10207000880F991F820F931F880F991F880F991F30
:10208000840F951FFC01808591850097C1F08A819E
:102090009B81FC01428153818C81282F30E0C90152
:1020A000880F991F820F931F880F991F880F991F00
:1020B000840F951FFC0180859185FC0109958A811B
:1020C0009B812C81FC0124838A819B81FC014281BC
:1020D00053818C81282F30E0C901880F991F820F0E
:1020E000931F880F991F880F991F840F951FFC015C
:1020F0008281898385C08A819B81FC0142815381D1
:102100008981282F332727FD3095C901880F991F12
:10211000820F931F880F991F880F991F840F951F97
:10212000FC01868197810097D1F08A819B81FC0117
:10213000428153818981282F332727FD3095C9019A
:10214000880F991F820F931F880F991F880F991F5F
:10215000840F951FFC0186819781FC0109958A8176
:102160009B81FC01428153818981282F332727FDE0
:102170003095C901880F991F820F931F880F991FEF
:10218000880F991F840F951FFC018085918500970A
:10219000D1F08A819B81FC01428153818981282F62
:1021A000332727FD3095C901880F991F820F931F90
:1021B000880F991F880F991F840F951FFC01808538
:1021C0009185FC01099529818A819B81FC012483E9
:1021D0008A819B81FC01428153818981282F332789
:1021E00027FD3095C901880F991F820F931F880F13
:1021F000991F880F991F840F951FFC018281898385
:1022000089818F3F09F077CF0F900F900F900F903B
:10221000DF91CF910895CF93DF9300D000D000D00D
:10222000CDB7DEB79A8389837C836B834D832E83FE
:1022300089819A812D81FC01218389819A812B8159
:102240003C81FC013383228389819A81FC01818155
:10225000882F90E0880F991F9C01220F331F220FB7
:10226000331F220F331FA901481B590BCA010E94BB
:1022700048189C0189819A81FC01368325838981D4
:102280009A810E94420E89819A810E94C20F89819F
:102290009A816E810E94F60F89819A812FEFFC014D
:1022A000238B26960FB6F894DEBF0FBECDBFDF910D
:1022B000CF910895CF93DF9300D000D000D0CDB759
:1022C000DEB79C838B836D834E83198219828B8149
:1022D0009C81FC01258136818E81882F90E0880FBA
:1022E000991FAC01440F551F440F551F440F551F34
:1022F000BA01681B790BCB01820F931FFC01848507
:1023000081508A8327C08B819C81FC012581368185
:102310008E81882F90E0880F991FAC01440F551FC4
:10232000440F551F440F551FBA01681B790BCB0191
:10233000280F391F8A81992787FD9095820F931F57
:10234000FC0190818D81981711F481E089838A8145
:1023500081508A838A818823B4F6898126960FB6B4
:10236000F894DEBF0FBECDBFDF91CF910895CF931C
:10237000DF9300D000D01F92CDB7DEB79D838C8352
:102380008C819D812FEFFC01238B8C819D81079691
:102390004CE050E060E070E00E946F191A828C817E
:1023A0009D81FC018481898353C08C819D81FC01C6
:1023B000838921E0280F8C819D81FC01238B8C81F6
:1023C0009D81FC018389992787FD909549812C8106
:1023D0003D81820F931F0796FC0140838C819D8174
:1023E000FC01428153818981282F332727FD3095B5
:1023F000C901880F991F820F931F880F991F880F9B
:10240000991F840F951FFC0184819581FC0109951A
:102410008B8390E481E02B81291709F080E08A8387
:102420008C819D81FC01428153818981282F332732
:1024300027FD3095C901880F991F820F931F880FC0
:10244000991F880F991F840F951FFC018181898333
:1024500089818F3F31F09A8181E08927882309F0B3
:10246000A4CF8A810F900F900F900F900F90DF9163
:10247000CF910895CF93DF93CDB7DEB728970FB6EE
:10248000F894DEBF0FBECDBF9D838C836E835887CB
:102490004F838FEF8B831A821982A0C02C813D81DC
:1024A00089819A81820F931F0796FC0180818B831B
:1024B0008C819D81FC01428153818B81282F30E0EA
:1024C000C901880F991F820F931F880F991F880FCA
:1024D000991F840F951FFC01828593850097C1F099
:1024E0008C819D81FC01428153818B81282F30E0BA
:1024F000C901880F991F820F931F880F991F880F9A
:10250000991F840F951FFC0182859385FC01099515
:102510008F8198852B81FC0120838C819D81FC011A
:10252000428153818C819D81FC01628173818B8109
:10253000282F30E0C901880F991F820F931F880F41
:10254000991F880F991F860F971FFC018181282FE3
:10255000332727FD3095C901880F991F820F931FDC
:10256000880F991F880F991F840F951FFC01838185
:10257000882379F18C819D81FC01458156818C8174
:102580009D81FC01628173818B81282F30E0C9011C
:10259000880F991F820F931F880F991F880F991F0B
:1025A000860F971FFC018181992787FD9095880FE1
:1025B000991F9C01220F331F220F331F220F331F3D
:1025C000B901681B790BCB01840F951F2B81FC018E
:1025D000258789819A8101969A8389838C819D813F
:1025E000FC018389282F332727FD309589819A8123
:1025F000281739070CF052CF8C819D81FC01428154
:1026000053818B81282F30E0C901880F991F820FD9
:10261000931F880F991F880F991F840F951FFC0126
:1026200081818B83A7C08C819D81FC014281538174
:102630008B81282F30E0C901880F991F820F931FCB
:10264000880F991F880F991F840F951FFC018285A1
:1026500093850097C1F08C819D81FC01428153815B
:102660008B81282F30E0C901880F991F820F931F9B
:10267000880F991F880F991F840F951FFC01828571
:102680009385FC0109958F8198852B81FC0120831E
:102690008C819D81FC01428153818B81282F30E008
:1026A000C901880F991F820F931F880F991F880FE8
:1026B000991F840F951FFC0181818B838C819D81E3
:1026C000FC01428153818C819D81FC016281738177
:1026D0008B81282F30E0C901880F991F820F931F2B
:1026E000880F991F880F991F860F971FFC01818102
:1026F000282F332727FD3095C901880F991F820F96
:10270000931F880F991F880F991F840F951FFC0135
:102710008381882379F18C819D81FC0145815681DB
:102720008C819D81FC01628173818B81282F30E037
:10273000C901880F991F820F931F880F991F880F57
:10274000991F860F971FFC018181992787FD90951E
:10275000880F991F9C01220F331F220F331F220F56
:10276000331FB901681B790BCB01840F951F2B8197
:10277000FC0125872B818C819D814E81622F0E94D7
:102780005A11982F81E08927882309F04CCF9B812B
:102790008E81981709F091C08C819D81FC01428146
:1027A00053818B81282F30E0C901880F991F820F38
:1027B000931F880F991F880F991F840F951FFC0185
:1027C000828593850097C1F08C819D81FC014281B7
:1027D00053818B81282F30E0C901880F991F820F08
:1027E000931F880F991F880F991F840F951FFC0155
:1027F00082859385FC0109958C819D812B81FC014B
:1028000020838C819D81FC01428153818C819D813B
:10281000FC01628173818B81282F30E0C901880F10
:10282000991F820F931F880F991F880F991F860F7A
:10283000971FFC018181282F332727FD3095C9017F
:10284000880F991F820F931F880F991F880F991F58
:10285000840F951FFC018381882379F18C819D81F0
:10286000FC01458156818C819D81FC0162817381CF
:102870008B81282F30E0C901880F991F820F931F89
:10288000880F991F880F991F860F971FFC01818160
:10289000992787FD9095880F991F9C01220F331F60
:1028A000220F331F220F331FB901681B790BCB0195
:1028B000840F951F2B81FC012587000028960FB6F9
:1028C000F894DEBF0FBECDBFDF91CF910895CF93B7
:1028D000DF9300D000D000D0CDB7DEB79C838B83D0
:1028E0006D834E838E8189838B819C81FC01428123
:1028F00053818B819C81FC01258136818D81882FBC
:1029000090E0880F991FBC01660F771F660F771F35
:10291000660F771FFB01E81BF90BCF01280F391F4A
:102920008981882F90E0820F931FFC018081282FDE
:10293000332727FD3095C901880F991F820F931FF8
:10294000880F991F880F991F840F951FFC018085A0
:1029500091850097B9F18B819C81FC014281538163
:102960008B819C81FC01258136818D81882F90E0AF
:10297000880F991FBC01660F771F660F771F660FC0
:10298000771FFB01E81BF90BCF01280F391F898145
:10299000882F90E0820F931FFC018081282F33271E
:1029A00027FD3095C901880F991F820F931F880F4B
:1029B000991F880F991F840F951FFC0180859185B1
:1029C000FC01099589818F5F89838981282F30E0F7
:1029D0008B819C81FC01458156818D81882F90E0FF
:1029E000880F991FBC01660F771F660F771F660F50
:1029F000771FFB01E81BF90BCF01840F951FFC012A
:102A00008485992787FD90950197821793070CF08D
:102A10006BCF8D818A837CC08B819C81FC01258159
:102A200036818A81882F90E0880F991FAC01440F6E
:102A3000551F440F551F440F551FBA01681B790BD2
:102A4000CB01820F931FFC0185858F3FD9F08B81CD
:102A50009C81FC01258136818A81882F90E0880F36
:102A6000991FAC01440F551F440F551F440F551FAC
:102A7000BA01681B790BCB01820F931FFC0185857E
:102A80008A8316C08B819C81FC01428153818A819B
:102A9000282F30E0C901880F991F820F931F880FDC
:102AA000991F880F991F840F951FFC0182818A83CB
:102AB0008B819C81FC01428153818A81282F30E0E7
:102AC000C901880F991F820F931F880F991F880FC4
:102AD000991F840F951FFC01808591850097C1F097
:102AE0008B819C81FC01428153818A81282F30E0B7
:102AF000C901880F991F820F931F880F991F880F94
:102B0000991F840F951FFC0180859185FC01099513
:102B10008B819C81FC01258136818A81882F90E000
:102B2000880F991FAC01440F551F440F551F440FC8
:102B3000551FBA01681B790BCB01820F931FFC0153
:102B400085858F3F09F068CF8B819C81FC01428194
:102B500053818A81282F30E0C901880F991F820F85
:102B6000931F880F991F880F991F840F951FFC01D1
:102B700082818F3F09F050CF8A8126960FB6F89454
:102B8000DEBF0FBECDBFDF91CF910895CF93DF930E
:102B9000CDB7DEB728970FB6F894DEBF0FBECDBF16
:102BA0009E838D836F8348878FEF898328858D81EE
:102BB0009E814F81622F0E945A11882309F450C0D0
:102BC0001A8230C08D819E81FC01258136818F81E2
:102BD000882F90E0880F991FAC01440F551F440FB8
:102BE000551F440F551FBA01681B790BCB01280FE5
:102BF000391F8A81992787FD9095820F931FFC01C9
:102C00008081282F332727FD30958885882F90E0F5
:102C10002817390721F48A8189830000DCC08A8162
:102C20008F5F8A838D819E81FC01258136818F8112
:102C3000882F90E0880F991FAC01440F551F440F57
:102C4000551F440F551FBA01681B790BCB01820F2A
:102C5000931FFC0194858A8189170CF4B3CFBBC004
:102C60008D819E81FC01258136818F81882F90E0A6
:102C7000880F991FAC01440F551F440F551F440F77
:102C8000551FBA01681B790BCB01820F931FFC0102
:102C900064858D819E81FC01258136818D819E8197
:102CA000FC018081882F90E0880F991FAC01440FB0
:102CB000551F440F551F440F551FFA01E81BF90B10
:102CC000CF01820F931FFC0184858617E4F48D8168
:102CD0009E81FC01258136818885882F90E0880FB0
:102CE000991FAC01440F551F440F551F440F551F2A
:102CF000BA01681B790BCB01820F931FFC018485FD
:102D000081508C831BC08D819E81FC012581368181
:102D10008F81882F90E0880F991FAC01440F551FB9
:102D2000440F551F440F551FBA01681B790BCB0187
:102D3000820F931FFC01848581508C831B8246C0C7
:102D40008B8189838D819E81FC01258136818885D7
:102D5000882F90E0880F991FAC01440F551F440F36
:102D6000551F440F551FBA01681B790BCB01280F63
:102D7000391F8B81992787FD9095820F931FFC0146
:102D800060818D819E81FC01258136818F81882F14
:102D900090E0880F991FAC01440F551F440F551F39
:102DA000440F551FFA01E81BF90BCF01280F391FFB
:102DB0008B81992787FD9095820F931FFC0180815D
:102DC000681709F008C08B818F5F8B839B818C8192
:102DD00089170CF0B5CF29818D819E81422F6F819B
:102DE0000E946714282F8D819E81FC01248300009E
:102DF00028960FB6F894DEBF0FBECDBFDF91CF91FE
:102E000008955058BB27AA270ED0E0C0D1D030F08B
:102E1000D6D020F031F49F3F11F41EF4C6C00EF45A
:102E2000E095E7FBBCC0E92FE2D080F3BA17620758
:102E300073078407950718F071F49EF5FAC00EF435
:102E4000E0950B2EBA2FA02D0B01B90190010C01BA
:102E5000CA01A0011124FF27591B99F0593F50F4D2
:102E6000503E68F11A16F040A22F232F342F44272A
:102E7000585FF3CF469537952795A795F040539522
:102E8000C9F77EF41F16BA0B620B730B840BBAF0F2
:102E90009150A1F0FF0FBB1F661F771F881FC2F75D
:102EA0000EC0BA0F621F731F841F48F48795779571
:102EB0006795B795F7959E3F08F0B3CF9395880F28
:102EC00008F09927EE0F97958795089598D088F088
:102ED0009F5790F0B92F9927B751A0F0D1F0660F06
:102EE000771F881F991F1AF0BA95C9F712C0B13021
:102EF00081F09FD0B1E008959CC0672F782F88277C
:102F0000B85F39F0B93FCCF3869577956795B3955F
:102F1000D9F73EF490958095709561957F4F8F4FCE
:102F20009F4F0895E89409C097FB3EF490958095D3
:102F3000709561957F4F8F4F9F4F9923A9F0F92F7F
:102F400096E9BB279395F695879577956795B795FD
:102F5000F111F8CFFAF4BB0F11F460FF1BC06F5FE3
:102F60007F4F8F4F9F4F16C0882311F096E911C0F5
:102F7000772321F09EE8872F762F05C0662371F016
:102F800096E8862F70E060E02AF09A95660F771F2A
:102F9000881FDAF7880F9695879597F9089597F91E
:102FA0009F6780E870E060E008959FEF80EC0895EF
:102FB00000240A9416161706180609060895002418
:102FC0000A9412161306140605060895092E039492
:102FD000000C11F4882352F0BB0F40F4BF2B11F406
:102FE00060FF04C06F5F7F4F8F4F9F4F089557FD65
:102FF0009058440F551F59F05F3F71F04795880F67
:1030000097FB991F61F09F3F79F0879508951216FD
:1030100013061406551FF2CF4695F1DF08C01616A9
:1030200017061806991FF1CF86957105610508945A
:103030000895E894BB2766277727CB0197F9089571
:1030400097FB072E16F4009407D077FD09D00E9455
:10305000341807FC05D03EF4909581959F4F089554
:10306000709561957F4F0895AA1BBB1B51E107C066
:10307000AA1FBB1FA617B70710F0A61BB70B881F08
:10308000991F5A95A9F780959095BC01CD01089597
:10309000CF93DF938230910510F482E090E0E091CD
:1030A0003807F091390720E030E0A0E0B0E0309739
:1030B00039F14081518148175907B8F0481759072D
:1030C00071F482819381109729F013969C938E93CB
:1030D00012972CC0909339078093380727C0211589
:1030E000310531F04217530718F0A901DB0101C087
:1030F000EF019A01BD01DF010280F381E02DD7CFFE
:1031000021153105F9F0281B390B2430310580F4E5
:103110008A819B816115710521F0FB019383828374
:1031200004C09093390780933807FE01329644C05B
:10313000FE01E20FF31F81939193225031093983ED
:1031400028833AC02091360730913707232B41F46A
:103150002091020130910301309337072093360705
:1031600020910001309101012115310541F42DB765
:103170003EB74091040150910501241B350BE091AD
:103180003607F0913707E217F307A0F42E1B3F0B29
:103190002817390778F0AC014E5F5F4F24173507C9
:1031A00048F04E0F5F1F50933707409336078193C7
:1031B000919302C0E0E0F0E0CF01DF91CF9108955C
:1031C000CF93DF93009709F487C0FC0132971382F5
:1031D0001282C0913807D0913907209781F420815D
:1031E0003181280F391F8091360790913707821758
:1031F000930779F5F0933707E09336076DC0DE014A
:1032000020E030E0AE17BF0750F412964D915C916C
:1032100013979D014115510509F1DA01F3CFB383ED
:10322000A28340815181840F951F8A179B0771F4F7
:103230008D919C911197840F951F029691838083A5
:1032400012968D919C91139793838283211531055A
:1032500029F4F0933907E09338073EC0D90113965B
:10326000FC93EE9312974D915D91A40FB51FEA1751
:10327000FB0779F480819181840F951F0296D90113
:1032800011969C938E938281938113969C938E9337
:103290001297E0E0F0E08A819B81009719F0FE012F
:1032A000EC01F9CFCE01029628813981820F931F5C
:1032B00020913607309137072817390769F430977E
:1032C00029F4109239071092380702C01382128233
:1032D000D0933707C0933607DF91CF910895DC0173
:1032E00001C06D9341505040E0F70895A0E0B0E078
:1032F000ECE7F9E10C943F1CFE0135966191719168
:10330000AF0180913C0790913D070E94B719E2E020
:103310000C945B1C0F931F93CF93DF93E0913C07BA
:10332000F0913D07238121FF1BC0EC0100E010E07C
:10333000899160913C0770913D07DB011896ED91F2
:10334000FC911997882331F00995892B89F30FEFA8
:103350001FEFEECF8AE00995892B11F4C80102C056
:103360008FEF9FEFDF91CF911F910F910895ACE008
:10337000B0E0EDEBF9E10C942F1C7C016B018A01AC
:10338000FC0117821682838181FFBDC1CE010196A7
:103390004C01F7019381F60193FD859193FF819193
:1033A0006F01882309F4ABC1853239F493FD85910F
:1033B00093FF81916F01853229F4B70190E00E945B
:1033C0009F1BE7CF512C312C20E02032A0F48B3210
:1033D00069F030F4803259F0833269F420612CC0F6
:1033E0008D3239F0803339F4216026C022602460A8
:1033F00023C0286021C027FD27C030ED380F3A30A8
:1034000078F426FF06C0FAE05F9E300D1124532E9B
:1034100013C08AE0389E300D1124332E20620CC078
:103420008E3221F426FD6BC1206406C08C3611F467
:10343000206802C0883641F4F60193FD859193FF20
:1034400081916F018111C1CF982F9F7D9554933049
:1034500028F40C5F1F4FFFE3F9830DC0833631F072
:10346000833771F0833509F05BC022C0F801808199
:1034700089830E5F1F4F44244394512C540115C07F
:103480003801F2E06F0E711CF801A080B18026FFB8
:1034900003C0652D70E002C06FEF7FEFC5012C8780
:1034A0000E94941B2C0183012C852F77222E17C09C
:1034B0003801F2E06F0E711CF801A080B18026FF88
:1034C00003C0652D70E002C06FEF7FEFC5012C8750
:1034D0000E94891B2C012C852068222E830123FC4D
:1034E0001BC0832D90E048165906B0F4B70180E266
:1034F00090E00E949F1B3A94F4CFF50127FC859140
:1035000027FE81915F01B70190E00E949F1B31105F
:103510003A94F1E04F1A51084114510471F7E5C093
:10352000843611F0893639F5F80127FF07C060812C
:103530007181828193810C5F1F4F08C0608171810E
:10354000882777FD8095982F0E5F1F4F2F76B22E1C
:1035500097FF09C090958095709561957F4F8F4F2B
:103560009F4F2068B22E2AE030E0A4010E94D11BB8
:10357000A82EA81844C0853729F42F7EB22E2AE041
:1035800030E025C0F22FF97FBF2E8F36C1F018F43E
:10359000883579F0B4C0803719F0883721F0AFC092
:1035A0002F2F2061B22EB4FE0DC08B2D8460B82E5B
:1035B00009C024FF0AC09F2F9660B92E06C028E0DC
:1035C00030E005C020E130E002C020E132E0F80147
:1035D000B7FE07C060817181828193810C5F1F4FAC
:1035E00006C06081718180E090E00E5F1F4FA401F2
:1035F0000E94D11BA82EA818FB2DFF77BF2EB6FE68
:103600000BC02B2D2E7FA51450F4B4FE0AC0B2FCC3
:1036100008C02B2D2E7E05C07A2C2B2D03C07A2CB2
:1036200001C0752C24FF0DC0FE01EA0DF11D808143
:10363000803311F4297E09C022FF06C0739473946D
:1036400004C0822F867809F0739423FD13C020FFF5
:1036500006C05A2C731418F4530C5718732C731497
:1036600068F4B70180E290E02C870E949F1B73945E
:103670002C85F5CF731410F4371801C0312C24FFBA
:1036800012C0B70180E390E02C870E949F1B2C851D
:1036900022FF17C021FF03C088E590E002C088E741
:1036A00090E0B7010CC0822F867859F021FD02C04E
:1036B00080E201C08BE227FD8DE2B70190E00E941D
:1036C0009F1BA51438F4B70180E390E00E949F1B74
:1036D0005A94F7CFAA94F401EA0DF11D8081B70145
:1036E00090E00E949F1BA110F5CF332009F451CE2A
:1036F000B70180E290E00E949F1B3A94F6CFF70159
:103700008681978102C08FEF9FEF2C96E2E10C94A7
:103710004B1CFC010590615070400110D8F780955A
:1037200090958E0F9F1F0895FC016150704001908D
:103730000110D8F7809590958E0F9F1F08950F93D5
:103740001F93CF93DF93182F092FEB018B8181FDFE
:1037500003C08FEF9FEF20C082FF10C04E815F81BA
:103760002C813D81421753077CF4E881F9819F0148
:103770002F5F3F4F39832883108306C0E885F98582
:10378000812F0995892B29F72E813F812F5F3F4F8C
:103790003F832E83812F902FDF91CF911F910F9127
:1037A0000895FA01AA27283051F1203181F1E894D7
:1037B0006F936E7F6E5F7F4F8F4F9F4FAF4FB1E024
:1037C0003ED0B4E03CD0670F781F891F9A1FA11D1F
:1037D000680F791F8A1F911DA11D6A0F711D811D20
:1037E000911DA11D20D009F468943F912AE0269FE5
:1037F00011243019305D3193DEF6CF010895462F44
:103800004770405D4193B3E00FD0C9F7F6CF462F24
:103810004F70405D4A3318F0495D31FD405241938D
:1038200002D0A9F7EACFB4E0A6959795879577954A
:103830006795BA95C9F700976105710508959B01D1
:10384000AC010A2E06945795479537952795BA955A
:10385000C9F7620F731F841F951FA01D08952F9233
:103860003F924F925F926F927F928F929F92AF9210
:10387000BF92CF92DF92EF92FF920F931F93CF935D
:10388000DF93CDB7DEB7CA1BDB0B0FB6F894DEBFF4
:103890000FBECDBF09942A88398848885F846E841A
:1038A0007D848C849B84AA84B984C884DF80EE8064
:1038B000FD800C811B81AA81B981CE0FD11D0FB66D
:1038C000F894DEBF0FBECDBFED010895F894FFCF91
:1038D00000004007200024000024000124000224EE
:1038E000000300000002000000000D0200000000C4
:1038F00000FF010031030000000000000100020091
:103900003A030000000000000201FF0089030000EC
:103910006D037C030301FF00D6030000BB03CD034E
:10392000040105002A040000180421040504FF0016
:103930007E0400007004770406040700FE04000003
:10394000E604F4040706FF008905000075058005FC
:103950000806FF00D1050000BB05C6050906FF00EB
:103960002406000016061D060A04FF005C0600007F
:10397000440651060B04FF00A10600008E069A06BD
:103980000C00FF00F1060000E306EA060A5354416A
:103990005254555000656E7472792073746172745C
:1039A0007570207374617465006578697420617343
:1039B0006B2063616C696200656E74727920655377
:1039C00074617465547269616352756E6E696E6775
:1039D00000656570726F6D2073746F726564202569
:1039E000582C2062757420636865636B207265745F
:1039F00075726E65642025580A007265726561648F
:103A0000206F6B2072657475726E65642025580A8C
:043A100000804000F2
:00000001FF
