:100000000C943E000C94EA010C945B000C945B0091
:100010000C945B000C945B000C945B000C945B00F4
:100020000C945B000C9485010C945B000C945B00B9
:100030000C945B000C94A9020C945B000C945B0084
:100040000C943E020C945B000C945B000C945B00DF
:100050000C945B000C945B000C945B000C945B00B4
:100060000C94C7010C945B000C945B000C945B0037
:100070000C945B000C945B000C945B0011241FBE7D
:10008000CFEFD8E0DEBFCDBF11E0A0E0B1E0E8E403
:10009000F0E102C005900D92A83CB107D9F721E02C
:1000A000A8ECB1E001C01D92AE3FB207E1F70E949B
:1000B00081000C9422080C940000CF93C82FE0EC30
:1000C000F0E0908195FFFDCFCA3029F466E071E041
:1000D0008DE00E945D00C093C60080E090E0CF916B
:1000E00008959093C5008093C400E0ECF0E0808117
:1000F0008C7F808388E18093C10086E08093C2007A
:1001000008958BE090E00E94710086E091E090936A
:10011000FB018093FA0184EA91E00E94F5070E94B6
:100120000B010E9448020E94FB00FFCF8091C60194
:10013000089508958091C6010895089508958091C5
:10014000C6010895089508958091C60108950895FF
:1001500008958091C6010895089508958091C6017B
:100160000895089508958091C60108950895089509
:100170008091C6010895089508958091C60108955B
:10018000089508958091C601089508950895809175
:10019000C6010895CF93DF931F92CDB7DEB780914C
:1001A000C601E091E601F091E70120813181233021
:1001B0003105A1F4AE014F5F5F4F6BE08091CD013F
:1001C0009091CE010E946F0449816BE08091CD0136
:1001D0009091CE010E9418068091C5010F90DF9189
:1001E000CF9108958DEA91E00E94F50786E090E0B6
:1001F0000E949202089582ED91E09093CE01809347
:10020000CD0120E04CE064E171E00E9421040895FA
:100210000197F0F708951092D0011092CF01089540
:10022000E1EBF0E0408110822091B20030E028172D
:10023000390771F0E2EBF0E08083808190E09C016F
:100240002F5F3F4F2617370719F4BC016E5F7F4FB2
:100250006093B3004093B10008956091EC017091F8
:10026000ED016C3F7105BCF480E090E00E9410014C
:100270002091EE013091EF018091EC019091ED0120
:10028000820F931F9093EF018093EE011092ED0186
:100290001092EC0108956C5F71097093ED01609309
:1002A000EC016CEF70E080E090E00E941001809122
:1002B000EE019091EF0184509F4F9093EF01809356
:1002C000EE01089517BA82E08093700085E0809374
:1002D000B10008951092B1001092700082E087BBC7
:1002E00008951816190614F081E090E09093ED013E
:1002F0008093EC010E942D010E9462010895F89400
:100300005C980E946A01789408951F920F920FB62C
:100310000F9211242F933F934F935F936F937F938B
:100320008F939F93AF93BF93EF93FF93F894809134
:10033000EC019091ED0118161906ACF05C9A81E081
:1003400090E00E9408015C988091EE019091EF018D
:100350008A3293401CF00E946A0107C081E090E05D
:100360000E94710102C00E942D017894FF91EF91CB
:10037000BF91AF919F918F917F916F915F914F91BD
:100380003F912F910F900FBE0F901F9018951F92C5
:100390000F920FB60F9211248F939F938091780044
:1003A000909179009093F1018093F0018091E801A0
:1003B0008F5F8E3119F08093E80105C01092E8013B
:1003C00081E08093D1019F918F910F900FBE0F908C
:1003D0001F9018951F920F920FB60F9211242F9312
:1003E0003F934F935F936F937F938F939F93AF93BD
:1003F000BF93EF93FF93F8944A9B03C00E947F0141
:100400002BC01092EF011092EE012091CA013091A1
:10041000CB011216130634F48AE293E0821B930B8D
:100420000E9471018091EB018F5F8093EB019DEC45
:10043000899F912D1124969596959695990F292F20
:10044000220F220F920F891307C091E09093C901E8
:10045000823310F01092EB017894FF91EF91BF91ED
:10046000AF919F918F917F916F915F914F913F914C
:100470002F910F900FBE0F901F9018951F920F9203
:100480000FB60F9211240F900FBE0F901F9018956A
:1004900080EF81B980EE82B98FE080937E00529820
:1004A0005A985C98549A5C985B98539A5B9881E050
:1004B000809369001DBA1092C8011092800088E0F4
:1004C000809381001092820080E39AE290938900E9
:1004D00080938800109285001092840010926F0023
:1004E00082E084BD9FEF97BD16BC15BC10926E00D4
:1004F0008093B0001092B1001092B6008CEF809300
:10050000B3001092B2001092700087E080937A00DE
:100510001092D1011092E8011092F1011092F001B5
:10052000789408951092CC019093EA018093E901A8
:100530001092F3011092F20182E080936F008DE03F
:1005400080938100089588E08093810010926F006D
:1005500008951F920F920FB60F9211242F933F937D
:100560004F935F936F937F938F939F93AF93BF93BB
:10057000EF93FF938091E9019091EA0101979093A5
:10058000EA018093E9012091F2013091F3012F5F9C
:100590003F4F3093F3012093F2011816190634F0FF
:1005A0000E94A30281E08093CC0103C081E080938C
:1005B000C801FF91EF91BF91AF919F918F917F9172
:1005C0006F915F914F913F912F910F900FBE0F90C0
:1005D0001F9018958F929F92BF92CF92DF92EF92C9
:1005E000FF920F931F93CF93DF93FC0181818823A8
:1005F00009F49AC0D12C0F2EFBE0BF2EF02DC12C98
:10060000EB2CFC2C0D2D10E0C801880F991FEC017C
:10061000CC0FDD1FCC0FDD1FCC0FDD1F4E01881A64
:10062000990AC401A581B681A80DB91D1C961C921A
:100630004B2D5C2D65817681680F791F9A012150C1
:100640003109DB01A20FB31FAC91EB01C40FD51F21
:10065000A8832115310511F0A901ECCFA581B68140
:10066000A80DB91DDC9225813681E901C80DD91D7F
:100670002C852F5F2C879801220F331F020F131F29
:100680009801220F331F220F331F890142815381AA
:10069000EA01C20FD31F29812F3F09F440C03CC09B
:1006A000A90165817681680F791F9A01215031096E
:1006B000EB01C20FD31FC881DB01A40FB51FCC9380
:1006C0002115310569F7C281D381C00FD11F29815E
:1006D000C581D681C80FD91F2883C581D681C80F8F
:1006E000D91F2C852F5F2C8742815381DA01A00FFF
:1006F000B11F11962C9130E0B901660F771F260FBC
:10070000371F220F331F220F331F8901EA01C20F47
:10071000D31F29812F3F19F04E2D5F2DC2CFD394C7
:100720008181D81608F46ECFDF91CF911F910F9180
:10073000FF90EF90DF90CF90BF909F908F900895A3
:10074000FC0181818823C9F040E05FEF242F30E075
:10075000220F331FD901AA0FBB1FAA0FBB1FAA0F5D
:10076000BB1FA21BB30B85819681A80FB91F1D96D5
:100770005C934F5F8181481748F30895FF920F9370
:100780001F93CF93DF93EC01F62E862F90E08C0120
:10079000000F111F800F911F8C01000F111F000F00
:1007A000111FEA81FB81E00FF11F0680F781E02D28
:1007B000309709F00995EA81FB81E00FF11F008471
:1007C000F185E02D309709F00995FC828A819B81A3
:1007D000FC01E00FF11FF2808FEFF81661F18F2D11
:1007E000992787FD90958C01000F111F800F911F95
:1007F0008C01000F111F000F111FEA81FB81E00F18
:10080000F11F0680F781E02D309709F00995EA8104
:10081000FB81E00FF11F0084F185E02D309709F096
:100820000995FC828A819B81FC01E00FF11FF28017
:100830008FEFF812D4CFDF91CF911F910F91FF90DE
:1008400008951F93CF93DF93EC01122F49837B838D
:100850006A8350E0440F551FCA01880F991F880F03
:10086000991F880F991F841B950B0E94CE069E83AB
:100870008D83CE010E94EA02CE010E94A003612F67
:10088000CE010E94BE038FEF8B8BDF91CF911F9122
:10089000089550E0440F551FDA01AA0FBB1FAA0F9D
:1008A000BB1FAA0FBB1FA41BB50BFC018581968142
:1008B000A80FB91F1C969C911C97915072F080E074
:1008C00031E0FD01E90FF11D97FDFA952081261316
:1008D00001C0832F9150AAF7089580E008958F9268
:1008E0009F92AF92BF92CF92DF92EF92FF920F93BF
:1008F0001F93CF93DF93EC01962E6A018B89882397
:100900000CF454C05E0187E0A80EB11C00E010E0BA
:10091000F50181905F01882D90E07C01EE0CFF1CB9
:100920008E0D9F1D7C01EE0CFF1CEE0CFF1CEA815E
:10093000FB81EE0DFF1D0284F385E02D309709F059
:100940000995F60180822A813B81F901EE0DFF1D98
:100950008181992787FD9095AC01440F551F480F61
:10096000591F440F551F440F551FF901E40FF51F80
:100970002381222381F0880F991FFC01EE0FFF1FB6
:10098000EE0FFF1FEE0FFF1FE81BF90B8D819E81FD
:10099000E80FF91F85860F5F1F4F8B89992787FD09
:1009A0009095801791070CF0B3CF02C088248A94E9
:1009B000882D90E0FC01EE0FFF1F8E0F9F1F880F08
:1009C000991F880F991FEA81FB81E80FF91FF180B9
:1009D0004FC08F2D90E08C01000F111F800F911FD1
:1009E0008C01000F111F000F111FEA81FB81E00F26
:1009F000F11F0284F385E02D309709F00995F60187
:100A0000F0828A819B81FC01E00FF11FF1802F2D84
:100A100030E0F901EE0FFF1F2E0F3F1FF901EE0F1F
:100A2000FF1FEE0FFF1FE80FF91F2181332727FD5E
:100A30003095A901440F551F420F531F440F551FF6
:100A4000440F551FFC01E40FF51F8381882381F0BB
:100A5000220F331FF901EE0FFF1FEE0FFF1FEE0FE6
:100A6000FF1FE21BF30B8D819E81E80FF91FF586B6
:100A7000EF2C492D6F2DCE010E944904882309F4E3
:100A8000A8CFF9103FC08F2D90E08C01000F111FEF
:100A9000800F911F8C01000F111F000F111FEA81A1
:100AA000FB81E00FF11F0284F385E02D309709F000
:100AB0000995F8822A813B81F901E00FF11F8181BC
:100AC000992787FD9095AC01440F551F480F591F7A
:100AD000440F551F440F551FF901E40FF51F2381E3
:100AE000222381F0880F991FFC01EE0FFF1FEE0FEC
:100AF000FF1FEE0FFF1FE81BF90B8D819E81E80F92
:100B0000F91FE586DF91CF911F910F91FF90EF9034
:100B1000DF90CF90BF90AF909F908F900895EF920D
:100B2000FF920F931F93CF93DF93EC01E62E862F56
:100B300090E0880F991F8C01000F111F000F111FEB
:100B4000000F111F081B190BF42EED81FE81E00F21
:100B5000F11FEF0DF11D8081992787FD9095FC0114
:100B6000EE0FFF1F8E0F9F1F880F991F880F991F71
:100B7000EA81FB81E80FF91F0084F185E02D3097B1
:100B800009F00995F3942F2D30E0ED81FE81E00FFF
:100B9000F11F8485992787FD909501978217930708
:100BA000A4F61E2D18C0182F01C0182F212F30E0D9
:100BB000F901EE0FFF1F2E0F3F1F220F331F220FD1
:100BC000331FEA81FB81E20FF31F0084F185E02DE2
:100BD000309709F00995412F50E09A01220F331FF9
:100BE000F901EE0FFF1FEE0FFF1FEE0FFF1FE21BBD
:100BF000F30B2D813E81E20FF31F85858F3F99F620
:100C0000FA01EE0FFF1F4E0F5F1F440F551F440FD9
:100C1000551FEA81FB81E40FF51F82818F3F29F682
:100C2000812FDF91CF911F910F91FF90EF90089549
:100C3000FF920F931F93CF93DF93EC01162F042F96
:100C4000462F602F0E944904882379F1812F90E07C
:100C5000880F991FFC01EE0FFF1FEE0FFF1FEE0F15
:100C6000FF1FE81BF90B8D819E81E80FF91F54854A
:100C700015160CF07FC0602F70E08081992787FDEA
:100C800090958617970709F477C0319640E008C021
:100C90002191332727FD30952617370709F473C0B4
:100CA0004F5F4513F5CF4FEF6EC02D813E81812FF1
:100CB00090E0880F991FDC01AA0FBB1FAA0FBB1F72
:100CC000AA0FBB1FA81BB90BA20FB31F1C96FC9049
:100CD0001C97888190E0880F991FFC01EE0FFF1F81
:100CE000EE0FFF1FEE0FFF1FE81BF90BE20FF31FC4
:100CF00084858F1594F4802F90E0880F991FFC0154
:100D0000EE0FFF1FEE0FFF1FEE0FFF1FE81BF90B8B
:100D1000E20FF31FF484FA9401C0FA94FF2074F1F7
:100D2000602F70E0660F771FCB01880F991F880F27
:100D3000991F880F991F861B970B820F931FFC0129
:100D400030812C9132131CC040E00FC0252F332777
:100D500027FD3095FC01E20FF31F2A0F3B1F408156
:100D6000F901208142130EC0452F51E0540FF516B2
:100D70006CF709C04FEF07C040E005C04FEF03C05C
:100D800040E001C0452F612FCE010E948F058C836A
:100D9000DF91CF911F910F91FF900895CF93DF9333
:100DA0008230910510F482E090E0E091F601F0913C
:100DB000F70120E030E0A0E0B0E0309739F1408169
:100DC000518148175907B8F04817590771F48281C3
:100DD0009381109729F013969C938E9312972CC0B1
:100DE0009093F7018093F60127C02115310531F06A
:100DF0004217530718F0A901DB0101C0EF019A0166
:100E0000BD01DF010280F381E02DD7CF211531052F
:100E1000F9F0281B390B2430310580F48A819B813D
:100E20006115710521F0FB019383828304C09093C7
:100E3000F7018093F601FE01329644C0FE01E20FF5
:100E4000F31F8193919322503109398328833AC04B
:100E50002091F4013091F501232B41F420910201FE
:100E6000309103013093F5012093F40120910001AA
:100E7000309101012115310541F42DB73EB7409164
:100E8000040150910501241B350BE091F401F09110
:100E9000F501E217F307A0F42E1B3F0B28173907C3
:100EA00078F0AC014E5F5F4F2417350748F04E0FC6
:100EB0005F1F5093F5014093F4018193919302C019
:100EC000E0E0F0E0CF01DF91CF910895CF93DF9381
:100ED000009709F487C0FC01329713821282C091F7
:100EE000F601D091F701209781F420813181280FFC
:100EF000391F8091F4019091F5018217930779F5DC
:100F0000F093F501E093F4016DC0DE0120E030E0E4
:100F1000AE17BF0750F412964D915C9113979D0147
:100F20004115510509F1DA01F3CFB383A283408162
:100F30005181840F951F8A179B0771F48D919C91A5
:100F40001197840F951F02969183808312968D913D
:100F50009C911397938382832115310529F4F09393
:100F6000F701E093F6013EC0D9011396FC93EE938E
:100F700012974D915D91A40FB51FEA17FB0779F405
:100F800080819181840F951F0296D90111969C93BF
:100F90008E938281938113969C938E931297E0E0B7
:100FA000F0E08A819B81009719F0FE01EC01F9CFF6
:100FB000CE01029628813981820F931F2091F4017E
:100FC0003091F5012817390769F4309729F4109208
:100FD000F7011092F60102C013821282D093F5013C
:100FE000C093F401DF91CF9108950F931F93CF9396
:100FF000DF93E091FA01F091FB01238121FF1BC0F7
:10100000EC0100E010E089916091FA017091FB0120
:10101000DB011896ED91FC911997882331F0099521
:10102000892B89F30FEF1FEFEECF8AE00995892B0B
:1010300011F4C80102C08FEF9FEFDF91CF911F9194
:081040000F910895F894FFCF11
:101048000000FE01200000000002000000005D001A
:101058000000000000FF01009600000000000000F2
:1010680001000200CA000000000000000201FF00A9
:101078009A000000F20099000301FF009F000000A1
:101088009D009E0004010500A4000000A200A3002A
:101098000504FF00A9000000A700A8000604070037
:1010A800AE000000AC00AD000706FF00B300000072
:1010B800B100B2000806FF00B8000000B600B70093
:1010C8000906FF00BD000000BB00BC000A06FF00C7
:1010D800C2000000C000C1000B00FF00C7000000F4
:1010E800C500C6000A5354415254555000656E74E9
:1010F80072792041736B466F7243616C69627261E9
:0811080074696F6E0040800065
:00000001FF
