:100000000C943E000C94B4010C945B000C945B00C7
:100010000C945B000C945B000C945B000C945B00F4
:100020000C945B000C9453010C945B000C945B00EB
:100030000C945B000C9459020C945B000C945B00D4
:100040000C94EE010C945B000C945B000C945B0030
:100050000C945B000C945B000C945B000C945B00B4
:100060000C9491010C945B000C945B000C945B006D
:100070000C945B000C945B000C945B0011241FBE7D
:10008000CFEFD8E0DEBFCDBF11E0A0E0B1E0E8EAFD
:10009000FFE002C005900D92A836B107D9F721E024
:1000A000A8E6B1E001C01D92AA39B207E1F70E94AB
:1000B00081000C94D2070C940000CF93C82FE0EC81
:1000C000F0E0908195FFFDCFCA3029F466E071E041
:1000D0008DE00E945D00C093C60080E090E0CF916B
:1000E00008959093C5008093C400E0ECF0E0808117
:1000F0008C7F808388E18093C10086E08093C2007A
:1001000008958BE090E00E94710086E091E090936A
:1001100097018093960184E491E00E94A5070E94D4
:10012000F8010E94D100FFCF8091660108950895E3
:10013000809166010895089508958091660108955B
:10014000CF93DF931F92CDB7DEB780916601E09128
:100150008301F09184012081318123303105A1F4A4
:10016000AE014F5F5F4F63E080916C0190916D0134
:100170000E941F04498163E080916C0190916D01A0
:100180000E94C805809165010F90DF91CF9108957D
:100190008DE491E00E94A50786E090E00E94420273
:1001A00008958FE691E090936D0180936C0120E0BB
:1001B00044E064E171E00E94D1030895E1EBF0E0D6
:1001C000408110822091B20030E02817390771F089
:1001D000E2EBF0E08083808190E09C012F5F3F4F55
:1001E0002617370719F4BC016E5F7F4F6093B30089
:1001F0004093B100089560918801709189016C3F2E
:100200007105BCF480E090E00E94DE0020918A013C
:1002100030918B018091880190918901820F931F09
:1002200090938B0180938A0110928901109288012A
:1002300008956C5F710970938901609388016CEF78
:1002400070E080E090E00E94DE0080918A01909151
:100250008B0184509F4F90938B0180938A01089566
:1002600017BA82E08093700085E08093B100089512
:100270001092B1001092700082E087BB08951816AA
:10028000190614F081E090E0909389018093880131
:100290000E94FB000E9430010895F8945C980E942F
:1002A0003801789408951F920F920FB60F9211247F
:1002B0002F933F934F935F936F937F938F939F936E
:1002C000AF93BF93EF93FF93F8948091880190913F
:1002D0008901181619068CF05C9A5C9880918A0145
:1002E00090918B018A3293401CF00E94380107C024
:1002F00081E090E00E943F0102C00E94FB007894E0
:10030000FF91EF91BF91AF919F918F917F916F91ED
:100310005F914F913F912F910F900FBE0F901F90C3
:1003200018951F920F920FB60F9211248F939F93DF
:10033000809178009091790090938D0180938C0149
:10034000809185018F5F8E3119F08093850105C002
:100350001092850181E080936E019F918F910F90A3
:100360000FBE0F901F9018951F920F920FB60F920D
:1003700011242F933F934F935F936F937F938F93AA
:100380009F93AF93BF93EF93FF93F8944A9B03C05F
:100390000E944D0111C010928B0110928A01209190
:1003A000690130916A011216130634F48AE293E06F
:1003B000821B930B0E943F017894FF91EF91BF91B4
:1003C000AF919F918F917F916F915F914F913F91ED
:1003D0002F910F900FBE0F901F9018951F920F92A4
:1003E0000FB60F9211240F900FBE0F901F9018950B
:1003F00080EF81B980EE82B98FE080937E005298C1
:100400005A985C98549A5C985B98539A5B9881E0F0
:10041000809369001DBA109268011092800088E0F4
:10042000809381001092820080E39AE29093890089
:1004300080938800109285001092840010926F00C3
:1004400082E084BD9FEF97BD16BC15BC10926E0074
:100450008093B0001092B1001092B6008CEF8093A0
:10046000B3001092B2001092700087E080937A007F
:1004700010926E011092850110928D0110928C01E4
:100480007894089510926B01909387018093860170
:1004900010928F0110928E0182E080936F008DE0A8
:1004A00080938100089588E08093810010926F000E
:1004B00008951F920F920FB60F9211242F933F931E
:1004C0004F935F936F937F938F939F93AF93BF935C
:1004D000EF93FF938091860190918701019790930C
:1004E00087018093860120918E0130918F012F5FCB
:1004F0003F4F30938F0120938E011816190634F068
:100500000E94530281E080936B0103C081E08093DD
:100510006801FF91EF91BF91AF919F918F917F9172
:100520006F915F914F913F912F910F900FBE0F9060
:100530001F9018958F929F92BF92CF92DF92EF9269
:10054000FF920F931F93CF93DF93FC018181882348
:1005500009F49AC0D12C0F2EFBE0BF2EF02DC12C38
:10056000EB2CFC2C0D2D10E0C801880F991FEC011D
:10057000CC0FDD1FCC0FDD1FCC0FDD1F4E01881A05
:10058000990AC401A581B681A80DB91D1C961C92BB
:100590004B2D5C2D65817681680F791F9A01215062
:1005A0003109DB01A20FB31FAC91EB01C40FD51FC2
:1005B000A8832115310511F0A901ECCFA581B681E1
:1005C000A80DB91DDC9225813681E901C80DD91D20
:1005D0002C852F5F2C879801220F331F020F131FCA
:1005E0009801220F331F220F331F8901428153814B
:1005F000EA01C20FD31F29812F3F09F440C03CC03C
:10060000A90165817681680F791F9A01215031090E
:10061000EB01C20FD31FC881DB01A40FB51FCC9320
:100620002115310569F7C281D381C00FD11F2981FE
:10063000C581D681C80FD91F2883C581D681C80F2F
:10064000D91F2C852F5F2C8742815381DA01A00F9F
:10065000B11F11962C9130E0B901660F771F260F5C
:10066000371F220F331F220F331F8901EA01C20FE8
:10067000D31F29812F3F19F04E2D5F2DC2CFD39468
:100680008181D81608F46ECFDF91CF911F910F9121
:10069000FF90EF90DF90CF90BF909F908F90089544
:1006A000FC0181818823C9F040E05FEF242F30E016
:1006B000220F331FD901AA0FBB1FAA0FBB1FAA0FFE
:1006C000BB1FA21BB30B85819681A80FB91F1D9676
:1006D0005C934F5F8181481748F30895FF920F9311
:1006E0001F93CF93DF93EC01F62E862F90E08C01C1
:1006F000000F111F800F911F8C01000F111F000FA1
:10070000111FEA81FB81E00FF11F0680F781E02DC8
:10071000309709F00995EA81FB81E00FF11F008411
:10072000F185E02D309709F00995FC828A819B8143
:10073000FC01E00FF11FF2808FEFF81661F18F2DB1
:10074000992787FD90958C01000F111F800F911F35
:100750008C01000F111F000F111FEA81FB81E00FB8
:10076000F11F0680F781E02D309709F00995EA81A5
:10077000FB81E00FF11F0084F185E02D309709F037
:100780000995FC828A819B81FC01E00FF11FF280B8
:100790008FEFF812D4CFDF91CF911F910F91FF907F
:1007A00008951F93CF93DF93EC01122F49837B832E
:1007B0006A8350E0440F551FCA01880F991F880FA4
:1007C000991F880F991F841B950B0E947E069E839C
:1007D0008D83CE010E949A02CE010E945003612FA8
:1007E000CE010E946E038FEF8B8BDF91CF911F9113
:1007F000089550E0440F551FDA01AA0FBB1FAA0F3E
:10080000BB1FAA0FBB1FA41BB50BFC0185819681E2
:10081000A80FB91F1C969C911C97915072F080E014
:1008200031E0FD01E90FF11D97FDFA9520812613B6
:1008300001C0832F9150AAF7089580E008958F9208
:100840009F92AF92BF92CF92DF92EF92FF920F935F
:100850001F93CF93DF93EC01962E6A018B89882337
:100860000CF454C05E0187E0A80EB11C00E010E05B
:10087000F50181905F01882D90E07C01EE0CFF1C5A
:100880008E0D9F1D7C01EE0CFF1CEE0CFF1CEA81FF
:10089000FB81EE0DFF1D0284F385E02D309709F0FA
:1008A0000995F60180822A813B81F901EE0DFF1D39
:1008B0008181992787FD9095AC01440F551F480F02
:1008C000591F440F551F440F551FF901E40FF51F21
:1008D0002381222381F0880F991FFC01EE0FFF1F57
:1008E000EE0FFF1FEE0FFF1FE81BF90B8D819E819E
:1008F000E80FF91F85860F5F1F4F8B89992787FDAA
:100900009095801791070CF0B3CF02C088248A9489
:10091000882D90E0FC01EE0FFF1F8E0F9F1F880FA8
:10092000991F880F991FEA81FB81E80FF91FF18059
:100930004FC08F2D90E08C01000F111F800F911F71
:100940008C01000F111F000F111FEA81FB81E00FC6
:10095000F11F0284F385E02D309709F00995F60127
:10096000F0828A819B81FC01E00FF11FF1802F2D25
:1009700030E0F901EE0FFF1F2E0F3F1FF901EE0FC0
:10098000FF1FEE0FFF1FE80FF91F2181332727FDFF
:100990003095A901440F551F420F531F440F551F97
:1009A000440F551FFC01E40FF51F8381882381F05C
:1009B000220F331FF901EE0FFF1FEE0FFF1FEE0F87
:1009C000FF1FE21BF30B8D819E81E80FF91FF58657
:1009D000EF2C492D6F2DCE010E94F903882309F4D5
:1009E000A8CFF9103FC08F2D90E08C01000F111F90
:1009F000800F911F8C01000F111F000F111FEA8142
:100A0000FB81E00FF11F0284F385E02D309709F0A0
:100A10000995F8822A813B81F901E00FF11F81815C
:100A2000992787FD9095AC01440F551F480F591F1A
:100A3000440F551F440F551FF901E40FF51F238183
:100A4000222381F0880F991FFC01EE0FFF1FEE0F8C
:100A5000FF1FEE0FFF1FE81BF90B8D819E81E80F32
:100A6000F91FE586DF91CF911F910F91FF90EF90D5
:100A7000DF90CF90BF90AF909F908F900895EF92AE
:100A8000FF920F931F93CF93DF93EC01E62E862FF7
:100A900090E0880F991F8C01000F111F000F111F8C
:100AA000000F111F081B190BF42EED81FE81E00FC2
:100AB000F11FEF0DF11D8081992787FD9095FC01B5
:100AC000EE0FFF1F8E0F9F1F880F991F880F991F12
:100AD000EA81FB81E80FF91F0084F185E02D309752
:100AE00009F00995F3942F2D30E0ED81FE81E00FA0
:100AF000F11F8485992787FD9095019782179307A9
:100B0000A4F61E2D18C0182F01C0182F212F30E079
:100B1000F901EE0FFF1F2E0F3F1F220F331F220F71
:100B2000331FEA81FB81E20FF31F0084F185E02D82
:100B3000309709F00995412F50E09A01220F331F99
:100B4000F901EE0FFF1FEE0FFF1FEE0FFF1FE21B5D
:100B5000F30B2D813E81E20FF31F85858F3F99F6C0
:100B6000FA01EE0FFF1F4E0F5F1F440F551F440F7A
:100B7000551FEA81FB81E40FF51F82818F3F29F623
:100B8000812FDF91CF911F910F91FF90EF900895EA
:100B9000FF920F931F93CF93DF93EC01162F042F37
:100BA000462F602F0E94F903882379F1812F90E06E
:100BB000880F991FFC01EE0FFF1FEE0FFF1FEE0FB6
:100BC000FF1FE81BF90B8D819E81E80FF91F5485EB
:100BD00015160CF07FC0602F70E08081992787FD8B
:100BE00090958617970709F477C0319640E008C0C2
:100BF0002191332727FD30952617370709F473C055
:100C00004F5F4513F5CF4FEF6EC02D813E81812F91
:100C100090E0880F991FDC01AA0FBB1FAA0FBB1F12
:100C2000AA0FBB1FA81BB90BA20FB31F1C96FC90E9
:100C30001C97888190E0880F991FFC01EE0FFF1F21
:100C4000EE0FFF1FEE0FFF1FE81BF90BE20FF31F64
:100C500084858F1594F4802F90E0880F991FFC01F4
:100C6000EE0FFF1FEE0FFF1FEE0FFF1FE81BF90B2C
:100C7000E20FF31FF484FA9401C0FA94FF2074F198
:100C8000602F70E0660F771FCB01880F991F880FC8
:100C9000991F880F991F861B970B820F931FFC01CA
:100CA00030812C9132131CC040E00FC0252F332718
:100CB00027FD3095FC01E20FF31F2A0F3B1F4081F7
:100CC000F901208142130EC0452F51E0540FF51653
:100CD0006CF709C04FEF07C040E005C04FEF03C0FD
:100CE00040E001C0452F612FCE010E943F058C835B
:100CF000DF91CF911F910F91FF900895CF93DF93D4
:100D00008230910510F482E090E0E0919201F09140
:100D1000930120E030E0A0E0B0E0309739F140816D
:100D2000518148175907B8F04817590771F4828163
:100D30009381109729F013969C938E9312972CC051
:100D4000909393018093920127C02115310531F0D2
:100D50004217530718F0A901DB0101C0EF019A0106
:100D6000BD01DF010280F381E02DD7CF21153105D0
:100D7000F9F0281B390B2430310580F48A819B81DE
:100D80006115710521F0FB019383828304C0909368
:100D9000930180939201FE01329644C0FE01E20F5E
:100DA000F31F8193919322503109398328833AC0EC
:100DB0002091900130919101232B41F42091020167
:100DC0003091030130939101209390012091000113
:100DD000309101012115310541F42DB73EB7409105
:100DE000040150910501241B350BE0919001F09115
:100DF0009101E217F307A0F42E1B3F0B28173907C8
:100E000078F0AC014E5F5F4F2417350748F04E0F66
:100E10005F1F50939101409390018193919302C081
:100E2000E0E0F0E0CF01DF91CF910895CF93DF9321
:100E3000009709F487C0FC01329713821282C09197
:100E40009201D0919301209781F420813181280F64
:100E5000391F80919001909191018217930779F544
:100E6000F0939101E09390016DC0DE0120E030E04D
:100E7000AE17BF0750F412964D915C9113979D01E8
:100E80004115510509F1DA01F3CFB383A283408103
:100E90005181840F951F8A179B0771F48D919C9146
:100EA0001197840F951F02969183808312968D91DE
:100EB0009C911397938382832115310529F4F09334
:100EC0009301E09392013EC0D9011396FC93EE93F7
:100ED00012974D915D91A40FB51FEA17FB0779F4A6
:100EE00080819181840F951F0296D90111969C9360
:100EF0008E938281938113969C938E931297E0E058
:100F0000F0E08A819B81009719F0FE01EC01F9CF96
:100F1000CE01029628813981820F931F2091900182
:100F2000309191012817390769F4309729F410920C
:100F300093011092920102C013821282D093910108
:100F4000C0939001DF91CF9108950F931F93CF939A
:100F5000DF93E0919601F0919701238121FF1BC05F
:100F6000EC0100E010E08991609196017091970189
:100F7000DB011896ED91FC911997882331F00995C2
:100F8000892B89F30FEF1FEFEECF8AE00995892BAC
:100F900011F4C80102C08FEF9FEFDF91CF911F9135
:080FA0000F910895F894FFCFB2
:100FA80000009A01200000000002000000005D001F
:100FB8000000000000FF0100940000000000000095
:100FC80001000200A0000000000000000201FF0074
:100FD80098000000C80097000300FF009D00000073
:100FE8009B009C000A5354415254555000656E743E
:100FF80072792041736B466F7243616C69627261EA
:0810080074696F6E0040800066
:00000001FF
