:100000000C94BF000C94BD0D0C94DC000C94DC002F
:100010000C94C5010C94DC000C94DC000C94DC0006
:100020000C94DC000C943E0D0C94DC000C94DC0071
:100030000C94DC000C94540E0C94DC000C94DC004A
:100040000C94420E0C94DC000C94DC000C94DC004C
:100050000C94DC000C94DC000C94DC000C94DC00B0
:100060000C948C0D0C94DC000C94DC000C94DC00E3
:100070000C94DC000C94DC000C94DC006E616E00CF
:10008000696E660000407A10F35A00A0724E18099B
:100090000010A5D4E80000E87648170000E40B54EF
:1000A000020000CA9A3B000000E1F50500008096BE
:1000B0009800000040420F000000A08601000000F0
:1000C000102700000000E8030000000064000000AA
:1000D00000000A00000000000100000000002C7673
:1000E000D888DC674F0823DFC1DFAE59E1B1B7968E
:1000F000E5E3E453C63AE651997696E8E6C28426EB
:10010000EB898C9B62ED407C6FFCEFBC9C9F40F2C6
:10011000BAA56FA5F490055A2AF75C936B6CF96742
:100120006DC11BFCE0E40D47FEF520E6B500D0ED07
:10013000902E0300943577050080841E080000206F
:100140004E0A000000C80C333333330F986E12830D
:100150001141EF8D2114893BE65516CFFEE6DB18E1
:10016000D1844B381BF77C1D901DA4BBE4242032A6
:1001700084725E228100C9F124ECA1E53D2711249F
:100180001FBECFEFD0E1DEBFCDBF14E0A0E0B1E0F5
:10019000EAE3F3E402C005900D92A63DB107D9F75A
:1001A00029E0A6EDB4E001C01D92A23DB207E1F73F
:1001B0000E94D3020C949B210C940000CF93DF93F8
:1001C000CDB7DEB781E290E021E230E0F901208195
:1001D0002E70FC01208382E290E020E7FC01208366
:1001E00088E690E028E630E0F90120812160FC01FA
:1001F00020838BE690E02BE630E0F9012081206F30
:10020000FC01208381E290E021E230E0F9012081CD
:100210002E60FC0120838AE290E02AE230E0F901BE
:1002200020812068FC0120838BE290E02BE230E00B
:10023000F90120812F77FC01208380E290E0FC010E
:1002400080818093E004DF91CF910895CF93DF9375
:1002500000D000D000D0CDB7DEB76B837C838D8318
:100260004E838B819C819A8389838E818823C1F4FC
:1002700089819A81FC018081482F8D81282F332725
:1002800027FD309581E090E002C0880F991F2A95E4
:10029000E2F7842B282F89819A81FC01208318C0E2
:1002A00089819A81FC018081482F8D81282F3327F5
:1002B00027FD309581E090E002C0880F991F2A95B4
:1002C000E2F780958423282F89819A81FC0120837D
:1002D00026960FB6F894DEBF0FBECDBFDF91CF914B
:1002E0000895CF93DF931F92CDB7DEB789838091B6
:1002F000090190910A01A0910B014981BC018A2F4B
:100300000E9426010F90DF91CF910895CF93DF9344
:100310001F92CDB7DEB7898380910C0190910D01BA
:10032000A0910E014981BC018A2F0E9426010F90E5
:10033000DF91CF910895CF93DF931F92CDB7DEB7B2
:10034000898380910F0190911001A0911101498141
:10035000BC018A2F0E9426010F90DF91CF91089552
:10036000CF93DF931F92CDB7DEB7898380910601CB
:1003700090910701A09108014981BC018A2F0E9438
:1003800026010F90DF91CF9108951F920F92009058
:100390005F000F9211242F933F938F939F93EF93BE
:1003A000FF93CF93DF93CDB7DEB7F8948091E0044D
:1003B000282F30E080E290E0FC018081882F90E0DF
:1003C0008227932780719927009781F080E290E03F
:1003D000FC018081882F90E080719927009719F0A7
:1003E0001092DB0403C081E08093DB048091E00481
:1003F000282F30E080E290E0FC018081882F90E09F
:100400008227932780729927009789F080E290E0F5
:10041000FC018081882F90E080729927009721F05D
:1004200081E08093990903C081E08093D604809194
:10043000E004282F30E080E290E0FC018081882FEA
:1004400090E08227932780749927009789F080E2B3
:1004500090E0FC018081882F90E0807499270097BC
:1004600021F081E08093E10403C081E08093D9040E
:100470008091E004282F30E080E290E0FC01808150
:10048000882F90E08227932780789927009769F03A
:1004900080E290E0FC018081882324F481E0809355
:1004A000E20403C081E080939C0980E290E0FC01BB
:1004B00080818093E0047894DF91CF91FF91EF9158
:1004C0009F918F913F912F910F9000925F000F901D
:1004D0001F901895CF93DF93CDB7DEB780E290E001
:1004E000FC01808188233CF481E08093E20488EC65
:1004F00091E00E941021DF91CF910895CF93DF9377
:1005000000D0CDB7DEB79A83898385EC90E029814E
:100510003A81232F3327FC01208384EC90E029814A
:10052000FC01208380EC90E020EC30E0F901208198
:100530002C7FFC01208381EC90E028E1FC012083EA
:1005400082EC90E026E0FC0120830F900F90DF9179
:10055000CF910895CF93DF9300D01F92CDB7DEB730
:1005600089837B836A83000080EC90E0FC018081BA
:10057000882F90E0807299270097B1F389818A30A3
:1005800029F462E171E08DE00E94AA0286EC90E01D
:100590002981FC01208380E090E00F900F900F9064
:1005A000DF91CF910895CF93DF93CDB7DEB7289732
:1005B0000FB6F894DEBF0FBECDBF85E090E00E947D
:1005C0007E0282E191E09093CF098093CE098FEE75
:1005D00091E00E9410210E9436090E94DE000E94D4
:1005E000A00E0E9438088091E504882359F08CE021
:1005F00090E09A838983CE010196BC0186EA99E056
:100600000E944D088091A209882369F01092A209E6
:100610008BE090E09A838983CE010196BC0186EA43
:1006200099E00E944D0880919B09882369F01092FF
:100630009B0983E090E09A838983CE010196BC01F7
:1006400086EA99E00E944D088091D804882369F0D9
:100650001092D80481E090E09A838983CE010196BC
:10066000BC0186EA99E00E944D088091DF0488234E
:1006700059F01092DF041A821982CE010196BC0152
:1006800086EA99E00E944D088091DC04882369F095
:100690001092DC0482E090E09A838983CE01019677
:1006A000BC0186EA99E00E944D088091E20488230B
:1006B00069F01092E20484E090E09A838983CE018D
:1006C0000196BC0186EA99E00E944D0880919C0940
:1006D000882369F010929C0985E090E09A838983D1
:1006E000CE010196BC0186EA99E00E944D088091F6
:1006F000D604882369F01092D60486E090E09A83AD
:100700008983CE010196BC0186EA99E00E944D08DA
:1007100080919909882369F01092990987E090E007
:100720009A838983CE010196BC0186EA99E00E94F2
:100730004D088091D904882369F01092D90488E08B
:1007400090E09A838983CE010196BC0186EA99E004
:100750000E944D088091E104882369F01092E10421
:1007600089E090E09A838983CE010196BC0186EAF4
:1007700099E00E944D088091DB04882371F010926B
:10078000DB048AE090E09A838983CE010196BC0164
:1007900086EA99E00E944D0826CF25CFCF93DF93BC
:1007A000CDB7DEB78091D404DF91CF910895CF9378
:1007B000DF9300D01F92CDB7DEB78091D404898338
:1007C0008091BA099091BB09FC01808191818C30A4
:1007D0009105C9F48DE08A8380919F099091A009C9
:1007E0009E012D5F3F4FA9016DE00E9446142B81B1
:1007F00080919F099091A009422F6A810E94D2178F
:100800008091D504898389810F900F900F90DF919B
:10081000CF910895CF93DF93CDB7DEB788EF91E006
:100820000E94102183E090E00E94FC0FDF91CF91A5
:100830000895CF93DF93CDB7DEB78CE092E00E94AE
:1008400010210E941E10DF91CF910895CF93DF9366
:1008500000D01F92CDB7DEB78091D40489838091F8
:10086000BA099091BB09FC01808191810097C9F47C
:1008700083E08A8380919F099091A0099E012D5F5A
:100880003F4FA90163E00E9446142B8180919F098C
:100890009091A009422F6A810E94D2178091D504BD
:1008A000898389810F900F900F90DF91CF910895E8
:1008B000CF93DF93CDB7DEB789E192E00E9410219C
:1008C0000E94130A81E00E94830A0E94A30F0E94E3
:1008D0006A02DF91CF910895CF93DF93CDB7DEB752
:1008E00082E392E00E9410210E94BB0FDF91CF9122
:1008F0000895CF93DF9300D01F92CDB7DEB78091DC
:10090000D40489838091BA099091BB09FC0180814C
:1009100091818230910529F40E942C0A8091D5049E
:1009200089838091BA099091BB09FC0180819181F2
:1009300084309105C9F485E08A8380919F09909164
:10094000A0099E012D5F3F4FA90165E00E9446145A
:100950002B8180919F099091A009422F6A810E946A
:10096000D2178091D504898389810F900F900F90C1
:10097000DF91CF910895CF93DF93CDB7DEB789E4B0
:1009800092E00E94102180E00E94B0010E94650F59
:100990000E94A30FDF91CF910895CF93DF93CDB73E
:1009A000DEB78AE592E00E94102181E00E94B0014A
:1009B0000E94E20F0E94BB0FDF91CF910895CF9369
:1009C000DF9300D01F92CDB7DEB78091D404898326
:1009D0008091BA099091BB09FC0180819181853099
:1009E0009105C9F483E08A8380919F099091A009C1
:1009F0009E012D5F3F4FA90163E00E9446142B81A9
:100A000080919F099091A009422F6A810E94D2177C
:100A10008091D504898389810F900F900F90DF9189
:100A2000CF910895CF93DF93CDB7DEB78AE692E0FA
:100A30000E941021DF91CF910895CF93DF93CDB71E
:100A4000DEB78EE792E00E941021DF91CF910895EA
:100A5000CF93DF9300D000D01F92CDB7DEB7809147
:100A6000D40489838091BA099091BB09FC018081EB
:100A700091818330910529F40E94900A8091D504D8
:100A800089838091BA099091BB09FC018081918191
:100A900086309105C9F486E08A8380919F09909100
:100AA000A0099E012C5F3F4FA90166E00E944614F9
:100AB0002C8180919F099091A009422F6A810E9408
:100AC000D2178091D50489838091BA099091BB098E
:100AD000FC018081918188309105C9F48CE08B8381
:100AE00080919F099091A0099E012B5F3F4FA90122
:100AF0006CE00E9446142D8180919F099091A0097D
:100B0000422F6B810E94D2178091D50489838981FD
:100B10000F900F900F900F900F90DF91CF9108954D
:100B2000CF93DF93CDB7DEB781E992E00E94102129
:100B30000E94060C80E00E94830A0E94130A80E053
:100B40000E947101DF91CF910895CF93DF93CDB7CC
:100B5000DEB78EE992E00E9410210E94EF0A81E048
:100B60000E94830A81E00E9471010E942E10DF9191
:100B7000CF910895CF93DF9300D01F92CDB7DEB70A
:100B80008091D40489838091BA099091BB09FC01BA
:100B90008081918187309105C9F485E08A838091B5
:100BA0009F099091A0099E012D5F3F4FA90165E02B
:100BB0000E9446142B8180919F099091A009422F99
:100BC0006A810E94D2178091D504898389810F9010
:100BD0000F900F90DF91CF910895CF93DF93CDB712
:100BE000DEB78AEA92E00E941021DF91CF9108954A
:100BF000CF93DF93CDB7DEB78DEB92E00E9410214B
:100C0000DF91CF910895CF93DF9300D01F92CDB79E
:100C1000DEB78091D40489838091BA099091BB0991
:100C2000FC01808191818330910529F40E94900A12
:100C30008091D50489838091BA099091BB09FC0108
:100C4000808191818230910529F40E942C0A809143
:100C5000D50489838091BA099091BB09FC018081F8
:100C600091818B309105C9F48BE08A8380919F0933
:100C70009091A0099E012D5F3F4FA9016BE00E945A
:100C800046142B8180919F099091A009422F6A817F
:100C90000E94D2178091D504898389810F900F908B
:100CA0000F90DF91CF910895CF93DF93CDB7DEB74B
:100CB0008FEC92E00E94102188E290E00E94FC0FED
:100CC000DF91CF910895CF93DF93CDB7DEB78FED4E
:100CD00092E00E9410210E941E10DF91CF91089592
:100CE000CF93DF9300D01F92CDB7DEB78091D404AD
:100CF00089838091BA099091BB09FC01808191811F
:100D00000097C9F489E08A8380919F099091A00996
:100D10009E012D5F3F4FA90169E00E9446142B817F
:100D200080919F099091A009422F6A810E94D21759
:100D30008091D504898389810F900F900F90DF9166
:100D4000CF910895CF93DF93CDB7DEB78EEE92E0CB
:100D50000E9410218AE090E00E94FC0FDF91CF9169
:100D60000895CF93DF93CDB7DEB78FEF92E00E9467
:100D700010210E941E100E942E10DF91CF91089525
:100D8000CF93DF9300D01F92CDB7DEB78091D4040C
:100D900089838091BA099091BB09FC01808191817E
:100DA0000097C9F48AE08A8380919F099091A009F5
:100DB0009E012D5F3F4FA9016AE00E9446142B81DE
:100DC00080919F099091A009422F6A810E94D217B9
:100DD0008091D50489838091BA099091BB09FC0167
:100DE000808191818230910549F480919809823007
:100DF00018F40E943E1002C00E942E1089810F90AC
:100E00000F900F90DF91CF910895CF93DF93CDB7DF
:100E1000DEB78FE093E00E941021DF91CF9108951B
:100E2000CF93DF93CDB7DEB785E293E00E94102128
:100E3000DF91CF910895CF93DF931F92CDB7DEB7A7
:100E40008091D40489838091BA099091BB09FC01F7
:100E5000808191818230910549F480919809863092
:100E600018F40E943E1002C00E942E1089810F903B
:100E7000DF91CF910895CF93DF93CDB7DEB78AE3AB
:100E800093E00E9410218FE090E00E94FC0F0E94EE
:100E90003E10DF91CF910895CF93DF93CDB7DEB7AA
:100EA0008BE493E00E9410210E941E100E942E10DD
:100EB000DF91CF910895CF93DF9300D01F92CDB7EC
:100EC000DEB78091D40489838091BA099091BB09DF
:100ED000FC01808191810097C9F485E08A8380912B
:100EE0009F099091A0099E012D5F3F4FA90165E0E8
:100EF0000E9446142B8180919F099091A009422F56
:100F00006A810E94D2178091D504898389810F90CC
:100F10000F900F90DF91CF910895CF93DF93CDB7CE
:100F2000DEB78BE593E00E9410210E94130A81E056
:100F30000E94830A80E00E948601DF91CF9108958C
:100F4000CF93DF93CDB7DEB789E693E00E941021FF
:100F500081E00E948601DF91CF910895CF93DF93C6
:100F600000D01F92CDB7DEB78091D40489838091E1
:100F7000BA099091BB09FC0180819181893091056A
:100F8000C9F485E08A8380919F099091A0099E0110
:100F90002D5F3F4FA90165E00E9446142B8180918F
:100FA0009F099091A009422F6A810E94D2178091D7
:100FB000D50489838091BA099091BB09FC01808195
:100FC00091818230910529F40E942C0A8091D504E8
:100FD00089838091BA099091BB09FC01808191813C
:100FE0008A309105B9F486E793E00E94102180E0F1
:100FF0000E949B018091E3049091E4040E944D09BA
:1010000081E00E949B018CE893E00E941021809176
:10101000D504898389810F900F900F90DF91CF9134
:101020000895CF93DF93CDB7DEB780EA93E00E94B7
:10103000102181EB93E00E941021DF91CF91089560
:10104000CF93DF93CDB7DEB786EE93E00E941021F9
:10105000DF91CF910895CF93DF931F92CDB7DEB785
:101060008091D404898389810F90DF91CF91089575
:10107000CF93DF93CDB7DEB786EA99E09093A009CE
:1010800080939F0920E04EE060E271E086EA99E0FB
:101090000E941713DF91CF910895CF93DF9300D073
:1010A00000D0CDB7DEB79A8389837C836B838B8135
:1010B0009C819093BB098093BA0989819A810E948F
:1010C000C3130F900F900F900F90DF91CF91089561
:1010D000CF93DF9300D01F92CDB7DEB79A83898379
:1010E0006B8300008FE390E0FC018081882F90E00B
:1010F000827099270097B1F781E490E029813A81C5
:10110000FC013183208380E490E02B81FC0120836B
:10111000F894FA9AF99A78940F900F900F90DF91C3
:10112000CF910895CF93DF9300D0CDB7DEB79A83E8
:10113000898300008FE390E0FC018081882F90E09C
:10114000827099270097B1F781E490E029813A8174
:10115000FC01318320838FE390E02FE330E0F9013D
:1011600020812160FC01208380E490E0FC018081EB
:101170000F900F90DF91CF910895CF93DF9300D020
:1011800000D000D0CDB7DEB79D838C836E831982EB
:101190008C819D819B838A832E818A819B81622F92
:1011A0000E9468088A819B810E94920889839E819F
:1011B00089819817D9F08981282F30E08E81882F76
:1011C00090E0432F4F932F93292F2F938F9385EFE9
:1011D00093E0892F8F9385EF93E08F930E94FC20FB
:1011E0000F900F900F900F900F900F9026960FB6C4
:1011F000F894DEBF0FBECDBFDF91CF910895CF939E
:10120000DF9300D000D01F92CDB7DEB79D838C83D3
:101210008C819D819A83898389819A810E94920819
:101220008B838B810F900F900F900F900F90DF9119
:10123000CF910895CF93DF9300D01F92CDB7DEB743
:101240009B838A83198289818F5F898300008A81C9
:101250009B819C01215031093B832A830097B9F778
:101260000F900F900F90DF91CF910895CF93DF9360
:10127000CDB7DEB786EE94E09093E4048093E30468
:1012800010929A091092E5048091E3049091E4048D
:101290000E947B09DF91CF910895CF93DF9300D017
:1012A00000D01F92CDB7DEB79D838C831B821A823C
:1012B000198212C02C813D8189819A81820F931FEE
:1012C000FC01208189819A81622F0E94BD08898159
:1012D0009A8101969A83898389819A81823BF4E07D
:1012E0009F0740F38B810F900F900F900F900F90FE
:1012F000DF91CF910895CF93DF93CDB7DEB72897D5
:101300000FB6F894DEBF0FBECDBF98878F831B82C8
:1013100082EB94E09D838C831A82198213C08981A9
:101320009A810E94FF088E832F81388589819A8156
:10133000820F931F2E81FC01208389819A8101965F
:101340009A83898329813A818C819D812817390765
:1013500030F38B8128960FB6F894DEBF0FBECDBF59
:10136000DF91CF910895CF93DF9300D0CDB7DEB753
:101370009A8389832091E3043091E40480919D094C
:1013800090919E090196880F991F820F931F2981C2
:101390003A81FC01318320838091E3049091E4043D
:1013A000FC01208131812F5F3F4FFC01318320837D
:1013B00089819A810F900F90DF91CF910895CF93FB
:1013C000DF9300D0CDB7DEB70E942A0D9A838983C0
:1013D00089819A810E94B30989819A810F900F9027
:1013E000DF91CF910895CF93DF9300D0CDB7DEB7D3
:1013F0002091E3043091E40480919D0990919E092D
:101400000196880F991F820F931FFC0180819181A3
:101410009A83898389819A810E94000D0F900F9091
:10142000DF91CF910895CF93DF93CDB7DEB786EEEE
:1014300094E09093E4048093E3041092A409109242
:10144000A3091092A50910929E0910929D0910926D
:10145000A209DF91CF910895CF93DF93CDB7DEB787
:101460008091A5098F5F8093A5098091A5098A3095
:1014700058F08091A3099091A40901969093A40932
:101480008093A3091092A5098091A1098130E9F404
:101490008091E6049091E7049C01215031098091EC
:1014A0009D0990919E098217930718F00E94130AD4
:1014B00009C080919D0990919E09019690939E0983
:1014C00080939D090E94F3091BC08091A109882384
:1014D000B9F480919D0990919E09863222E092078D
:1014E00060F40E94DF0980919D0990919E09019608
:1014F00090939E0980939D0903C081E08093A20987
:10150000DF91CF910895CF93DF931F92CDB7DEB7D0
:10151000898389818093A1090F90DF91CF910895EC
:10152000CF93DF93CDB7DEB760970FB6F894DEBFE9
:101530000FBECDBF0E94CE0F9A83898389819A8185
:10154000AA2797FDA095BA2FBC01CD010E940D1AC4
:10155000DC01CB018B839C83AD83BE8320E030E034
:1015600040E854E46B817C818D819E810E947219D8
:10157000DC01CB018F839887A987BA8720E030E010
:101580004EE354E46F81788589859A850E94991A83
:10159000DC01CB018B879C87AD87BE8720E030E0E4
:1015A00040E05FE36B857C858D859E850E940E19EA
:1015B000DC01CB01BC01CD010E94DA19DC01CB01B9
:1015C000988B8F878F8598890E94000D60960FB643
:1015D000F894DEBF0FBECDBFDF91CF910895CF93BA
:1015E000DF93CDB7DEB766970FB6F894DEBF0FBEB8
:1015F000CDBF2091E3043091E40480919D09909146
:101600009E0901970196880F991F820F931FFC0175
:10161000208131818091E3049091E404FC01828176
:101620009381A901481B590BCA019C838B838EE1CE
:1016300094E00E9410218B819C8199231CF4919548
:1016400081959109863091050CF4D7C08B819C81DE
:10165000AA2797FDA095BA2FBC01CD010E940D1AB3
:10166000DC01CB018D839E83AF83B88780E090E05F
:10167000A0EAB1E489879A87AB87BC8729853A8538
:101680004B855C856D817E818F8198850E94721962
:10169000DC01CB018D879E87AF87B88B88898F93BC
:1016A0008F858F938E858F938D858F938C858F9368
:1016B0008B858F938A858F9389858F9388858F9368
:1016C0008F818F938E818F938D818F9388E294E0A9
:1016D000892F8F9388E294E08F930E94FC208DB72E
:1016E0009EB70E960FB6F894DEBF0FBECDBF1A821E
:1016F000198270C02091E3043091E40480919D0927
:1017000090919E0901970196880F991F820F931F50
:10171000FC0180819181CC01A0E0B0E0BC01CD0151
:101720000E940B1ADC01CB012D853E854F8558891F
:10173000BC01CD010E940D19DC01CB01898B9A8B74
:10174000AB8BBC8B20E030E040E05FE369897A89B5
:101750008B899C890E940E19DC01CB01BC01CD0153
:101760000E94DA19DC01CB019E8B8D8B8E898F93C1
:101770008D898F938C898F938B898F938A898F938F
:1017800089898F938A818F9389818F938FE594E0E4
:10179000892F8F938FE594E08F930E94FC204DB7A3
:1017A0005EB7465F5F4F0FB6F894DEBF0FBECDBF8A
:1017B0008D899E890E94B30980919D0990919E090F
:1017C000019690939E0980939D0989819A81019643
:1017D0009A83898389819A81843191050CF48ACF17
:1017E0008091E3049091E404FC01828193819E8BBB
:1017F0008D8B8D899E890E94B30966960FB6F894E9
:10180000DEBF0FBECDBFDF91CF910895CF93DF93A1
:10181000CDB7DEB78091E3049091E40442EB54E04D
:1018200060E070E00E94B820DF91CF910895CF93DF
:10183000DF9300D000D01F92CDB7DEB79B838A83A1
:101840007D836C8381EB90E0FC018081898381EB57
:1018500090E0FC01108282EB90E0FC018081282F57
:1018600030E08A819B8128173907C1F082EB90E034
:101870002A81FC01208382EB90E0FC018081882F8B
:1018800090E09C012F5F3F4F8C819D812817390785
:1018900029F48C819D8101969D838C8383EB90E05C
:1018A0002C81FC01208381EB90E02981FC012083C5
:1018B0000F900F900F900F900F90DF91CF910895A0
:1018C000CF93DF93CDB7DEB78091C0099091C10966
:1018D0008C3F9105E4F48091C0099091C109BC014D
:1018E00080E090E00E94170C2091C2093091C3095A
:1018F0008091C0099091C109820F931F9093C309F1
:101900008093C2091092C1091092C0091AC0809137
:10191000C0099091C1098C5F91099093C10980938E
:10192000C0096CEF70E080E090E00E94170C80919D
:10193000C2099091C30984509F4F9093C30980932B
:10194000C209DF91CF910895CF93DF93CDB7DEB772
:1019500087E390E0FC01108280E790E022E0FC0148
:10196000208381EB90E025E0FC012083DF91CF9183
:101970000895CF93DF93CDB7DEB781EB90E0FC0104
:10198000108280E790E0FC01108287E390E022E083
:10199000FC012083DF91CF910895CF93DF9300D096
:1019A000CDB7DEB79A83898389819A811816190683
:1019B00024F081E090E09A83898389819A819093D1
:1019C000C1098093C0090E94600C0E94A40C0F9072
:1019D0000F90DF91CF910895CF93DF93CDB7DEB70E
:1019E000F8948BE290E02BE230E0F90120812F7E29
:1019F000FC0120830E94B90C7894DF91CF91089567
:101A0000CF93DF9300D0CDB7DEB79A838983F89464
:101A100089819A81883F22E0920780F489819A81A6
:101A2000009739F089819A819093DE048093DD04D8
:101A30000BC01092DE041092DD0406C088EF92E025
:101A40009093DE048093DD0478940F900F90DF91E3
:101A5000CF910895CF93DF9300D0CDB7DEB7F89440
:101A60008091DD049091DE049A8389837894898142
:101A70009A810F900F90DF91CF9108951F920F924E
:101A800000905F000F9211242F933F934F935F9329
:101A90006F937F938F939F93AF93BF93EF93FF9336
:101AA000CF93DF93CDB7DEB7F8948091C0099091C2
:101AB000C10918161906CCF08BE290E02BE230E059
:101AC000F90120812061FC01208380E090E00E94E8
:101AD0001A098BE290E02BE230E0F90120812F7EA1
:101AE000FC0120830E94B90C02C00E94600C789413
:101AF000DF91CF91FF91EF91BF91AF919F918F9126
:101B00007F916F915F914F913F912F910F90009234
:101B10005F000F901F9018951F920F9200905F002A
:101B20000F9211248F939F93EF93FF93CF93DF93A3
:101B3000CDB7DEB788E790E0FC018081918190937A
:101B4000C5098093C4098091BC098F5F8093BC094B
:101B50008091BC09823028F01092BC0981E080930A
:101B60009B09DF91CF91FF91EF919F918F910F9002
:101B700000925F000F901F9018951F920F92009097
:101B80005F000F9211242F933F934F935F936F93B6
:101B90007F938F939F93AF93BF93EF93FF93CF93D5
:101BA000DF93CDB7DEB7F89489E290E0FC01808145
:101BB000882F90E084709927009719F40E94EC0C0C
:101BC0004CC01092C3091092C2098091DD0490911B
:101BD000DE041816190664F48091DD049091DE0489
:101BE00028EF32E0A901481B590BCA010E94CD0C15
:101BF0008091BF098F5F8093BF099091BF098DECE1
:101C0000989F812D1124869586958695880F282F7B
:101C1000220F220F820F592F581B852F8823E9F49A
:101C200081E08093DC048091BF09843610F010922B
:101C3000BF09809198098F5F8093980980919809D6
:101C40008A3010F0109298098091D704882329F0E7
:101C50008091D70481508093D7047894DF91CF91FD
:101C6000FF91EF91BF91AF919F918F917F916F9174
:101C70005F914F913F912F910F9000925F000F90D5
:101C80001F9018951F920F9200905F000F921124E1
:101C9000CF93DF93CDB7DEB7DF91CF910F90009256
:101CA0005F000F901F9018951F920F9200905F0099
:101CB0000F9211242F933F934F935F936F937F93D2
:101CC0008F939F93AF93BF93EF93FF93CF93DF9344
:101CD000CDB7DEB78091BD099091BE090197909371
:101CE000BE098093BD098091C6099091C7090196EC
:101CF0009093C7098093C6098091BD099091BE0950
:101D00001816190634F00E941E1081E08093DF043B
:101D100003C081E08093D804DF91CF91FF91EF91D0
:101D2000BF91AF919F918F917F916F915F914F91F3
:101D30003F912F910F9000925F000F901F90189588
:101D4000CF93DF93CDB7DEB786E894E00E941021F1
:101D5000F8948EE790E021E0FC0120838AE290E095
:101D60002AE230E0F90120812B7FFC0120838BE205
:101D700090E02BE230E0F90120812B7FFC012083F1
:101D80008BE290E02BE230E0F90120812F7EFC0114
:101D900020838AE290E02AE230E0F901208120618C
:101DA000FC0120838BE290E02BE230E0F9012081FE
:101DB0002F7EFC0120838BE290E02BE230E0F901E2
:101DC0002081277FFC0120838AE290E02AE230E034
:101DD000F90120812860FC0120838BE290E02BE256
:101DE00030E0F9012081277FFC01208389E690E023
:101DF00021E0FC0120838DE390E0FC011082109231
:101E0000D80480E890E0FC01108281E890E028E0AE
:101E1000FC01208382E890E0FC01108288E890E0D9
:101E200020E33AE2FC013183208384E890E0FC0166
:101E3000118210828FE690E0FC01108284E490E031
:101E400022E0FC01208387E490E02FEFFC01208357
:101E500086E490E0FC01108285E490E0FC011082B1
:101E60008EE690E0FC01108280EB90E022E0FC0125
:101E7000208381EB90E0FC01108286EB90E0FC0176
:101E8000108283EB90E02CEFFC01208382EB90E04A
:101E9000FC01108280E790E0FC0110828AE790E06C
:101EA00027E0FC01208310929B091092BC0910923C
:101EB000C5091092C409109298091092DC0410927E
:101EC000D7047894DF91CF910895CF93DF93CDB766
:101ED000DEB786E994E00E941021F8948AE790E04A
:101EE00027E0FC01208310929B091092BC098EE729
:101EF00090E021E0FC0120838AE790E02FEAFC01DA
:101F000020838BE790E023E0FC0120838CE790E0C6
:101F100020E4FC01208387E490E02FEFFC01208384
:101F200084E490E022E0FC01208385E490E025E059
:101F3000FC0120838EE690E022E0FC01208378946F
:101F4000DF91CF910895CF93DF93CDB7DEB7109295
:101F5000BF09F8948CE390E0FC0110828DE390E0DF
:101F600021E0FC012083789485EA94E00E9410210E
:101F7000DF91CF910895CF93DF93CDB7DEB7F8947B
:101F80008DE390E0FC0110820E94EC0C789486EBCB
:101F900094E00E941021DF91CF910895CF93DF93B9
:101FA00000D0CDB7DEB7F8948091C4099091C509EF
:101FB0009A838983789489819A810F900F90DF9119
:101FC000CF910895CF93DF93CDB7DEB787EC94E040
:101FD0000E941021F8948AE790E027E0FC0120831A
:101FE00085E490E0FC0110828EE690E0FC01108216
:101FF0007894DF91CF910895CF93DF9300D0CDB740
:10200000DEB79A8389831092DF0489819A81909345
:10201000BE098093BD091092C7091092C6098FE6C8
:1020200090E022E0FC01208381E890E02DE0FC01BB
:1020300020830F900F90DF91CF910895CF93DF937E
:10204000CDB7DEB781E890E028E0FC0120838FE681
:1020500090E0FC011082DF91CF910895CF93DF9340
:10206000CDB7DEB78BE290E02BE230E0F9012081C2
:10207000277FFC012083DF91CF910895CF93DF93D9
:10208000CDB7DEB78BE290E02BE230E0F9012081A2
:102090002860FC012083DF91CF910895CF93DF93D7
:1020A00000D000D000D0CDB7DEB79E838D831982DB
:1020B00064C18D819E81FC01258136818981882FB3
:1020C00090E0880F991FAC01440F551F440F551F16
:1020D000440F551FBA01681B790BCB01820F931F68
:1020E000FC0114868BE090E09C838B8340C08D8143
:1020F0009E81FC01258136818981882F90E0880F9F
:10210000991FAC01440F551F440F551F440F551F15
:10211000BA01681B790BCB01280F391F8D819E8175
:10212000FC01458156818981882F90E0880F991F95
:10213000BC01660F771F660F771F660F771FFB01C5
:10214000E81BF90BCF01480F591F8B819C81019728
:10215000840F951FFC0140818B819C81820F931F0E
:10216000FC0140838B819C8101979C838B838B81B5
:102170009C81181619060CF4BACF8D819E81FC0142
:10218000258136818981882F90E0880F991FAC01C5
:10219000440F551F440F551F440F551FBA01681BAC
:1021A000790BCB01820F931F2981FC0120838D8144
:1021B0009E81FC01258136818981882F90E0880FDE
:1021C000991FAC01440F551F440F551F440F551F55
:1021D000BA01681B790BCB01820F931FFC01248588
:1021E0002F5FFC01248789818A83ACC08BE090E05B
:1021F0009C838B8340C08D819E81FC01258136812B
:102200008981882F90E0880F991FAC01440F551FDA
:10221000440F551F440F551FBA01681B790BCB01A2
:10222000280F391F8D819E81FC014581568189814E
:10223000882F90E0880F991FBC01660F771F660FEB
:10224000771F660F771FFB01E81BF90BCF01480FC3
:10225000591F8B819C810197840F951FFC01408140
:102260008B819C81820F931FFC0140838B819C8119
:1022700001979C838B838B819C81181619060CF423
:10228000BACF8D819E81FC01258136818981882F7D
:1022900090E0880F991FAC01440F551F440F551F44
:1022A000440F551FBA01681B790BCB01A901480FD8
:1022B000591F8D819E81FC01628173818A81282F43
:1022C00030E0C901880F991F820F931F880F991F53
:1022D000880F991F860F971FFC018181FA01808367
:1022E0008D819E81FC01258136818981882F90E036
:1022F000880F991FAC01440F551F440F551F440F01
:10230000551FBA01681B790BCB01820F931FFC018B
:1023100024852F5FFC0124878D819E81FC014281F1
:1023200053818A81282F30E0C901880F991F820FBD
:10233000931F880F991F880F991F840F951FFC0109
:1023400081818A838D819E81FC01428153818A81B2
:10235000282F30E0C901880F991F820F931F880F23
:10236000991F880F991F840F951FFC0181818F3F52
:1023700009F03CCF89818F5F89838D819E81FC012B
:1023800091818981891708F494CE26960FB6F89426
:10239000DEBF0FBECDBFDF91CF910895CF93DF9306
:1023A00000D01F92CDB7DEB79B838A8319821DC0F0
:1023B0008A819B81FC01258136818981882F90E06B
:1023C000880F991FAC01440F551F440F551F440F30
:1023D000551FBA01681B790BCB01820F931F2FEF9A
:1023E000FC01258789818F5F89838A819B81FC011C
:1023F000918189818917E0F20F900F900F90DF9102
:10240000CF910895CF93DF9300D000D0CDB7DEB742
:102410009B838A836C838A819B81FC0142815381E7
:102420008C81282F30E0C901880F991F820F931FDC
:10243000880F991F880F991F840F951FFC018681B3
:1024400097810097C1F08A819B81FC014281538171
:102450008C81282F30E0C901880F991F820F931FAC
:10246000880F991F880F991F840F951FFC01868183
:102470009781FC0109958A819B81FC0142815381EE
:102480008C81282F30E0C901880F991F820F931F7C
:10249000880F991F880F991F840F951FFC01808555
:1024A00091850097C1F08A819B81FC014281538113
:1024B0008C81282F30E0C901880F991F820F931F4C
:1024C000880F991F880F991F840F951FFC01808525
:1024D0009185FC0109958A819B812C81FC012483D3
:1024E0008A819B81FC01428153818C81282F30E0BD
:1024F000C901880F991F820F931F880F991F880F9A
:10250000991F840F951FFC018281898385C08A8170
:102510009B81FC01428153818981282F332727FD2C
:102520003095C901880F991F820F931F880F991F3B
:10253000880F991F840F951FFC0186819781009752
:10254000D1F08A819B81FC01428153818981282FAE
:10255000332727FD3095C901880F991F820F931FDC
:10256000880F991F880F991F840F951FFC01868182
:102570009781FC0109958A819B81FC0142815381ED
:102580008981282F332727FD3095C901880F991F8E
:10259000820F931F880F991F880F991F840F951F13
:1025A000FC01808591850097D1F08A819B81FC0197
:1025B000428153818981282F332727FD3095C90116
:1025C000880F991F820F931F880F991F880F991FDB
:1025D000840F951FFC0180859185FC010995298157
:1025E0008A819B81FC0124838A819B81FC01428139
:1025F00053818981282F332727FD3095C901880F02
:10260000991F820F931F880F991F880F991F840F9E
:10261000951FFC018281898389818F3F09F077CFE3
:102620000F900F900F900F90DF91CF910895CF935F
:10263000DF9300D000D000D0CDB7DEB79A83898376
:102640007C836B834D832E8389819A812D81FC014C
:10265000218389819A812B813C81FC0133832283F0
:1026600089819A81FC018181882F90E0880F991FD0
:102670009C01220F331F220F331F220F331FA9018A
:10268000481B590BCA010E94AE1E9C0189819A8188
:10269000FC013683258389819A810E944E108981AD
:1026A0009A810E94CE1189819A816E810E940212C4
:1026B00089819A812FEFFC01238B26960FB6F8941F
:1026C000DEBF0FBECDBFDF91CF910895CF93DF93D3
:1026D00000D000D000D0CDB7DEB79C838B836D8354
:1026E0004E83198219828B819C81FC012581368160
:1026F0008E81882F90E0880F991FAC01440F551FE1
:10270000440F551F440F551FBA01681B790BCB01AD
:10271000820F931FFC01848581508A8327C08B819F
:102720009C81FC01258136818E81882F90E0880F65
:10273000991FAC01440F551F440F551F440F551FDF
:10274000BA01681B790BCB01280F391F8A819927A1
:1027500087FD9095820F931FFC0190818D819817C2
:1027600011F481E089838A8181508A838A81882358
:10277000B4F6898126960FB6F894DEBF0FBECDBFA2
:10278000DF91CF910895CF93DF9300D000D01F92B7
:10279000CDB7DEB79D838C838C819D812FEFFC01AB
:1027A000238B8C819D8107964CE050E060E070E0C7
:1027B0000E94B8201A828C819D81FC0184818983CA
:1027C00053C08C819D81FC01838921E0280F8C817D
:1027D0009D81FC01238B8C819D81FC01838999273C
:1027E00087FD909549812C813D81820F931F07962B
:1027F000FC0140838C819D81FC0142815381898150
:10280000282F332727FD3095C901880F991F820F84
:10281000931F880F991F880F991F840F951FFC0124
:1028200084819581FC0109958B8390E481E02B8163
:10283000291709F080E08A838C819D81FC01428107
:1028400053818981282F332727FD3095C901880FAF
:10285000991F820F931F880F991F880F991F840F4C
:10286000951FFC018181898389818F3F31F09A8195
:1028700081E08927882309F0A4CF8A810F900F90E7
:102880000F900F900F90DF91CF910895CF93DF932A
:10289000CDB7DEB728970FB6F894DEBF0FBECDBF19
:1028A0009D838C836E8358874F838FEF8B831A822F
:1028B0001982A0C02C813D8189819A81820F931F4A
:1028C0000796FC0180818B838C819D81FC01428174
:1028D00053818B81282F30E0C901880F991F820F07
:1028E000931F880F991F880F991F840F951FFC0154
:1028F000828593850097C1F08C819D81FC01428186
:1029000053818B81282F30E0C901880F991F820FD6
:10291000931F880F991F880F991F840F951FFC0123
:1029200082859385FC0109958F8198852B81FC0117
:1029300020838C819D81FC01428153818C819D810A
:10294000FC01628173818B81282F30E0C901880FDF
:10295000991F820F931F880F991F880F991F860F49
:10296000971FFC018181282F332727FD3095C9014E
:10297000880F991F820F931F880F991F880F991F27
:10298000840F951FFC018381882379F18C819D81BF
:10299000FC01458156818C819D81FC01628173819E
:1029A0008B81282F30E0C901880F991F820F931F58
:1029B000880F991F880F991F860F971FFC0181812F
:1029C000992787FD9095880F991F9C01220F331F2F
:1029D000220F331F220F331FB901681B790BCB0164
:1029E000840F951F2B81FC01258789819A8101968F
:1029F0009A8389838C819D81FC018389282F3327C9
:102A000027FD309589819A81281739070CF052CF1C
:102A10008C819D81FC01428153818B81282F30E084
:102A2000C901880F991F820F931F880F991F880F64
:102A3000991F840F951FFC0181818B83A7C08C8116
:102A40009D81FC01428153818B81282F30E0C90197
:102A5000880F991F820F931F880F991F880F991F46
:102A6000840F951FFC01828593850097C1F08C81AE
:102A70009D81FC01428153818B81282F30E0C90167
:102A8000880F991F820F931F880F991F880F991F16
:102A9000840F951FFC0182859385FC0109958F8128
:102AA00098852B81FC0120838C819D81FC014281D2
:102AB00053818B81282F30E0C901880F991F820F25
:102AC000931F880F991F880F991F840F951FFC0172
:102AD00081818B838C819D81FC01428153818C811A
:102AE0009D81FC01628173818B81282F30E0C901B7
:102AF000880F991F820F931F880F991F880F991FA6
:102B0000860F971FFC018181282F332727FD3095E1
:102B1000C901880F991F820F931F880F991F880F73
:102B2000991F840F951FFC018381882379F18C8183
:102B30009D81FC01458156818C819D81FC016281D2
:102B400073818B81282F30E0C901880F991F820F74
:102B5000931F880F991F880F991F860F971FFC01DD
:102B60008181992787FD9095880F991F9C01220FDD
:102B7000331F220F331F220F331FB901681B790B3C
:102B8000CB01840F951F2B81FC0125872B818C8124
:102B90009D814E81622F0E946613982F81E08927C4
:102BA000882309F04CCF9B818E81981709F091C042
:102BB0008C819D81FC01428153818B81282F30E0E3
:102BC000C901880F991F820F931F880F991F880FC3
:102BD000991F840F951FFC01828593850097C1F092
:102BE0008C819D81FC01428153818B81282F30E0B3
:102BF000C901880F991F820F931F880F991F880F93
:102C0000991F840F951FFC0182859385FC0109950E
:102C10008C819D812B81FC0120838C819D81FC0115
:102C2000428153818C819D81FC01628173818B8102
:102C3000282F30E0C901880F991F820F931F880F3A
:102C4000991F880F991F860F971FFC018181282FDC
:102C5000332727FD3095C901880F991F820F931FD5
:102C6000880F991F880F991F840F951FFC0183817E
:102C7000882379F18C819D81FC01458156818C816D
:102C80009D81FC01628173818B81282F30E0C90115
:102C9000880F991F820F931F880F991F880F991F04
:102CA000860F971FFC018181992787FD9095880FDA
:102CB000991F9C01220F331F220F331F220F331F36
:102CC000B901681B790BCB01840F951F2B81FC0187
:102CD0002587000028960FB6F894DEBF0FBECDBF43
:102CE000DF91CF910895CF93DF9300D000D000D033
:102CF000CDB7DEB79C838B836D834E838E818983B2
:102D00008B819C81FC01428153818B819C81FC01E0
:102D1000258136818D81882F90E0880F991FBC0115
:102D2000660F771F660F771F660F771FFB01E81B83
:102D3000F90BCF01280F391F8981882F90E0820F6E
:102D4000931FFC018081282F332727FD3095C9016F
:102D5000880F991F820F931F880F991F880F991F43
:102D6000840F951FFC01808591850097B9F18B81B7
:102D70009C81FC01428153818B819C81FC012581D6
:102D800036818D81882F90E0880F991FBC01660FD6
:102D9000771F660F771F660F771FFB01E81BF90B84
:102DA000CF01280F391F8981882F90E0820F931F50
:102DB000FC018081282F332727FD3095C901880F1A
:102DC000991F820F931F880F991F880F991F840FD7
:102DD000951FFC0180859185FC01099589818F5F94
:102DE00089838981282F30E08B819C81FC0145817A
:102DF00056818D81882F90E0880F991FBC01660F46
:102E0000771F660F771F660F771FFB01E81BF90B13
:102E1000CF01840F951FFC018485992787FD90952C
:102E20000197821793070CF06BCF8D818A837CC04A
:102E30008B819C81FC01258136818A81882F90E0DD
:102E4000880F991FAC01440F551F440F551F440FA5
:102E5000551FBA01681B790BCB01820F931FFC0130
:102E600085858F3FD9F08B819C81FC01258136813E
:102E70008A81882F90E0880F991FAC01440F551F5D
:102E8000440F551F440F551FBA01681B790BCB0126
:102E9000820F931FFC0185858A8316C08B819C81DC
:102EA000FC01428153818A81282F30E0C901880FBB
:102EB000991F820F931F880F991F880F991F840FE6
:102EC000951FFC0182818A838B819C81FC01428158
:102ED00053818A81282F30E0C901880F991F820F02
:102EE000931F880F991F880F991F840F951FFC014E
:102EF000808591850097C1F08B819C81FC01428186
:102F000053818A81282F30E0C901880F991F820FD1
:102F1000931F880F991F880F991F840F951FFC011D
:102F200080859185FC0109958B819C81FC0125811F
:102F300036818A81882F90E0880F991FAC01440F59
:102F4000551F440F551F440F551FBA01681B790BBD
:102F5000CB01820F931FFC0185858F3F09F068CF5D
:102F60008B819C81FC01428153818A81282F30E032
:102F7000C901880F991F820F931F880F991F880F0F
:102F8000991F840F951FFC0182818F3F09F050CF5C
:102F90008A8126960FB6F894DEBF0FBECDBFDF91B3
:102FA000CF910895CF93DF93CDB7DEB728970FB6B3
:102FB000F894DEBF0FBECDBF9E838D836F8348879D
:102FC0008FEF898328858D819E814F81622F0E949A
:102FD0006613882309F450C01A8230C08D819E8107
:102FE000FC01258136818F81882F90E0880F991F01
:102FF000AC01440F551F440F551F440F551FBA0114
:10300000681B790BCB01280F391F8A81992787FD0F
:103010009095820F931FFC018081282F332727FD75
:1030200030958885882F90E02817390721F48A8108
:1030300089830000DCC08A818F5F8A838D819E81B5
:10304000FC01258136818F81882F90E0880F991FA0
:10305000AC01440F551F440F551F440F551FBA01B3
:10306000681B790BCB01820F931FFC0194858A8129
:1030700089170CF4B3CFBBC08D819E81FC012581E3
:1030800036818F81882F90E0880F991FAC01440F03
:10309000551F440F551F440F551FBA01681B790B6C
:1030A000CB01820F931FFC0164858D819E81FC0101
:1030B000258136818D819E81FC018081882F90E061
:1030C000880F991FAC01440F551F440F551F440F23
:1030D000551FFA01E81BF90BCF01820F931FFC016A
:1030E00084858617E4F48D819E81FC0125813681DB
:1030F0008885882F90E0880F991FAC01440F551FD9
:10310000440F551F440F551FBA01681B790BCB01A3
:10311000820F931FFC01848581508C831BC08D819D
:103120009E81FC01258136818F81882F90E0880F58
:10313000991FAC01440F551F440F551F440F551FD5
:10314000BA01681B790BCB01820F931FFC018485A8
:1031500081508C831B8246C08B8189838D819E81A7
:10316000FC01258136818885882F90E0880F991F82
:10317000AC01440F551F440F551F440F551FBA0192
:10318000681B790BCB01280F391F8B81992787FD8D
:103190009095820F931FFC0160818D819E81FC01BF
:1031A000258136818F81882F90E0880F991FAC018F
:1031B000440F551F440F551F440F551FFA01E81BBC
:1031C000F90BCF01280F391F8B81992787FD909527
:1031D000820F931FFC018081681709F008C08B8162
:1031E0008F5F8B839B818C8189170CF0B5CF2981F0
:1031F0008D819E81422F6F810E947316282F8D81B1
:103200009E81FC012483000028960FB6F894DEBF4F
:103210000FBECDBFDF91CF9108955058BB27AA278D
:103220000ED04DC13ED130F043D120F031F49F3F5C
:1032300011F41EF433C10EF4E095E7FB29C1E92F28
:103240004FD180F3BA17620773078407950718F008
:1032500071F49EF567C10EF4E0950B2EBA2FA02DE8
:103260000B01B90190010C01CA01A0011124FF2733
:10327000591B99F0593F50F4503E68F11A16F0402E
:10328000A22F232F342F4427585FF3CF469537952D
:103290002795A795F0405395C9F77EF41F16BA0BF2
:1032A000620B730B840BBAF09150A1F0FF0FBB1FA0
:1032B000661F771F881FC2F70EC0BA0F621F731FE9
:1032C000841F48F4879577956795B795F7959E3F46
:1032D00008F0B3CF9395880F08F09927EE0F9795D4
:1032E000879508950CD0EBC0E3D040F0DAD030F0F1
:1032F00021F45F3F19F0CCC0511115C1CFC0F0D0FF
:1033000098F39923C9F35523B1F3951B550BBB27AC
:10331000AA2762177307840738F09F5F5F4F220F59
:10332000331F441FAA1FA9F333D00E2E3AF0E0E852
:1033300030D091505040E695001CCAF729D0FE2F9E
:1033400027D0660F771F881FBB1F26173707480730
:10335000AB07B0E809F0BB0B802DBF01FF279358E6
:103360005F4F2AF09E3F510568F092C0DCC05F3F7E
:10337000ECF3983EDCF3869577956795B795F795CE
:103380009F5FC9F7880F911D9695879597F90895C6
:10339000E1E0660F771F881FBB1F62177307840762
:1033A000BA0720F0621B730B840BBA0BEE1F88F771
:1033B000E095089504D06894B111B5C0089598D0EF
:1033C00088F09F5790F0B92F9927B751A0F0D1F00E
:1033D000660F771F881F991F1AF0BA95C9F712C098
:1033E000B13081F09FD0B1E008959CC0672F782F55
:1033F0008827B85F39F0B93FCCF386957795679504
:10340000B395D9F73EF490958095709561957F4F6F
:103410008F4F9F4F0895E89409C097FB3EF4909515
:103420008095709561957F4F8F4F9F4F9923A9F09D
:10343000F92F96E9BB279395F6958795779567952C
:10344000B795F111F8CFFAF4BB0F11F460FF1BC070
:103450006F5F7F4F8F4F9F4F16C0882311F096E903
:1034600011C0772321F09EE8872F762F05C06623B1
:1034700071F096E8862F70E060E02AF09A95660F6A
:10348000771F881FDAF7880F9695879597F9089523
:1034900097F99F6780E870E060E008959FEF80EC07
:1034A000089500240A9416161706180609060895AA
:1034B00000240A9412161306140605060895092E10
:1034C0000394000C11F4882352F0BB0F40F4BF2B7F
:1034D00011F460FF04C06F5F7F4F8F4F9F4F0895BF
:1034E00057FD9058440F551F59F05F3F71F04795B5
:1034F000880F97FB991F61F09F3F79F0879508959A
:10350000121613061406551FF2CF4695F1DF08C0B8
:10351000161617061806991FF1CF869571056105D5
:1035200008940895E894BB2766277727CB0197F97D
:1035300008950BD0C4CFB5DF28F0BADF18F095237B
:1035400009F0A6CFABCF1124EECFCADFA0F3959F31
:10355000D1F3950F50E0551F629FF001729FBB277A
:10356000F00DB11D639FAA27F00DB11DAA1F649F26
:103570006627B00DA11D661F829F2227B00DA11DD9
:10358000621F739FB00DA11D621F839FA00D611D5F
:10359000221F749F3327A00D611D231F849F600D80
:1035A000211D822F762F6A2F11249F5750408AF0B9
:1035B000E1F088234AF0EE0FFF1FBB1F661F771F45
:1035C000881F91505040A9F79E3F510570F060CF81
:1035D000AACF5F3FECF3983EDCF38695779567952D
:1035E000B795F795E7959F5FC1F7FE2B880F911D63
:1035F0009695879597F90895A3E1B0E0E2E0FBE1A5
:103600000C94771E7C011B016A01FC011782168253
:10361000838181FF66C3BE016F5F7F4F4B01F7015E
:103620009381F10193FD859193FF81911F0188237F
:1036300009F453C3853239F493FD859193FF819149
:103640001F01853239F4B70190E00E94CA2056016B
:103650006501E5CF10E0512C20E02032A0F48B3240
:1036600069F030F4803259F0833269F420612CC063
:103670008D3239F0803339F4216026C02260246015
:1036800023C0286021C027FD27C030ED380F3A3015
:1036900078F426FF06C0FAE01F9F300D1124132F87
:1036A00013C06AE0569E300D1124532E20620CC0C8
:1036B0008E3221F426FD11C3206406C08C3611F42D
:1036C000206802C0883641F4F10193FD859193FF93
:1036D00081911F018111C1CF9BEB980F933018F49A
:1036E0002061805E06C09BE9980F933008F0AAC164
:1036F0002F7E26FF16E02F73722E853621F4F22FCF
:10370000F0647F2E08C0863621F4622F6068762E22
:1037100002C01111115077FE07C01C3348F4442435
:103720004394410E27E00BC0183030F4212F06C01F
:1037300027E04CE3442E03C027E017E0412C56015C
:1037400074E0A70EB11CF6016081718182819381C2
:10375000042DA4010E94D51F6C01098100FF02C045
:1037600003FF06C071FC07C072FC08C0612C08C0D2
:103770003DE2632E05C02BE2622E02C090E2692E6C
:10378000802F8C7099F1662011F084E001C083E0F5
:10379000851510F0512C0BC0581A73FC08C0B701E6
:1037A00080E290E00E94CA205A94C9F7F3CF6620C5
:1037B00029F0B701862D90E00E94CA2003FD03C0C6
:1037C00000E810E002C00CE710E0F72DF0717F2E4A
:1037D000F8018491882309F476C271108052B701F0
:1037E00090E00E94CA200F5F1F4FF2CF77FE0FC0FC
:1037F0004C0C04FF04C08A81813309F44A941414E8
:1038000074F5F8E0F41578F588E0482E2CC076FCC5
:103810002AC0812F90E08C159D059CF06CEFC61698
:103820006FEFD60674F0772D7068772E0AC0E2E04D
:10383000F0E0EC0FFD1FE10FF11D8081803319F4E2
:1038400011501111F4CF77FE0EC044244394410E61
:10385000812F90E0C816D9062CF41C1904C044240A
:10386000439401C010E077FE07C01C141D043CF413
:1038700096012F5F3F4F05C025E030E002C021E0F8
:1038800030E0662011F02F5F3F4F112331F0412FC0
:1038900050E04F5F5F4F240F351F452D50E0241738
:1038A000350714F4521A01C0512C872D897049F440
:1038B000552039F0B70180E290E00E94CA205A9466
:1038C000F7CF662029F0B701862D90E00E94CA202C
:1038D00073FC09C0552039F0B70180E390E00E94E5
:1038E000CA205A94F7CF77FE5FC09C2D8D2DD7FE4E
:1038F00002C090E080E0692E782E40E050E0C601E2
:10390000841991099D878C87960126193709280DFE
:10391000391D812F90E0EE27FF27E81BF90BFF8769
:10392000EE87FFEF6F167F0669F4B7018EE290E035
:103930002B8B3A8B488B598B0E94CA205989488916
:103940003A892B89C614D70454F06C857D85661599
:1039500077052CF4F901E40FF51F818101C080E3A4
:1039600071E0671A71084F5F5F4FEE85FF856E1635
:103970007F066CF0B70190E02B8B3A8B488B598B0C
:103980000E94CA202B893A8948895989CACF6C1468
:103990007D0439F49A81963318F4953311F404FFB9
:1039A00081E3B70190E04BC08A81813309F00F7E3B
:1039B000B70190E00E94CA20111105C074FE18C022
:1039C00085E490E017C0B7018EE290E00E94CA2023
:1039D00082E066246394680EF401E80FF11D808193
:1039E000B70190E00E94CA20115041F3862DF1CF1B
:1039F00085E690E0B7010E94CA20D7FC05C0C1143B
:103A0000D10439F404FF05C0D194C194D1088DE2EA
:103A100001C08BE2B70190E00E94CA2080E36AE017
:103A2000C616D1042CF08F5FFAE0CF1AD108F7CF79
:103A3000B70190E00E94CA20B701C601C0960E945B
:103A4000CA2041C1833631F0833779F0833509F0DC
:103A500058C021C0560172E0A70EB11CF60180814A
:103A6000898301E010E0640114C05601F2E0AF0E5A
:103A7000B11CF601C080D18026FF03C0612F70E029
:103A800002C06FEF7FEFC6012B8B0E94BF208C011D
:103A90002B892F7715C05601F2E0AF0EB11CF6014D
:103AA000C080D18026FF03C0612F70E002C06FEF9D
:103AB0007FEFC6012B8B0E94AD208C012B892068E3
:103AC000722E23FD1AC0852D90E008171907A8F45F
:103AD000B70180E290E00E94CA205A94F4CFF60128
:103AE00077FC859177FE81916F01B70190E00E948C
:103AF000CA2051105A94015011090115110579F786
:103B0000E2C0843611F0893651F5560127FF09C00D
:103B1000F4E0AF0EB11CF601608171818281938166
:103B20000AC0F2E0AF0EB11CF601608171818827F6
:103B300077FD8095982F022F0F7697FF08C09095FC
:103B40008095709561957F4F8F4F9F4F00682AE059
:103B500030E0A4010E943D21C82EC8183EC0022FAB
:103B6000853721F40F7E2AE030E01DC0097F8F36B3
:103B700091F018F4883559F0B0C0803719F08837C3
:103B800011F0ABC0006104FF09C0046007C024FF4E
:103B900008C0066006C028E030E005C020E130E043
:103BA00002C020E132E0560107FF09C0F4E0AF0E89
:103BB000B11CF601608171818281938108C0F2E0BD
:103BC000AF0EB11CF6016081718180E090E0A4012C
:103BD0000E943D21C82EC8180F7706FF0BC0202F6A
:103BE0002E7FC11650F404FF0AC002FD08C0202F2A
:103BF0002E7E05C0DC2C202F03C0DC2C01C0D12E72
:103C000024FF0DC0FE01EC0DF11D8081803311F405
:103C1000297E09C022FF06C0D394D39404C0822F0A
:103C2000867809F0D39423FD13C020FF06C01C2D15
:103C3000D51418F4150D1D19D52CD51468F4B70139
:103C400080E290E02B8B0E94CA20D3942B89F5CF81
:103C5000D51410F45D1801C0512C24FF12C0B70117
:103C600080E390E02B8B0E94CA202B8922FF17C093
:103C700021FF03C088E590E002C088E790E0B7012B
:103C80000CC0822F867859F021FD02C080E201C06D
:103C90008BE227FD8DE2B70190E00E94CA20C11699
:103CA00038F4B70180E390E00E94CA201150F7CFAA
:103CB000CA94F401EC0DF11D8081B70190E00E94DF
:103CC000CA20C110F5CF552009F4C2CCB70180E25B
:103CD00090E00E94CA205A94F6CFF701868197811E
:103CE00002C08FEF9FEF6396E2E10C94931E2F9238
:103CF0003F924F925F926F927F928F929F92AF927C
:103D0000BF92CF92DF92EF92FF920F931F93CF93C8
:103D1000DF93CDB7DEB7CA1BDB0B0FB6F894DEBF5F
:103D20000FBECDBF09942A88398848885F846E8485
:103D30007D848C849B84AA84B984C884DF80EE80CF
:103D4000FD800C811B81AA81B981CE0FD11D0FB6D8
:103D5000F894DEBF0FBECDBFED010895CF93DF9382
:103D60008230910510F482E090E0E091CA09F09170
:103D7000CB0920E030E0A0E0B0E0309739F140819D
:103D8000518148175907B8F04817590771F48281D3
:103D90009381109729F013969C938E9312972CC0C1
:103DA0009093CB098093CA0927C02115310531F0C2
:103DB0004217530718F0A901DB0101C0EF019A0176
:103DC000BD01DF010280F381E02DD7CF2115310540
:103DD000F9F0281B390B2430310580F48A819B814E
:103DE0006115710521F0FB019383828304C09093D8
:103DF000CB098093CA09FE01329644C0FE01E20F4E
:103E0000F31F8193919322503109398328833AC05B
:103E10002091C8093091C909232B41F42091020156
:103E2000309103013093C9092093C8092091000102
:103E3000309101012115310541F42DB73EB7409174
:103E4000040150910501241B350BE091C809F09144
:103E5000C909E217F307A0F42E1B3F0B28173907F7
:103E600078F0AC014E5F5F4F2417350748F04E0FD6
:103E70005F1F5093C9094093C8098193919302C071
:103E8000E0E0F0E0CF01DF91CF910895CF93DF9391
:103E9000009709F487C0FC01329713821282C09107
:103EA000CA09D091CB09209781F420813181280F54
:103EB000391F8091C8099091C9098217930779F534
:103EC000F093C909E093C8096DC0DE0120E030E03D
:103ED000AE17BF0750F412964D915C9113979D0158
:103EE0004115510509F1DA01F3CFB383A283408173
:103EF0005181840F951F8A179B0771F48D919C91B6
:103F00001197840F951F02969183808312968D914D
:103F10009C911397938382832115310529F4F093A3
:103F2000CB09E093CA093EC0D9011396FC93EE93E6
:103F300012974D915D91A40FB51FEA17FB0779F415
:103F400080819181840F951F0296D90111969C93CF
:103F50008E938281938113969C938E931297E0E0C7
:103F6000F0E08A819B81009719F0FE01EC01F9CF06
:103F7000CE01029628813981820F931F2091C809B2
:103F80003091C9092817390769F4309729F410923C
:103F9000CB091092CA0902C013821282D093C909B8
:103FA000C093C809DF91CF910895283008F027E029
:103FB0003327DA01990F311D87FD91600096610565
:103FC000710539F432602E5F3D9330E32A95E1F7B5
:103FD00008959F3F30F080387105610509F03C5F1E
:103FE0003C5F3D93913008F08068911DDF93CF9343
:103FF0001F930F93FF92EF92192F987F9695E92FB9
:1040000096959695E90FFF27E252FF4F99273327A0
:10401000EE24FF24A701E70105900894079428F4F3
:10402000360FE71EF81E491F511D660F771F881FA8
:10403000991F0694A1F70590079428F4E70EF81E3F
:10404000491F561FC11D770F881F991F661F0694B1
:10405000A1F70590079428F4F80E491F561FC71FB3
:10406000D11D880F991F661F771F0694A1F7059031
:10407000079420F4490F561FC71FD81F990F661FBA
:10408000771F881F0694A9F784911095177041F047
:10409000D695C79557954795F794E7941A95C1F724
:1040A000E4E8F0E06894159015913591659195914B
:1040B00005907FE27395E118F10A430B560BC90B8B
:1040C000D009C0F7E10CF11E431F561FC91FD01DB8
:1040D0007EF4703311F48A95E6CFE894015030F005
:1040E000080F0AF40027021708F4202F2395022F47
:1040F0007A3328F079E37D932A95E9F710C07D9310
:104100002A9589F60694979567953795179517948C
:10411000E118F10A430B560BC90BD00998F023950F
:104120007E9173957A3308F070E37C932013B8F78F
:104130007E9170617D9330F0839571E37D9370E3A0
:104140002A95E1F71124EF90FF900F911F91CF91E5
:10415000DF91992787FD90950895FC0105906150A6
:1041600070400110D8F7809590958E0F9F1F08958D
:10417000DC0101C06D9341505040E0F70895FC010F
:104180006150704001900110D8F7809590958E0F86
:104190009F1F08950F931F93CF93DF93182F092F1D
:1041A000EB018B8181FD03C08FEF9FEF20C082FF69
:1041B00010C04E815F812C813D81421753077CF4F2
:1041C000E881F9819F012F5F3F4F39832883108356
:1041D00006C0E885F985812F0995892B29F72E815D
:1041E0003F812F5F3F4F3F832E83812F902FDF91A1
:1041F000CF911F910F910895A0E0B0E0E2E0F1E2CD
:104200000C94871EFE01359661917191AF018091EA
:10421000CE099091CF090E94FC1AE2E00C94A31EF3
:104220000F931F93CF93DF93E091CE09F091CF09C5
:10423000238121FF1BC0EC0100E010E08991609117
:10424000CE097091CF09DB011896ED91FC91199779
:10425000882331F00995892B89F30FEF1FEFEECFFB
:104260008AE00995892B11F4C80102C08FEF9FEFF6
:10427000DF91CF911F910F910895FA01AA2728305D
:1042800051F1203181F1E8946F936E7F6E5F7F4F23
:104290008F4F9F4FAF4FB1E03ED0B4E03CD0670F9F
:1042A000781F891F9A1FA11D680F791F8A1F911DF2
:1042B000A11D6A0F711D811D911DA11D20D009F442
:1042C00068943F912AE0269F11243019305D319384
:1042D000DEF6CF010895462F4770405D4193B3E06D
:1042E0000FD0C9F7F6CF462F4F70405D4A3318F014
:1042F000495D31FD4052419302D0A9F7EACFB4E0C5
:10430000A6959795879577956795BA95C9F700977C
:104310006105710508959B01AC010A2E069457951D
:10432000479537952795BA95C9F7620F731F841F74
:0A433000951FA01D0895F894FFCF1B
:10433A000000D20920002B000722000122000222DD
:10434A0000030000000200000000AA0200000000B2
:10435A0000FF0100CE03000000000000010002007F
:10436A00D7030000000000000201FF00260400003D
:10437A000A0419040301FF007904000058046C04BC
:10438A0004010500DF040000BB04CD040504FF009E
:10439A002805000012051D0506040700BA050000DD
:1043AA009005A5050706080003060000ED05F805B7
:1043BA000807FF0070060000540663060907FF009D
:1043CA00C0060000A206B1060A07FF001B0700008C
:1043DA00050710070B06FF005B0700003B074C07A9
:1043EA000C04FF00AE0700008D07A0070D00FF00B8
:1043FA002B08000011082008636865636B42757416
:10440A00746F6E7320666F756E642070726F677258
:10441A00616D696E67427574746F6E206F6E000A03
:10442A005354415254555000656E74727920737416
:10443A00617274757020737461746500657869744B
:10444A00207374617274757000656E747279206578
:10445A005374617465547269616352756E6E696EE4
:10446A0067006578697420747269616352756E6E4B
:10447A00696E67537461746500656E747279205051
:10448A00726F6772616D696E670065786974205032
:10449A00726F6772616D696E6700656E74727920FA
:1044AA0050726570617265466F7252656300657815
:1044BA0069742050726570617265466F72526563E5
:1044CA0000656E747279205265636F726400657854
:1044DA006974205265636F726400656E7472792024
:1044EA005265636F726441637469766500657869C1
:1044FA0074205265636F72644163746976650065FE
:10450A006E74727920526563496E54696D650065EF
:10451A0078697420526563496E54696D6500656EE9
:10452A007472792052656354696D654C6F770065C2
:10453A007869742052656354696D654C6F770065BC
:10454A006E7472792052656354696D654372697439
:10455A006963616C00657869742052656354696D9A
:10456A0065437269746963616C00656E747279205F
:10457A0052656354696D654F757400657869742076
:10458A0052656354696D654F757400656E7472790E
:10459A002054657374696E67006578697420546580
:1045AA007374696E670073746172742073746F72C6
:1045BA0065206F6E20656570726F6D00656E642090
:1045CA0073746F7265206F6E20656570726F6D000F
:1045DA00656E74727920466174616C4572726F728D
:1045EA00002A2A2A2A2A2A2A2A2A2A2A2A2A2A660F
:1045FA006174616C204572726F723A202A2A2A2AE3
:10460A002A2A2A2A2A2A2A2A2A2A2A2A2A2A2A2A00
:10461A002A2A2A2A2A006578697420466174616CFC
:10462A004572726F00656570726F6D2073746F7278
:10463A0065642025582C2062757420636865636B55
:10464A002072657475726E65642025580A00736558
:10465A0074456E6447617000656E644469666646B7
:10466A00202531312E33662020656E6447617053F0
:10467A00697A6546202531312E33660A2020737403
:10468A00657057697468202531312E33660A0073C4
:10469A006574456E644761702025692074682076C8
:1046AA00616C75653A20256631312E33202D2D3EF9
:1046BA00202025690A00696E697420696E74657222
:1046CA00727570747300737461727420414D505323
:1046DA002061646300547269616372756E20737439
:1046EA00617274656400747269616372756E2073B5
:1046FA00746F707065640073746F7020616D70738D
:06470A00616463008040C1
:00000001FF
