:100000000C943E000C9410070C945B000C945B0065
:100010000C946E000C945B000C945B000C945B00E1
:100020000C945B000C94AB060C945B000C945B008E
:100030000C945B000C940F080C945B000C945B0018
:100040000C9475070C945B000C945B000C945B00A3
:100050000C945B000C945B000C945B000C945B00B4
:100060000C94ED060C945B000C945B000C945B000C
:100070000C945B000C945B000C945B0011241FBE7D
:10008000CFEFD8E0DEBFCDBF12E0A0E0B1E0E6ECFC
:10009000F3E202C005900D92A833B107D9F727E02B
:1000A000A8E3B2E001C01D92A333B207E1F70E94BA
:1000B000DB000C94E1110C94000081B18F7081B9C8
:1000C000E8E6F0E0808181608083EBE6F0E080810B
:1000D000806F808380B18093380208951F920F92C1
:1000E0000FB60F9211248F939F9380913A02811142
:1000F00034C08091380290B1982794FF09C0049BC6
:1001000004C091E09093430203C091E09093FD06F8
:1001100090B1982795FF09C0059B04C091E090938A
:10012000390203C091E09093FA0690B1982796FFA8
:1001300009C0069B04C091E090933C0203C091E08B
:100140009093420290B189272CF4079B03C081E071
:1001500080933D0282E080933A0280B1809338021E
:100160009F918F910F900FBE0F901F901895CF9376
:10017000C82FE0ECF0E0908195FFFDCFCA3029F464
:1001800066E071E08DE00E94B700C093C60080E099
:1001900090E0CF9108959093C5008093C400E0EC67
:1001A000F0E080818C7F808388E18093C10086E0CD
:1001B0008093C2000895CF93DF93CDB7DEB7289721
:1001C0000FB6F894DEBF0FBECDBF8BE090E00E946B
:1001D000CB0086E091E09093300780932F0780EB6F
:1001E00091E00E94050F0E9415050E945D000E948B
:1001F0007F070E9490046894662462F8712C0F2E89
:10020000FCE04F2E512CF02D0F2EFBE02F2E312C29
:10021000F02D0F2EF5E08F2E912CF02D0F2EF6E005
:10022000AF2EB12CF02D0F2EF7E0CF2ED12CF02DCC
:100230006894EE24E3F8F12C09E010E08091460286
:10024000882349F05A824982BE016F5F7F4F87E061
:1002500097E00E949D0480910307882359F0109233
:1002600003073A822982BE016F5F7F4F87E097E0E4
:100270000E949D048091FC06882369F01092FC0680
:1002800083E090E09A838983BE016F5F7F4F87E0B0
:1002900097E00E949D0480913B02882369F01092B0
:1002A0003B0281E090E09A838983BE016F5F7F4FBC
:1002B00087E097E00E949D0480914102882359F0D5
:1002C000109241021A821982BE016F5F7F4F87E050
:1002D00097E00E949D0480913E02882369F010926D
:1002E0003E0282E090E09A838983BE016F5F7F4F78
:1002F00087E097E00E949D0480914302882359F093
:10030000109243027A826982BE016F5F7F4F87E05D
:1003100097E00E949D048091FD06882359F0109279
:10032000FD069A828982BE016F5F7F4F87E097E06A
:100330000E949D0480913902882359F0109239025D
:10034000BA82A982BE016F5F7F4F87E097E00E946B
:100350009D048091FA06882359F01092FA06DA82F9
:10036000C982BE016F5F7F4F87E097E00E949D04C6
:1003700080913C02882359F010923C02FA82E98273
:10038000BE016F5F7F4F87E097E00E949D048091E0
:100390004202882359F0109242021A830983BE0157
:1003A0006F5F7F4F87E097E00E949D0480913D0240
:1003B000882309F443CF10923D028AE090E09A83AB
:1003C0008983BE016F5F7F4F87E097E00E949D04A5
:1003D00020CF8091360208950895089508950895D4
:1003E000089508950895809136020895CF93DF937C
:1003F0001F92CDB7DEB780913602E0911B07F091D6
:100400001C07208131812C303105A1F4AE014F5FF2
:100410005F4F6CE080910007909101070E94240AD1
:1004200049816CE080910007909101070E94CD0BFB
:10043000809135020F90DF91CF910895CF93DF9394
:100440001F92CDB7DEB780913602E0911B07F09185
:100450001C0720813181232BA1F4AE014F5F5F4F38
:1004600063E080910007909101070E94240A49816E
:1004700063E080910007909101070E94CD0B80916D
:1004800035020F90DF91CF910895CF93DF931F92A4
:10049000CDB7DEB780913602E0911B07F0911C07C3
:1004A00020813181232BA1F4AE014F5F5F4F68E0C3
:1004B00080910007909101070E94240A498168E019
:1004C00080910007909101070E94CD0B8091350229
:1004D0000F90DF91CF910895CF93DF931F92CDB707
:1004E000DEB780913602E0911B07F0911C07208156
:1004F0003181232BA1F4AE014F5F5F4F65E0809106
:100500000007909101070E94240A498165E08091CB
:100510000007909101070E94CD0B809135020F904A
:10052000DF91CF91089589EB91E00E94050F83E060
:1005300090E00E94F807089588E290E00E94F80792
:1005400008958AE090E00E94F80708958DEC91E00C
:100550000E94050F0E94090808950E940908089545
:1005600081E00E945D0508950E944A0581E00E9495
:100570005D0508958CED91E00E94050F0E944A05EB
:1005800081E00E945D050E94EC0708950E94F20739
:100590000895CF93DF931F92CDB7DEB780913602D7
:1005A000E0911B07F0911C07208131812230310539
:1005B00021F40E94C90580913502E0911B07F0915A
:1005C0001C072081318124303105A1F4AE014F5F39
:1005D0005F4F65E080910007909101070E94240A17
:1005E000498165E080910007909101070E94CD0B41
:1005F000809135020F90DF91CF910895CF93DF93D3
:100600001F92CDB7DEB780913602E0911B07F091C3
:100610001C072081318129303105A1F4AE014F5FE3
:100620005F4F65E080910007909101070E94240AC6
:10063000498165E080910007909101070E94CD0BF0
:1006400080913502E0911B07F0911C0720813181D8
:100650002230310521F40E94C905809135020F90A6
:10066000DF91CF9108950E94CF0708950E94E5077A
:100670000895CF93DF931F92CDB7DEB780913602F6
:10068000E0911B07F0911C07208131812530310555
:10069000A1F4AE014F5F5F4F63E08091000790913E
:1006A00001070E94240A498163E08091000790912C
:1006B00001070E94CD0B80913502E0911B07F0915C
:1006C0001C07208131812A30310541F48091440298
:1006D000909145020E94E504809135020F90DF91D0
:1006E000CF910895CF93DF931F92CDB7DEB780915E
:1006F0003602E0911B07F0911C07208131812330E5
:10070000310521F40E94600580913502E0911B07BC
:10071000F0911C072081318126303105A1F4AE0112
:100720004F5F5F4F66E080910007909101070E9444
:10073000240A498166E080910007909101070E9498
:10074000CD0B80913502E0911B07F0911C072081B1
:10075000318128303105A1F4AE014F5F5F4F6BE06E
:1007600080910007909101070E94240A49816BE063
:1007700080910007909101070E94CD0B8091350276
:100780000F90DF91CF910895CF93DF931F92CDB754
:10079000DEB780913602E0911B07F0911C072081A3
:1007A00031812330310521F40E94600580913502AA
:1007B000E0911B07F0911C07208131812230310527
:1007C00021F40E94C90580913502E0911B07F09148
:1007D0001C072081318127303105A1F4AE014F5F24
:1007E0005F4F65E080910007909101070E94240A05
:1007F000498165E080910007909101070E94CD0B2F
:1008000080913502E0911B07F0911C072081318116
:100810002B303105A1F4AE014F5F5F4F6AE080914C
:100820000007909101070E94240A49816AE08091A3
:100830000007909101070E94CD0B809135020F9027
:10084000DF91CF9108950E94100680E00E945D051F
:100850000E944A0508950E9409080E9450080895C0
:100860000E9409080E94500808951F93CF93DF93B8
:100870001F92CDB7DEB710913602E0911B07F091C1
:100880001C0720813181232BA1F4AE014F5F5F4F04
:1008900069E080910007909101070E94240A498134
:1008A00069E080910007909101070E94CD0B1091A3
:1008B0003502E0911B07F0911C0720813181223025
:1008C000310549F48091F906823018F40E945208EB
:1008D00002C00E945008812F0F90DF91CF911F918D
:1008E0000895CF93C0913602E0911B07F0911C0749
:1008F000208131812230310549F48091F90686301A
:1009000018F40E94520802C00E9450088C2FCF9108
:10091000089585E090E00E94F8070E94520808952B
:1009200087E097E0909301078093000720E04DE077
:1009300064E171E00E948B09089570931C07609335
:100940001B070E94D9090895F999FECF92BD81BD78
:1009500060BDF894FA9AF99A78940895F999FECFBF
:1009600092BD81BDF89A80B508951F93CF93DF9310
:10097000EC01162F0E94A404CE010E94AE041817A9
:1009800089F01F928F931F921F9385EF91E09F93A1
:100990008F930E94F10E0F900F900F900F900F9079
:1009A0000F900CC01F921F938EE192E09F938F9344
:1009B0000E94F10E0F900F900F900F90DF91CF914A
:1009C0001F9108950197F0F708950F931F93CF9308
:1009D000DF938C01C0E0D0E0F80161918F01CE017E
:1009E0000E94B5042196C23BF4E0DF07A9F780E03E
:1009F000DF91CF911F910F9108950F931F93CF9384
:100A0000DF938C01C0E0D0E0CE010E94AE04F8017B
:100A100081938F012196C23BF4E0DF07A9F780E0C4
:100A2000DF91CF911F910F9108951092FB061092C4
:100A3000460280914402909145020E94FD0408956F
:100A40000E94A406E0914402F0914502A091FE06A6
:100A5000B091FF061196AA0FBB1FAE0FBF1F8D935B
:100A60009C93208131812F5F3F4F318320830895F4
:100A70008091440290914502E091FE06F091FF06BC
:100A80003196EE0FFF1FE80FF91F808191810E94C0
:100A90009206089587E492E0909345028093440281
:100AA0001092050710920407109206071092FF0695
:100AB0001092FE061092030708958093020708958E
:100AC00008958F929F92AF92BF92CF92DF92EF9252
:100AD000FF920F931F93CF93DF93E0904402F09027
:100AE0004502C090FE06D090FF06F6013196EE0F4B
:100AF000FF1FEE0DFF1D80819181F701228133815F
:100B0000821B930B86309105BCF168EC70E00E946B
:100B1000A20D882777FD8095982F0E94160D4B0116
:100B20005C01E601CC0FDD1FCE0DDF1D8E010057ED
:100B30001E4F6991799180E090E00E94140DA5010B
:100B400094010E94840C0E94E80C79836883C0178A
:100B5000D10779F7F70182819381F9ECCF0ED11C8F
:100B60009601220F331FF701E20FF31F9183808359
:100B7000D092FF06C092FE06DF91CF911F910F9198
:100B8000FF90EF90DF90CF90BF90AF909F908F90AD
:100B90000895809106078F5F809306078A3058F08A
:100BA0008091040790910507019690930507809323
:100BB000040710920607809102078130B1F48091FA
:100BC000FE069091FF06209147023091480282175D
:100BD000930718F00E944A0505C001969093FF06FE
:100BE0008093FE060E9438050895811118C08091F7
:100BF000FE069091FF068632924060F40E94200526
:100C00008091FE069091FF0601969093FF068093D7
:100C1000FE06089581E0809303070E946105089510
:100C2000E0914402F091450282EB94E0DF019C01E7
:100C30001D9221503040E1F70895E1EBF0E0408152
:100C400010822091B20030E02817390771F0E2EBF2
:100C5000F0E08083808190E09C012F5F3F4F26175A
:100C6000370719F4BC016E5F7F4F6093B300409368
:100C7000B100089560912107709122076C3F7105C2
:100C8000BCF480E090E00E941D0620912307309183
:100C900024078091210790912207820F931F909340
:100CA00024078093230710922207109221070895AA
:100CB0006C5F710970932207609321076CEF70E0FD
:100CC00080E090E00E941D06809123079091240708
:100CD00084509F4F9093240780932307089517BA59
:100CE00082E08093700085E08093B10008951092B7
:100CF000B1001092700082E087BB089518161906A3
:100D000014F081E090E090932207809321070E94E5
:100D10003A060E946F060895F8945C980E94770640
:100D200078940895F8948A3223E0920728F49093F7
:100D3000400280933F0206C08AE293E09093400213
:100D400080933F0278940895F89480913F029091A7
:100D50004002789408951F920F920FB60F921124BB
:100D60002F933F934F935F936F937F938F939F93B3
:100D7000AF93BF93EF93FF93F894809121079091E5
:100D8000220718161906ACF05C9A81E090E00E94E8
:100D9000E2045C9880912307909124078A32934063
:100DA0001CF00E94770607C081E090E00E947E065A
:100DB00002C00E943A067894FF91EF91BF91AF91E3
:100DC0009F918F917F916F915F914F913F912F9163
:100DD0000F900FBE0F901F9018951F920F920FB695
:100DE0000F9211248F939F938091780090917900B6
:100DF000909326078093250780911D078F5F82308F
:100E000019F080931D0705C010921D0781E08093A3
:100E1000FC069F918F910F900FBE0F901F90189519
:100E20001F920F920FB60F9211242F933F934F935F
:100E30005F936F937F938F939F93AF93BF93EF9342
:100E4000FF93F8944A9B03C00E948C063CC010920A
:100E500024071092230720913F023091400212167E
:100E6000130634F48AE293E0821B930B0E947E0601
:100E7000809120078F5F809320079DEC899F912DA3
:100E80001124969596959695990F292F220F220F4A
:100E9000920F891318C091E090933E02823310F0B4
:100EA000109220078091F9068F5F8A3018F48093A2
:100EB000F90602C01092F90680913A02882319F0CF
:100EC000815080933A027894FF91EF91BF91AF9156
:100ED0009F918F917F916F915F914F913F912F9152
:100EE0000F900FBE0F901F9018951F920F920FB684
:100EF0000F9211240F900FBE0F901F90189580EF46
:100F000081B980EE82B98FE080937E0052985A9822
:100F10005C98549A5C985B98539A5B9881E08093B4
:100F200069001DBA10923B021092800088E0809305
:100F300081001092820080E39AE29093890080936E
:100F40008800109285001092840010926F0082E059
:100F500084BD9FEF97BD16BC15BC10926E008093A8
:100F6000B0001092B1001092B6008CEF8093B300E5
:100F70001092B2001092700087E080937A00109275
:100F8000FC0610921D07109226071092250710925A
:100F9000F90610923E0210923A0278940895EAE718
:100FA000F0E087E080831092FC0610921D0781E438
:100FB00080937C008FEA808383E080937B0085E0D0
:100FC00085BD82E080936E00089587E080937A006B
:100FD00015BC10926E000895109220071CBA81E093
:100FE0008DBB08951DBAF8940E948C0678940895DC
:100FF0001092410290931F0780931E0710922807BA
:101000001092270782E080936F008DE0809381002B
:10101000089588E08093810010926F0008951F92D8
:101020000F920FB60F9211242F933F934F935F931C
:101030006F937F938F939F93AF93BF93EF93FF93A0
:1010400080911E0790911F07019790931F0780932F
:101050001E0720912707309128072F5F3F4F3093BD
:101060002807209327071816190634F00E9409084C
:1010700081E08093410203C081E080933B02FF91B5
:10108000EF91BF91AF919F918F917F916F915F9100
:101090004F913F912F910F900FBE0F901F90189579
:1010A0005B9808955B9A08958F929F92BF92CF921A
:1010B000DF92EF92FF920F931F93CF93DF93FC0188
:1010C0008181882309F49AC0D12C0F2EFBE0BF2E1A
:1010D000F02DC12CEB2CFC2C0D2D10E0C801880F3D
:1010E000991FEC01CC0FDD1FCC0FDD1FCC0FDD1FD6
:1010F0004E01881A990AC401A581B681A80DB91DAF
:101100001C961C924B2D5C2D65817681680F791F92
:101110009A0121503109DB01A20FB31FAC91EB0101
:10112000C40FD51FA8832115310511F0A901ECCFFB
:10113000A581B681A80DB91DDC9225813681E90112
:10114000C80DD91D2C852F5F2C879801220F331FC6
:10115000020F131F9801220F331F220F331F890123
:1011600042815381EA01C20FD31F29812F3F09F425
:1011700040C03CC0A90165817681680F791F9A0142
:1011800021503109EB01C20FD31FC881DB01A40F2D
:10119000B51FCC932115310569F7C281D381C00FEA
:1011A000D11F2981C581D681C80FD91F2883C58148
:1011B000D681C80FD91F2C852F5F2C874281538180
:1011C000DA01A00FB11F11962C9130E0B901660F22
:1011D000771F260F371F220F331F220F331F89015E
:1011E000EA01C20FD31F29812F3F19F04E2D5F2D29
:1011F000C2CFD3948181D81608F46ECFDF91CF91FE
:101200001F910F91FF90EF90DF90CF90BF909F9034
:101210008F900895FC0181818823C9F040E05FEF41
:10122000242F30E0220F331FD901AA0FBB1FAA0FB2
:10123000BB1FAA0FBB1FA21BB30B85819681A80FF2
:10124000B91F1D965C934F5F8181481748F308953D
:10125000FF920F931F93CF93DF93EC01F62E862F0F
:1012600090E08C01000F111F800F911F8C01000F67
:10127000111F000F111FEA81FB81E00FF11F068093
:10128000F781E02D309709F00995EA81FB81E00FA5
:10129000F11F0084F185E02D309709F00995FC825B
:1012A0008A819B81FC01E00FF11FF2808FEFF8161D
:1012B00061F18F2D992787FD90958C01000F111FEB
:1012C000800F911F8C01000F111F000F111FEA8169
:1012D000FB81E00FF11F0680F781E02D309709F0C8
:1012E0000995EA81FB81E00FF11F0084F185E02D73
:1012F000309709F00995FC828A819B81FC01E00FFF
:10130000F11FF2808FEFF812D4CFDF91CF911F91B0
:101310000F91FF9008951F93CF93DF93EC01122F4D
:1013200049837B836A8350E0440F551FCA01880FAD
:10133000991F880F991F880F991F841B950B0E9476
:10134000CA0D9E838D83CE010E945408CE010E9457
:101350000A09612FCE010E9428098FEF8B8BDF9144
:10136000CF911F91089550E0440F551FDA01AA0F45
:10137000BB1FAA0FBB1FAA0FBB1FA41BB50BFC01F1
:1013800085819681A80FB91F1C969C911C9791503E
:1013900072F080E031E0FD01E90FF11D97FDFA9553
:1013A0002081261301C0832F9150AAF7089580E071
:1013B0000895EF92FF920F931F93CF93DF93EC0169
:1013C0008FEF8B8BFE0137968CE0DF011D928A95A3
:1013D000E9F70C810F3F79F1FF24F394E12C8B891D
:1013E0008F5F8B8BFE01E80FF11D87FDFA95078358
:1013F000112707FD1095C801880F991F080F191FA5
:10140000000F111F000F111FEA81FB81E00FF11F78
:101410000480F581E02D09959F2D803409F09E2DE3
:101420002A813B81F901E00FF11F01810F3F21F07B
:101430009923A9F201C090E0892FDF91CF911F91EC
:101440000F91FF90EF9008958F929F92AF92BF926D
:10145000CF92DF92EF92FF920F931F93CF93DF9380
:10146000EC01962E6A018B8988230CF454C05E012E
:1014700087E0A80EB11C00E010E0F50181905F014B
:10148000882D90E07C01EE0CFF1C8E0D9F1D7C01D1
:10149000EE0CFF1CEE0CFF1CEA81FB81EE0DFF1D24
:1014A0000284F385E02D309709F00995F6018082DA
:1014B0002A813B81F901EE0DFF1D8181992787FD6E
:1014C0009095AC01440F551F480F591F440F551FED
:1014D000440F551FF901E40FF51F2381222381F0EA
:1014E000880F991FFC01EE0FFF1FEE0FFF1FEE0F7D
:1014F000FF1FE81BF90B8D819E81E80FF91F858680
:101500000F5F1F4F8B89992787FD90958017910753
:101510000CF0B3CF02C088248A94882D90E0FC019F
:10152000EE0FFF1F8E0F9F1F880F991F880F991FA7
:10153000EA81FB81E80FF91FF1804FC08F2D90E009
:101540008C01000F111F800F911F8C01000F111FC4
:10155000000F111FEA81FB81E00FF11F0284F38568
:10156000E02D309709F00995F601F0828A819B8180
:10157000FC01E00FF11FF1802F2D30E0F901EE0F9B
:10158000FF1F2E0F3F1FF901EE0FFF1FEE0FFF1F72
:10159000E80FF91F2181332727FD3095A901440F5A
:1015A000551F420F531F440F551F440F551FFC0179
:1015B000E40FF51F8381882381F0220F331FF90187
:1015C000EE0FFF1FEE0FFF1FEE0FFF1FE21BF30BCF
:1015D0008D819E81E80FF91FF586EF2C492D6F2D27
:1015E000CE010E94B309882309F4A8CFF9103FC0A7
:1015F0008F2D90E08C01000F111F800F911F8C0127
:10160000000F111F000F111FEA81FB81E00FF11F76
:101610000284F385E02D309709F00995F8822A813C
:101620003B81F901E00FF11F8181992787FD90959A
:10163000AC01440F551F480F591F440F551F440F4D
:10164000551FF901E40FF51F2381222381F0880F34
:10165000991FFC01EE0FFF1FEE0FFF1FEE0FFF1F84
:10166000E81BF90B8D819E81E80FF91FE586DF915C
:10167000CF911F910F91FF90EF90DF90CF90BF908F
:10168000AF909F908F900895EF92FF920F931F93CA
:10169000CF93DF93EC01E62E862F90E0880F991F01
:1016A0008C01000F111F000F111F000F111F081BCD
:1016B000190BF42EED81FE81E00FF11FEF0DF11DEE
:1016C0008081992787FD9095FC01EE0FFF1F8E0FFB
:1016D0009F1F880F991F880F991FEA81FB81E80FD0
:1016E000F91F0084F185E02D309709F00995F394F6
:1016F0002F2D30E0ED81FE81E00FF11F84859927C9
:1017000087FD9095019782179307A4F61E2D18C0A8
:10171000182F01C0182F212F30E0F901EE0FFF1F05
:101720002E0F3F1F220F331F220F331FEA81FB8131
:10173000E20FF31F0084F185E02D309709F0099541
:10174000412F50E09A01220F331FF901EE0FFF1FC6
:10175000EE0FFF1FEE0FFF1FE21BF30B2D813E81EB
:10176000E20FF31F85858F3F99F6FA01EE0FFF1FF9
:101770004E0F5F1F440F551F440F551FEA81FB8119
:10178000E40FF51F82818F3F29F6812FDF91CF91E2
:101790001F910F91FF90EF900895FF920F931F9369
:1017A000CF93DF93EC01162F042F462F602F0E945A
:1017B000B309882379F1812F90E0880F991FFC01EC
:1017C000EE0FFF1FEE0FFF1FEE0FFF1FE81BF90BC1
:1017D0008D819E81E80FF91F548515160CF07FC08E
:1017E000602F70E08081992787FD90958617970775
:1017F00009F477C0319640E008C02191332727FDD6
:1018000030952617370709F473C04F5F4513F5CF9E
:101810004FEF6EC02D813E81812F90E0880F991F80
:10182000DC01AA0FBB1FAA0FBB1FAA0FBB1FA81B5F
:10183000B90BA20FB31F1C96FC901C97888190E0F7
:10184000880F991FFC01EE0FFF1FEE0FFF1FEE0F19
:10185000FF1FE81BF90BE20FF31F84858F1594F42B
:10186000802F90E0880F991FFC01EE0FFF1FEE0FF5
:10187000FF1FEE0FFF1FE81BF90BE20FF31FF484AD
:10188000FA9401C0FA94FF2074F1602F70E0660FA3
:10189000771FCB01880F991F880F991F880F991FF9
:1018A000861B970B820F931FFC0130812C91321302
:1018B0001CC040E00FC0252F332727FD3095FC01C9
:1018C000E20FF31F2A0F3B1F4081F90120814213D1
:1018D0000EC0452F51E0540FF5166CF709C04FEFBD
:1018E00007C040E005C04FEF03C040E001C0452FF6
:1018F000612FCE010E94440B8C83DF91CF911F9109
:101900000F91FF9008955058BB27AA270ED0E0C032
:10191000D1D030F0D6D020F031F49F3F11F41EF436
:10192000C6C00EF4E095E7FBBCC0E92FE2D080F31F
:10193000BA17620773078407950718F071F49EF5CC
:10194000FAC00EF4E0950B2EBA2FA02D0B01B901B1
:1019500090010C01CA01A0011124FF27591B99F025
:10196000593F50F4503E68F11A16F040A22F232F31
:10197000342F4427585FF3CF469537952795A79581
:10198000F0405395C9F77EF41F16BA0B620B730B28
:10199000840BBAF09150A1F0FF0FBB1F661F771F99
:1019A000881FC2F70EC0BA0F621F731F841F48F44E
:1019B000879577956795B795F7959E3F08F0B3CFD4
:1019C0009395880F08F09927EE0F979587950895BE
:1019D00098D088F09F5790F0B92F9927B751A0F071
:1019E000D1F0660F771F881F991F1AF0BA95C9F7B3
:1019F00012C0B13081F09FD0B1E008959CC0672F34
:101A0000782F8827B85F39F0B93FCCF38695779562
:101A10006795B395D9F73EF490958095709561954B
:101A20007F4F8F4F9F4F0895E89409C097FB3EF476
:101A300090958095709561957F4F8F4F9F4F99231B
:101A4000A9F0F92F96E9BB279395F6958795779599
:101A50006795B795F111F8CFFAF4BB0F11F460FF59
:101A60001BC06F5F7F4F8F4F9F4F16C0882311F0B1
:101A700096E911C0772321F09EE8872F762F05C0C5
:101A8000662371F096E8862F70E060E02AF09A9560
:101A9000660F771F881FDAF7880F9695879597F955
:101AA000089597F99F6780E870E060E008959FEFE0
:101AB00080EC089500240A941616170618060906E5
:101AC000089500240A9412161306140605060895B4
:101AD000092E0394000C11F4882352F0BB0F40F43C
:101AE000BF2B11F460FF04C06F5F7F4F8F4F9F4F7C
:101AF000089557FD9058440F551F59F05F3F71F0FE
:101B00004795880F97FB991F61F09F3F79F0879564
:101B10000895121613061406551FF2CF4695F1DFED
:101B200008C0161617061806991FF1CF869571057D
:101B3000610508940895E894BB2766277727CB01B1
:101B400097F9089597FB072E16F4009407D077FDB8
:101B500009D00E94B60D07FC05D03EF49095819502
:101B60009F4F0895709561957F4F0895AA1BBB1BE9
:101B700051E107C0AA1FBB1FA617B70710F0A61B8D
:101B8000B70B881F991F5A95A9F780959095BC01AE
:101B9000CD010895CF93DF938230910510F482E058
:101BA00090E0E0912B07F0912C0720E030E0A0E0DE
:101BB000B0E0309739F14081518148175907B8F0AA
:101BC0004817590771F482819381109729F0139671
:101BD0009C938E9312972CC090932C0780932B0785
:101BE00027C02115310531F04217530718F0A9011C
:101BF000DB0101C0EF019A01BD01DF010280F38129
:101C0000E02DD7CF21153105F9F0281B390B2430F1
:101C1000310580F48A819B816115710521F0FB01FA
:101C20009383828304C090932C0780932B07FE013B
:101C3000329644C0FE01E20FF31F8193919322502C
:101C40003109398328833AC02091290730912A0726
:101C5000232B41F4209102013091030130932A0794
:101C600020932907209100013091010121153105B0
:101C700041F42DB73EB74091040150910501241B5A
:101C8000350BE0912907F0912A07E217F307A0F43A
:101C90002E1B3F0B2817390778F0AC014E5F5F4FC2
:101CA0002417350748F04E0F5F1F50932A074093C3
:101CB00029078193919302C0E0E0F0E0CF01DF912A
:101CC000CF910895CF93DF93009709F487C0FC016B
:101CD000329713821282C0912B07D0912C07209744
:101CE00081F420813181280F391F8091290790913B
:101CF0002A078217930779F5F0932A07E0932907BB
:101D00006DC0DE0120E030E0AE17BF0750F4129640
:101D10004D915C9113979D014115510509F1DA012F
:101D2000F3CFB383A28340815181840F951F8A171B
:101D30009B0771F48D919C911197840F951F0296CA
:101D40009183808312968D919C91139793838283C4
:101D50002115310529F4F0932C07E0932B073EC0A1
:101D6000D9011396FC93EE9312974D915D91A40FB8
:101D7000B51FEA17FB0779F480819181840F951FC5
:101D80000296D90111969C938E938281938113962A
:101D90009C938E931297E0E0F0E08A819B810097FC
:101DA00019F0FE01EC01F9CFCE01029628813981AC
:101DB000820F931F2091290730912A07281739078E
:101DC00069F4309729F410922C0710922B0702C067
:101DD00013821282D0932A07C0932907DF91CF91F3
:101DE0000895A0E0B0E0E7EFFEE00C94BA11FE0128
:101DF000359661917191AF0180912F0790913007D5
:101E00000E94320FE2E00C94D6110F931F93CF93F0
:101E1000DF93E0912F07F0913007238121FF1BC052
:101E2000EC0100E010E0899160912F07709130077C
:101E3000DB011896ED91FC911997882331F00995F3
:101E4000892B89F30FEF1FEFEECF8AE00995892BDD
:101E500011F4C80102C08FEF9FEFDF91CF911F9166
:101E60000F910895ACE0B0E0E8E3FFE00C94AA1114
:101E70007C016B018A01FC0117821682838181FF3C
:101E8000BDC1CE0101964C01F7019381F60193FD8E
:101E9000859193FF81916F01882309F4ABC185324D
:101EA00039F493FD859193FF81916F01853229F477
:101EB000B70190E00E941A11E7CF512C312C20E09D
:101EC0002032A0F48B3269F030F4803259F0833242
:101ED00069F420612CC08D3239F0803339F42160EF
:101EE00026C02260246023C0286021C027FD27C0AF
:101EF00030ED380F3A3078F426FF06C0FAE05F9EE6
:101F0000300D1124532E13C08AE0389E300D112459
:101F1000332E20620CC08E3221F426FD6BC120646A
:101F200006C08C3611F4206802C0883641F4F601F0
:101F300093FD859193FF81916F018111C1CF982FFE
:101F40009F7D9554933028F40C5F1F4FFFE3F98376
:101F50000DC0833631F0833771F0833509F05BC0F3
:101F600022C0F801808189830E5F1F4F442443946F
:101F7000512C540115C03801F2E06F0E711CF801AC
:101F8000A080B18026FF03C0652D70E002C06FEF16
:101F90007FEFC5012C870E940F112C0183012C8536
:101FA0002F77222E17C03801F2E06F0E711CF80156
:101FB000A080B18026FF03C0652D70E002C06FEFE6
:101FC0007FEFC5012C870E9404112C012C8520680D
:101FD000222E830123FC1BC0832D90E04816590656
:101FE000B0F4B70180E290E00E941A113A94F4CF65
:101FF000F50127FC859127FE81915F01B70190E0F3
:102000000E941A1131103A94F1E04F1A510841140C
:10201000510471F7E5C0843611F0893639F5F801BD
:1020200027FF07C060817181828193810C5F1F4F00
:1020300008C060817181882777FD8095982F0E5F99
:102040001F4F2F76B22E97FF09C0909580957095FF
:1020500061957F4F8F4F9F4F2068B22E2AE030E06E
:10206000A4010E944C11A82EA81844C0853729F459
:102070002F7EB22E2AE030E025C0F22FF97FBF2E4E
:102080008F36C1F018F4883579F0B4C0803719F074
:10209000883721F0AFC02F2F2061B22EB4FE0DC0C3
:1020A0008B2D8460B82E09C024FF0AC09F2F966034
:1020B000B92E06C028E030E005C020E130E002C0C3
:1020C00020E132E0F801B7FE07C0608171818281B2
:1020D00093810C5F1F4F06C06081718180E090E0AA
:1020E0000E5F1F4FA4010E944C11A82EA818FB2DB3
:1020F000FF77BF2EB6FE0BC02B2D2E7FA51450F4FC
:10210000B4FE0AC0B2FC08C02B2D2E7E05C07A2C6E
:102110002B2D03C07A2C01C0752C24FF0DC0FE01AD
:10212000EA0DF11D8081803311F4297E09C022FF60
:1021300006C07394739404C0822F867809F0739458
:1021400023FD13C020FF06C05A2C731418F4530C3F
:102150005718732C731468F4B70180E290E02C8751
:102160000E941A1173942C85F5CF731410F437184C
:1021700001C0312C24FF12C0B70180E390E02C870E
:102180000E941A112C8522FF17C021FF03C088E589
:1021900090E002C088E790E0B7010CC0822F8678FB
:1021A00059F021FD02C080E201C08BE227FD8DE2E3
:1021B000B70190E00E941A11A51438F4B70180E32A
:1021C00090E00E941A115A94F7CFAA94F401EA0DF4
:1021D000F11D8081B70190E00E941A11A110F5CF86
:1021E000332009F451CEB70180E290E00E941A1129
:1021F0003A94F6CFF7018681978102C08FEF9FEF67
:102200002C96E2E10C94C611FC01059061507040DF
:102210000110D8F7809590958E0F9F1F0895FC01AF
:102220006150704001900110D8F7809590958E0F05
:102230009F1F08950F931F93CF93DF93182F092F9C
:10224000EB018B8181FD03C08FEF9FEF20C082FFE8
:1022500010C04E815F812C813D81421753077CF471
:10226000E881F9819F012F5F3F4F398328831083D5
:1022700006C0E885F985812F0995892B29F72E81DC
:102280003F812F5F3F4F3F832E83812F902FDF9120
:10229000CF911F910F910895FA01AA27283051F18B
:1022A000203181F1E8946F936E7F6E5F7F4F8F4F87
:1022B0009F4FAF4FB1E03ED0B4E03CD0670F781FE6
:1022C000891F9A1FA11D680F791F8A1F911DA11DCB
:1022D0006A0F711D811D911DA11D20D009F4689404
:1022E0003F912AE0269F11243019305D3193DEF6AC
:1022F000CF010895462F4770405D4193B3E00FD062
:10230000C9F7F6CF462F4F70405D4A3318F0495D4C
:1023100031FD4052419302D0A9F7EACFB4E0A6952F
:102320009795879577956795BA95C9F70097610551
:10233000710508959B01AC010A2E069457954795A7
:1023400037952795BA95C9F7620F731F841F951F9C
:10235000A01D08952F923F924F925F926F927F92AD
:102360008F929F92AF92BF92CF92DF92EF92FF92A5
:102370000F931F93CF93DF93CDB7DEB7CA1BDB0B51
:102380000FB6F894DEBF0FBECDBF09942A883988F6
:1023900048885F846E847D848C849B84AA84B984FD
:1023A000C884DF80EE80FD800C811B81AA81B98109
:1023B000CE0FD11D0FB6F894DEBF0FBECDBFED011D
:0623C0000895F894FFCF20
:1023C6000000330720000000000200000000B700F4
:1023D6000000000000FF0100E9010000000000000D
:1023E60001000200F6010000000000000201FF00EB
:1023F6001E0200009302A6020301FF00C9020000AC
:10240600BA02C6020401050039030000330336038D
:102416000504FF0072030000EC01ED01060407004D
:10242600C40300002304B0020706FF0045020000B3
:102436009C02AD020806FF0035040000A1022B0431
:102446000906FF0071040000EE01EF010A04FF0017
:102456006C020000890430040B04FF00FE02000039
:10246600B402F0010C00FF00F3010000F101F201DB
:102476000A5354415254555000656E747279207354
:10248600746172747570207374617465006578691F
:10249600742061736B2063616C696200656E74728F
:1024A6007920655374617465547269616352756EFF
:1024B6006E696E6700656570726F6D2073746F72FA
:1024C60065642025582C2062757420636865636BEB
:1024D6002072657475726E65642025580A007265EF
:1024E60072656164206F6B2072657475726E6564C7
:0824F6002025580A0040800077
:00000001FF
