:100000000C943E000C944F040C945B000C945B0029
:100010000C945B000C945B000C945B000C945B00F4
:100020000C945B000C94EA030C945B000C945B0052
:100030000C945B000C9431050C945B000C945B00F9
:100040000C94A3040C945B000C945B000C945B0078
:100050000C945B000C945B000C945B000C945B00B4
:100060000C942C040C945B000C945B000C945B00CF
:100070000C945B000C945B000C945B0011241FBE7D
:10008000CFEFD8E0DEBFCDBF11E0A0E0B1E0ECE7FC
:10009000F8E102C005900D92AC3EB107D9F726E019
:1000A000ACEEB1E001C01D92AC3DB207E1F70E9499
:1000B00081000C943C0C0C940000CF93C82FE0EC12
:1000C000F0E0908195FFFDCFCA3029F466E071E041
:1000D0008DE00E945D00C093C60080E090E0CF916B
:1000E00008959093C5008093C400E0ECF0E0808117
:1000F0008C7F808388E18093C10086E08093C2007A
:100100000895CF93DF93CDB7DEB728970FB6F89455
:10011000DEBF0FBECDBF8BE090E00E94710086E095
:1001200091E09093D9068093D80684EA91E00E94EA
:100130000F0C0E9459020E94AD040E9423020F2E50
:10014000FBE0CF2ED12CF02D0F2EF3E0EF2EF12C73
:10015000F02D01E010E06894AA24A1F8B12C809160
:10016000F501882349F0DA82C982BE016F5F7F4FB3
:100170008AEA96E00E9430028091A906882359F00D
:100180001092A906FA82E982BE016F5F7F4F8AEA68
:1001900096E00E9430028091EC01882359F0109281
:1001A000EC011A830983BE016F5F7F4F8AEA96E0F4
:1001B0000E9430028091F001882359F01092F001E2
:1001C0001A821982BE016F5F7F4F8AEA96E00E9411
:1001D00030028091ED01882311F21092ED01BA8274
:1001E000A982BE016F5F7F4F8AEA96E00E943002CB
:1001F000B6CF8091EA01089508958091EA010895AB
:10020000089508958091EA010895089508958091D0
:10021000EA010895089508958091EA0108950895E6
:1002200008958091EA010895089508958091EA0162
:100230000895CF93DF931F92CDB7DEB78091EA0187
:10024000E091C406F091C506208131812B30310543
:10025000A1F4AE014F5F5F4F6BE08091F10190918F
:10026000F2010E94420749816BE08091F101909177
:10027000F2010E94EB088091E9010F90DF91CF918C
:100280000895CF93DF931F92CDB7DEB78091EA0137
:10029000E091C406F091C50620813181232BA1F4A1
:1002A000AE014F5F5F4F63E08091F1019091F201E9
:1002B0000E944207498163E08091F1019091F2012F
:1002C0000E94EB088091E9010F90DF91CF91089592
:1002D0008DEA91E00E940F0C86E090E00E941A05E2
:1002E000089588E290E00E941A05089581EC91E05B
:1002F0000E940F0C0E942B0508950E942B05089563
:1003000081E00E949F02089580ED91E00E940F0C11
:100310000E948E0281E00E949F020E9414050895AF
:10032000CF93DF931F92CDB7DEB78091EA01E091C2
:10033000C406F091C506208131812230310521F4B7
:100340000E940B038091E901E091C406F091C5067B
:100350002081318124303105A1F4AE014F5F5F4F20
:1003600065E08091F1019091F2010E94420749817C
:1003700065E08091F1019091F2010E94EB0880917B
:10038000E9010F90DF91CF9108950E94F70408953D
:100390000E940D050895CF93DF931F92CDB7DEB76E
:1003A0008091EA01E091C406F091C5062081318177
:1003B0002330310521F40E94A2028091E901E091ED
:1003C000C406F091C5062081318126303105A1F4A3
:1003D000AE014F5F5F4F66E08091F1019091F201B5
:1003E0000E944207498166E08091F1019091F201FB
:1003F0000E94EB088091E9010F90DF91CF91089561
:100400008091EA01E091C406F091C5062081318116
:100410002330310521F40E94A2028091E901E0918C
:10042000C406F091C506208131812230310521F4C6
:100430000E940B038091E90108950E944F0380E020
:100440000E949F0208958AEA96E09093F2018093B9
:10045000F10120E04CE064E171E00E94A9060895FA
:100460007093C5066093C4060E94F7060895F99933
:10047000FECF92BD81BDF89A80B508950197F0F73F
:1004800008950F931F93CF93DF938C01C0E0D0E0CA
:10049000CE010E943702F80181938F012196C23B61
:1004A000F4E0DF07A9F780E0DF91CF911F910F9172
:1004B00008951092A8061092F5018091F301909191
:1004C000F4010E94410208950E94E303E091F301C8
:1004D000F091F401A091BE06B091BF061196AA0F4B
:1004E000BB1FAE0FBF1F8D939C93208131812F5F67
:1004F0003F4F3183208308958091F3019091F4015F
:10050000E091BE06F091BF063196EE0FFF1FE80F97
:10051000F91F808191810E94D103089586EF91E0B7
:100520009093F4018093F3011092C2061092C106D9
:100530001092C3061092BF061092BE0608958093D3
:10054000C006089508958F929F92AF92BF92CF9266
:10055000DF92EF92FF920F931F93CF93DF93E09080
:10056000F301F090F401C090BE06D090BF06F601F2
:100570003196EE0FFF1FEE0DFF1D80819181F70177
:1005800022813381821B930B86309105BCF168EC8C
:1005900070E00E94C00A882777FD8095982F0E94FE
:1005A000340A4B015C01E601CC0FDD1FCE0DDF1DCF
:1005B0008E0100571E4F6991799180E090E00E9472
:1005C000320AA50194010E94A2090E94060A7983B9
:1005D0006883C017D10779F7F70182819381F9EC1D
:1005E000CF0ED11C9601220F331FF701E20FF31F2C
:1005F00091838083D092BF06C092BE06DF91CF91D7
:100600001F910F91FF90EF90DF90CF90BF90AF9030
:100610009F908F9008958091C3068F5F8093C3064B
:100620008A3058F08091C1069091C206019690934D
:10063000C2068093C1061092C3068091C006813025
:10064000B1F48091BE069091BF062091F6013091E1
:10065000F7018217930718F00E948E0205C00196D9
:100660009093BF068093BE060E947C02089581117C
:1006700015C08091BE069091BF068632924060F40C
:100680000E9464028091BE069091BF0601969093ED
:10069000BF068093BE0608950E94A3020895E091CC
:1006A000F301F091F40182EB94E0DF019C011D92D3
:1006B00021503040E1F70895E1EBF0E040811082F5
:1006C0002091B20030E02817390771F0E2EBF0E03A
:1006D0008083808190E09C012F5F3F4F2617370772
:1006E00019F4BC016E5F7F4F6093B3004093B1007B
:1006F00008956091CA067091CB066C3F7105BCF4F9
:1007000080E090E00E945C032091CC063091CD0601
:100710008091CA069091CB06820F931F9093CD06CD
:100720008093CC061092CB061092CA0608956C5F97
:1007300071097093CB066093CA066CEF70E080E09D
:1007400090E00E945C038091CC069091CD0684508D
:100750009F4F9093CD068093CC06089517BA82E000
:100760008093700085E08093B10008951092B100ED
:100770001092700082E087BB08951816190614F0D5
:1007800081E090E09093CB068093CA060E947903A3
:100790000E94AE030895F8945C980E94B603789482
:1007A0000895F8948A3223E0920728F49093EF0199
:1007B0008093EE0106C08AE293E09093EF0180936C
:1007C000EE0178940895F8948091EE019091EF01F4
:1007D000789408951F920F920FB60F9211242F93C1
:1007E0003F934F935F936F937F938F939F93AF93B9
:1007F000BF93EF93FF93F8948091CA069091CB0634
:1008000018161906ACF05C9A81E090E00E943E0256
:100810005C988091CC069091CD068A3293401CF072
:100820000E94B60307C081E090E00E94BD0302C0B1
:100830000E9479037894FF91EF91BF91AF919F91BE
:100840008F917F916F915F914F913F912F910F9079
:100850000FBE0F901F9018951F920F920FB60F9218
:1008600011248F939F9380917800909179009093B9
:10087000CF068093CE068091C6068F5F823019F036
:100880008093C60605C01092C60681E08093A90633
:100890009F918F910F900FBE0F901F9018951F92F0
:1008A0000F920FB60F9211242F933F934F935F93A4
:1008B0006F937F938F939F93AF93BF93EF93FF9328
:1008C000F8944A9B03C00E94CB032BC01092CD0624
:1008D0001092CC062091EE013091EF011216130612
:1008E00034F48AE293E0821B930B0E94BD03809153
:1008F000C9068F5F8093C9069DEC899F912D1124B5
:10090000969596959695990F292F220F220F920F63
:10091000891307C091E09093ED01823310F010929B
:10092000C9067894FF91EF91BF91AF919F918F91FC
:100930007F916F915F914F913F912F910F900FBEDB
:100940000F901F9018951F920F920FB60F921124BF
:100950000F900FBE0F901F90189580EF81B980EE19
:1009600082B98FE080937E0052985A985C98549A8E
:100970005C985B98539A5B9881E0809369001DBAFC
:100980001092EC011092800088E080938100109218
:10099000820080E39AE2909389008093880010920D
:1009A00085001092840010926F0082E084BD9FEF5A
:1009B00097BD16BC15BC10926E008093B0001092CB
:1009C000B1001092B6008CEF8093B3001092B20089
:1009D0001092700087E080937A001092A90610921E
:1009E000C6061092CF061092CE0678940895EAE7D4
:1009F000F0E087E080831092A9061092C60681E499
:100A000080937C008FEA808383E080937B0085E085
:100A100085BD82E080936E00089587E080937A0020
:100A200015BC10926E0008951092C9061CBA81E0A0
:100A30008DBB08951092F0019093C8068093C7066D
:100A40001092D1061092D00682E080936F008DE064
:100A500080938100089588E08093810010926F0058
:100A600008951F920F920FB60F9211242F933F9368
:100A70004F935F936F937F938F939F93AF93BF93A6
:100A8000EF93FF938091C7069091C80601979093CA
:100A9000C8068093C7062091D0063091D1062F5FFB
:100AA0003F4F3093D1062093D0061816190634F024
:100AB0000E942B0581E08093F00103C081E08093C8
:100AC000EC01FF91EF91BF91AF919F918F917F9139
:100AD0006F915F914F913F912F910F900FBE0F90AB
:100AE0001F9018958F929F92BF92CF92DF92EF92B4
:100AF000FF920F931F93CF93DF93FC018181882393
:100B000009F49AC0D12C0F2EFBE0BF2EF02DC12C82
:100B1000EB2CFC2C0D2D10E0C801880F991FEC0167
:100B2000CC0FDD1FCC0FDD1FCC0FDD1F4E01881A4F
:100B3000990AC401A581B681A80DB91D1C961C9205
:100B40004B2D5C2D65817681680F791F9A012150AC
:100B50003109DB01A20FB31FAC91EB01C40FD51F0C
:100B6000A8832115310511F0A901ECCFA581B6812B
:100B7000A80DB91DDC9225813681E901C80DD91D6A
:100B80002C852F5F2C879801220F331F020F131F14
:100B90009801220F331F220F331F89014281538195
:100BA000EA01C20FD31F29812F3F09F440C03CC086
:100BB000A90165817681680F791F9A012150310959
:100BC000EB01C20FD31FC881DB01A40FB51FCC936B
:100BD0002115310569F7C281D381C00FD11F298149
:100BE000C581D681C80FD91F2883C581D681C80F7A
:100BF000D91F2C852F5F2C8742815381DA01A00FEA
:100C0000B11F11962C9130E0B901660F771F260FA6
:100C1000371F220F331F220F331F8901EA01C20F32
:100C2000D31F29812F3F19F04E2D5F2DC2CFD394B2
:100C30008181D81608F46ECFDF91CF911F910F916B
:100C4000FF90EF90DF90CF90BF909F908F9008958E
:100C5000FC0181818823C9F040E05FEF242F30E060
:100C6000220F331FD901AA0FBB1FAA0FBB1FAA0F48
:100C7000BB1FA21BB30B85819681A80FB91F1D96C0
:100C80005C934F5F8181481748F30895FF920F935B
:100C90001F93CF93DF93EC01F62E862F90E08C010B
:100CA000000F111F800F911F8C01000F111F000FEB
:100CB000111FEA81FB81E00FF11F0680F781E02D13
:100CC000309709F00995EA81FB81E00FF11F00845C
:100CD000F185E02D309709F00995FC828A819B818E
:100CE000FC01E00FF11FF2808FEFF81661F18F2DFC
:100CF000992787FD90958C01000F111F800F911F80
:100D00008C01000F111F000F111FEA81FB81E00F02
:100D1000F11F0680F781E02D309709F00995EA81EF
:100D2000FB81E00FF11F0084F185E02D309709F081
:100D30000995FC828A819B81FC01E00FF11FF28002
:100D40008FEFF812D4CFDF91CF911F910F91FF90C9
:100D500008951F93CF93DF93EC01122F49837B8378
:100D60006A8350E0440F551FCA01880F991F880FEE
:100D7000991F880F991F841B950B0E94E80A9E8378
:100D80008D83CE010E947205CE010E942806612F3C
:100D9000CE010E9446068FEF8B8BDF91CF911F9182
:100DA000089550E0440F551FDA01AA0FBB1FAA0F88
:100DB000BB1FAA0FBB1FA41BB50BFC01858196812D
:100DC000A80FB91F1C969C911C97915072F080E05F
:100DD00031E0FD01E90FF11D97FDFA952081261301
:100DE00001C0832F9150AAF7089580E00895EF92F3
:100DF000FF920F931F93CF93DF93EC018FEF8B8BB9
:100E0000FE0137968CE0DF011D928A95E9F70C818F
:100E10000F3F79F1FF24F394E12C8B898F5F8B8B4B
:100E2000FE01E80FF11D87FDFA950783112707FDE5
:100E30001095C801880F991F080F191F000F111F67
:100E4000000F111FEA81FB81E00FF11F0480F58183
:100E5000E02D09959F2D803409F09E2D2A813B813C
:100E6000F901E00FF11F01810F3F21F09923A9F251
:100E700001C090E0892FDF91CF911F910F91FF90DA
:100E8000EF9008958F929F92AF92BF92CF92DF9290
:100E9000EF92FF920F931F93CF93DF93EC01962E67
:100EA0006A018B8988230CF454C05E0187E0A80E88
:100EB000B11C00E010E0F50181905F01882D90E009
:100EC0007C01EE0CFF1C8E0D9F1D7C01EE0CFF1CA7
:100ED000EE0CFF1CEA81FB81EE0DFF1D0284F38501
:100EE000E02D309709F00995F60180822A813B8137
:100EF000F901EE0DFF1D8181992787FD9095AC01C9
:100F0000440F551F480F591F440F551F440F551FBD
:100F1000F901E40FF51F2381222381F0880F991F27
:100F2000FC01EE0FFF1FEE0FFF1FEE0FFF1FE81B70
:100F3000F90B8D819E81E80FF91F85860F5F1F4F8A
:100F40008B89992787FD9095801791070CF0B3CF77
:100F500002C088248A94882D90E0FC01EE0FFF1FC8
:100F60008E0F9F1F880F991F880F991FEA81FB81A1
:100F7000E80FF91FF1804FC08F2D90E08C01000F1A
:100F8000111F800F911F8C01000F111F000F111FE7
:100F9000EA81FB81E00FF11F0284F385E02D309799
:100FA00009F00995F601F0828A819B81FC01E00F2E
:100FB000F11FF1802F2D30E0F901EE0FFF1F2E0FF2
:100FC0003F1FF901EE0FFF1FEE0FFF1FE80FF91F84
:100FD0002181332727FD3095A901440F551F420F6A
:100FE000531F440F551F440F551FFC01E40FF51FFD
:100FF0008381882381F0220F331FF901EE0FFF1F39
:10100000EE0FFF1FEE0FFF1FE21BF30B8D819E8182
:10101000E80FF91FF586EF2C492D6F2DCE010E94A8
:10102000D106882309F4A8CFF9103FC08F2D90E096
:101030008C01000F111F800F911F8C01000F111FD9
:10104000000F111FEA81FB81E00FF11F0284F3857D
:10105000E02D309709F00995F8822A813B81F9014A
:10106000E00FF11F8181992787FD9095AC01440F16
:10107000551F480F591F440F551F440F551FF901A5
:10108000E40FF51F2381222381F0880F991FFC01B3
:10109000EE0FFF1FEE0FFF1FEE0FFF1FE81BF90BF8
:1010A0008D819E81E80FF91FE586DF91CF911F9119
:1010B0000F91FF90EF90DF90CF90BF90AF909F90F7
:1010C0008F900895EF92FF920F931F93CF93DF932A
:1010D000EC01E62E862F90E0880F991F8C01000FFF
:1010E000111F000F111F000F111F081B190BF42EE9
:1010F000ED81FE81E00FF11FEF0DF11D8081992739
:1011000087FD9095FC01EE0FFF1F8E0F9F1F880F2C
:10111000991F880F991FEA81FB81E80FF91F00844E
:10112000F185E02D309709F00995F3942F2D30E0EB
:10113000ED81FE81E00FF11F8485992787FD909551
:10114000019782179307A4F61E2D18C0182F01C00F
:10115000182F212F30E0F901EE0FFF1F2E0F3F1F38
:10116000220F331F220F331FEA81FB81E20FF31F8F
:101170000084F185E02D309709F00995412F50E06A
:101180009A01220F331FF901EE0FFF1FEE0FFF1F11
:10119000EE0FFF1FE21BF30B2D813E81E20FF31FC9
:1011A00085858F3F99F6FA01EE0FFF1F4E0F5F1FE7
:1011B000440F551F440F551FEA81FB81E40FF51FB3
:1011C00082818F3F29F6812FDF91CF911F910F915F
:1011D000FF90EF900895FF920F931F93CF93DF93AB
:1011E000EC01162F042F462F602F0E94D106882372
:1011F00079F1812F90E0880F991FFC01EE0FFF1FFE
:10120000EE0FFF1FEE0FFF1FE81BF90B8D819E8174
:10121000E80FF91F548515160CF07FC0602F70E0A1
:101220008081992787FD90958617970709F477C0E5
:10123000319640E008C02191332727FD30952617CD
:10124000370709F473C04F5F4513F5CF4FEF6EC0FA
:101250002D813E81812F90E0880F991FDC01AA0F1C
:10126000BB1FAA0FBB1FAA0FBB1FA81BB90BA20F46
:10127000B31F1C96FC901C97888190E0880F991FE3
:10128000FC01EE0FFF1FEE0FFF1FEE0FFF1FE81B0D
:10129000F90BE20FF31F84858F1594F4802F90E0F3
:1012A000880F991FFC01EE0FFF1FEE0FFF1FEE0FBF
:1012B000FF1FE81BF90BE20FF31FF484FA9401C03F
:1012C000FA94FF2074F1602F70E0660F771FCB0156
:1012D000880F991F880F991F880F991F861B970BDE
:1012E000820F931FFC0130812C9132131CC040E00F
:1012F0000FC0252F332727FD3095FC01E20FF31F88
:101300002A0F3B1F4081F901208142130EC0452F57
:1013100051E0540FF5166CF709C04FEF07C040E0DD
:1013200005C04FEF03C040E001C0452F612FCE0143
:101330000E9462088C83DF91CF911F910F91FF90E3
:1013400008955058BB27AA270ED0E0C0D1D030F066
:10135000D6D020F031F49F3F11F41EF4C6C00EF435
:10136000E095E7FBBCC0E92FE2D080F3BA17620733
:1013700073078407950718F071F49EF5FAC00EF410
:10138000E0950B2EBA2FA02D0B01B90190010C0195
:10139000CA01A0011124FF27591B99F0593F50F4AD
:1013A000503E68F11A16F040A22F232F342F442705
:1013B000585FF3CF469537952795A795F0405395FD
:1013C000C9F77EF41F16BA0B620B730B840BBAF0CD
:1013D0009150A1F0FF0FBB1F661F771F881FC2F738
:1013E0000EC0BA0F621F731F841F48F4879577954C
:1013F0006795B795F7959E3F08F0B3CF9395880F03
:1014000008F09927EE0F97958795089598D088F062
:101410009F5790F0B92F9927B751A0F0D1F0660FE0
:10142000771F881F991F1AF0BA95C9F712C0B130FB
:1014300081F09FD0B1E008959CC0672F782F882756
:10144000B85F39F0B93FCCF3869577956795B3953A
:10145000D9F73EF490958095709561957F4F8F4FA9
:101460009F4F0895E89409C097FB3EF490958095AE
:10147000709561957F4F8F4F9F4F9923A9F0F92F5A
:1014800096E9BB279395F695879577956795B795D8
:10149000F111F8CFFAF4BB0F11F460FF1BC06F5FBE
:1014A0007F4F8F4F9F4F16C0882311F096E911C0D0
:1014B000772321F09EE8872F762F05C0662371F0F1
:1014C00096E8862F70E060E02AF09A95660F771F05
:1014D000881FDAF7880F9695879597F9089597F9F9
:1014E0009F6780E870E060E008959FEF80EC0895CA
:1014F00000240A94161617061806090608950024F3
:101500000A9412161306140605060895092E03946C
:10151000000C11F4882352F0BB0F40F4BF2B11F4E0
:1015200060FF04C06F5F7F4F8F4F9F4F089557FD3F
:101530009058440F551F59F05F3F71F04795880F41
:1015400097FB991F61F09F3F79F0879508951216D8
:1015500013061406551FF2CF4695F1DF08C0161684
:1015600017061806991FF1CF869571056105089435
:101570000895E894BB2766277727CB0197F908954C
:1015800097FB072E16F4009407D077FD09D00E9430
:10159000D40A07FC05D03EF4909581959F4F08959D
:1015A000709561957F4F0895AA1BBB1B51E107C041
:1015B000AA1FBB1FA617B70710F0A61BB70B881FE3
:1015C000991F5A95A9F780959095BC01CD01089572
:1015D000CF93DF938230910510F482E090E0E091A8
:1015E000D406F091D50620E030E0A0E0B0E03097DE
:1015F00039F14081518148175907B8F04817590708
:1016000071F482819381109729F013969C938E93A5
:1016100012972CC09093D5068093D40627C021152D
:10162000310531F04217530718F0A901DB0101C061
:10163000EF019A01BD01DF010280F381E02DD7CFD8
:1016400021153105F9F0281B390B2430310580F4C0
:101650008A819B816115710521F0FB01938382834F
:1016600004C09093D5068093D406FE01329644C000
:10167000FE01E20FF31F81939193225031093983C8
:1016800028833AC02091D2063091D306232B41F40F
:1016900020910201309103013093D3062093D206AA
:1016A00020910001309101012115310541F42DB740
:1016B0003EB74091040150910501241B350BE09188
:1016C000D206F091D306E217F307A0F42E1B3F0BCE
:1016D0002817390778F0AC014E5F5F4F24173507A4
:1016E00048F04E0F5F1F5093D3064093D20681936C
:1016F000919302C0E0E0F0E0CF01DF91CF91089537
:10170000CF93DF93009709F487C0FC0132971382CF
:101710001282C091D406D091D506209781F4208101
:101720003181280F391F8091D2069091D3068217FC
:10173000930779F5F093D306E093D2066DC0DE01EE
:1017400020E030E0AE17BF0750F412964D915C9147
:1017500013979D014115510509F1DA01F3CFB383C8
:10176000A28340815181840F951F8A179B0771F4D2
:101770008D919C911197840F951F02969183808380
:1017800012968D919C911397938382832115310535
:1017900029F4F093D506E093D4063EC0D901139600
:1017A000FC93EE9312974D915D91A40FB51FEA172C
:1017B000FB0779F480819181840F951F0296D901EE
:1017C00011969C938E938281938113969C938E9312
:1017D0001297E0E0F0E08A819B81009719F0FE010A
:1017E000EC01F9CFCE01029628813981820F931F37
:1017F0002091D2063091D3062817390769F4309723
:1018000029F41092D5061092D40602C013821282D7
:10181000D093D306C093D206DF91CF9108950F9352
:101820001F93CF93DF93E091D806F091D9062381DF
:1018300021FF1BC0EC0100E010E089916091D80607
:101840007091D906DB011896ED91FC9119978823C8
:1018500031F00995892B89F30FEF1FEFEECF8AE066
:101860000995892B11F4C80102C08FEF9FEFDF911A
:0C187000CF911F910F910895F894FFCFC5
:10187C000000DC06200000000002000000005D00FB
:10188C000000000000FF0100F90000000000000053
:10189C000100020019010000000000000201FF001D
:1018AC0041010000680176010301FF009001000076
:1018BC008401FC0004010500FD000000C501C80105
:1018CC000504FF00CB010000000101010604070024
:1018DC00000200001D0280010706FF00020100004B
:1018EC0071017D010806FF000701000005010601DA
:1018FC000906FF000C0100000A010B010A06FF009B
:10190C00110100000F0110010B00FF001601000077
:10191C00140115010A5354415254555000656E740C
:10192C00727920737461727475702073746174654C
:10193C0000657869742061736B2063616C69620067
:10194C00656E747279206553746174655472696143
:0C195C006352756E6E696E67004080007B
:00000001FF
