:100000000C943E000C9417060C945B000C945B005F
:100010000C945B000C945B000C945B000C945B00F4
:100020000C945B000C94B2050C945B000C945B0088
:100030000C945B000C94F9060C945B000C945B0030
:100040000C946B060C945B000C945B000C945B00AE
:100050000C945B000C945B000C945B000C945B00B4
:100060000C94F4050C945B000C945B000C945B0006
:100070000C945B000C945B000C945B0011241FBE7D
:10008000CFEFD8E0DEBFCDBF12E0A0E0B1E0EAE9FB
:10009000F1E202C005900D92A833B107D9F727E02D
:1000A000A8E3B2E001C01D92A932B207E1F70E94B5
:1000B00081000C94CB100C940000CF93C82FE0EC7F
:1000C000F0E0908195FFFDCFCA3029F466E071E041
:1000D0008DE00E945D00C093C60080E090E0CF916B
:1000E00008959093C5008093C400E0ECF0E0808117
:1000F0008C7F808388E18093C10086E08093C2007A
:100100000895CF93DF93CDB7DEB728970FB6F89455
:10011000DEBF0FBECDBF8BE090E00E94710086E095
:1001200091E0909326078093250780EB91E00E9451
:10013000EF0D0E941C040E9475060E9497030F2E6B
:10014000FCE0AF2EB12CF02D0F2EFBE0CF2ED12CEA
:10015000F02D0F2EF3E0EF2EF12CF02D01E010E04A
:100160006894882481F8912C80914302882349F077
:10017000BA82A982BE016F5F7F4F8DEF96E00E9429
:10018000A4038091F706882359F01092F706DA82CB
:10019000C982BE016F5F7F4F8DEF96E00E94A4037E
:1001A0008091FC06882359F01092FC06FA82E982BD
:1001B000BE016F5F7F4F8DEF96E00E94A403809198
:1001C0003802882359F0109238021A830983BE013D
:1001D0006F5F7F4F8DEF96E00E94A40380913E02F7
:1001E000882359F010923E021A821982BE016F5F75
:1001F0007F4F8DEF96E00E94A40380913B028823FD
:1002000009F4B2CF10923B029A828982BE016F5FDD
:100210007F4F8DEF96E00E94A403A6CF8091360217
:1002200008950895089508950895089508950895E6
:1002300008950895809136020895CF93DF931F9219
:10024000CDB7DEB780913602E0911107F091120729
:10025000208131812C303105A1F4AE014F5F5F4F19
:100260006CE080913F02909140020E940E0949810A
:100270006CE080913F02909140020E94B70A809109
:1002800035020F90DF91CF910895CF93DF931F92A6
:10029000CDB7DEB780913602E0911107F0911207D9
:1002A00020813181232BA1F4AE014F5F5F4F63E0CA
:1002B00080913F02909140020E940E09498163E0C3
:1002C00080913F02909140020E94B70A80913502CE
:1002D0000F90DF91CF910895CF93DF931F92CDB709
:1002E000DEB780913602E0911107F091120720816C
:1002F0003181232BA1F4AE014F5F5F4F68E0809105
:100300003F02909140020E940E09498168E080916D
:100310003F02909140020E94B70A809135020F90EF
:10032000DF91CF910895CF93DF931F92CDB7DEB7C2
:1003300080913602E0911107F091120720813181FE
:10034000232BA1F4AE014F5F5F4F69E080913F0224
:10035000909140020E940E09498169E080913F021C
:10036000909140020E94B70A809135020F90DF9170
:10037000CF910895CF93DF931F92CDB7DEB78091D1
:100380003602E0911107F091120720813181232B71
:10039000A1F4AE014F5F5F4F68E080913F02909102
:1003A00040020E940E09498168E080913F029091CD
:1003B00040020E94B70A809135020F90DF91CF91E1
:1003C0000895CF93DF931F92CDB7DEB780913602A9
:1003D000E0911107F091120720813181232BA1F4C4
:1003E000AE014F5F5F4F65E080913F029091400208
:1003F0000E940E09498165E080913F029091400280
:100400000E94B70A809135020F90DF91CF91089535
:10041000CF93DF931F92CDB7DEB780913602E09184
:100420001107F09112072081318129303105A1F4A3
:10043000AE014F5F5F4F65E080913F0290914002B7
:100440000E940E09498165E080913F02909140022F
:100450000E94B70A809135020F90DF91CF910895E5
:1004600089EB91E00E94EF0D86E090E00E94E206A9
:10047000089588E290E00E94E20608958AE090E004
:100480000E94E20608958DEC91E00E94EF0D0E941B
:10049000F30608950E94F30608950E94F306089556
:1004A00081E00E94640408958CED91E00E94EF0DBC
:1004B0000E94510481E00E9464040E94DC060895B9
:1004C000CF93DF931F92CDB7DEB780913602E091D4
:1004D0001107F0911207208131812230310521F47A
:1004E0000E94D00480913502E0911107F09112072B
:1004F0002081318124303105A1F4AE014F5F5F4F7F
:1005000065E080913F02909140020E940E0949816E
:1005100065E080913F02909140020E94B70A80916D
:1005200035020F90DF91CF9108950E94BF06089584
:100530000E94D5060895CF93DF931F92CDB7DEB703
:1005400080913602E0911107F091120720813181EC
:1005500025303105A1F4AE014F5F5F4F63E080911C
:100560003F02909140020E940E09498163E0809110
:100570003F02909140020E94B70A80913502E091BB
:100580001107F0911207208131812A30310541F4A1
:1005900080914102909142020E94EC0380913502C9
:1005A0000F90DF91CF910895CF93DF931F92CDB736
:1005B000DEB780913602E0911107F0911207208199
:1005C00031812330310521F40E9467048091350286
:1005D000E0911107F0911207208131812630310519
:1005E000A1F4AE014F5F5F4F66E080913F029091B2
:1005F00040020E940E09498166E080913F0290917D
:1006000040020E94B70A80913502E0911107F091F3
:1006100012072081318128303105A1F4AE014F5FEE
:100620005F4F6BE080913F02909140020E940E0963
:1006300049816BE080913F02909140020E94B70A8D
:10064000809135020F90DF91CF910895CF93DF9382
:100650001F92CDB7DEB780913602E0911107F0917D
:100660001207208131812330310521F40E94670473
:1006700080913502E0911107F091120720813181BC
:100680002230310521F40E94D00480913502E0919E
:100690001107F09112072081318127303105A1F433
:1006A000AE014F5F5F4F65E080913F029091400245
:1006B0000E940E09498165E080913F0290914002BD
:1006C0000E94B70A80913502E0911107F09112075C
:1006D000208131812B303105A1F4AE014F5F5F4F96
:1006E0006AE080913F02909140020E940E09498188
:1006F0006AE080913F02909140020E94B70A809187
:1007000035020F90DF91CF9108950E94170580E088
:100710000E946404089584E090E00E94E2060E9432
:100720003C0708950E94F3060E943A0708958DEF52
:1007300096E09093400280933F0220E04DE064E118
:1007400071E00E9475080895709312076093110775
:100750000E94C3080895F999FECF92BD81BD60BD86
:10076000F894FA9AF99A78940895F999FECF92BD7F
:1007700081BDF89A80B508951F93CF93DF93EC0164
:10078000162F0E94AB03CE010E94B503181789F003
:100790001F928F931F921F9385EF91E09F938F93EA
:1007A0000E94DB0D0F900F900F900F900F900F9005
:1007B0000CC01F921F938EE192E09F938F930E9433
:1007C000DB0D0F900F900F900F90DF91CF911F9145
:1007D00008950197F0F708950F931F93CF93DF9338
:1007E0008C01C0E0D0E0F80161918F01CE010E9440
:1007F000BC032196C23BF4E0DF07A9F780E0DF915C
:10080000CF911F910F9108950F931F93CF93DF9373
:100810008C01C0E0D0E0CE010E94B503F8018193C5
:100820008F012196C23BF4E0DF07A9F780E0DF915A
:10083000CF911F910F9108951092FB0610924302E1
:1008400080914102909142020E94040408950E9406
:10085000AB05E0914102F0914202A0913902B091C2
:100860003A021196AA0FBB1FAE0FBF1F8D939C9328
:10087000208131812F5F3F4F318320830895809104
:10088000410290914202E0913902F0913A02319690
:10089000EE0FFF1FE80FF91F808191810E949905DB
:1008A000089584E492E09093420280934102109272
:1008B000F9061092F8061092FA0610923A02109277
:1008C00039021092F70608958093F6060895089568
:1008D0008F929F92AF92BF92CF92DF92EF92FF9250
:1008E0000F931F93CF93DF93E0904102F090420269
:1008F000C0903902D0903A02F6013196EE0FFF1FF8
:10090000EE0DFF1D80819181F70122813381821BD1
:10091000930B86309105BCF168EC70E00E948C0C62
:10092000882777FD8095982F0E94000C4B015C0171
:10093000E601CC0FDD1FCE0DDF1D8E0100571E4FCF
:100940006991799180E090E00E94FE0BA5019401ED
:100950000E946E0B0E94D20B79836883C017D10767
:1009600079F7F70182819381F9ECCF0ED11C9601C2
:10097000220F331FF701E20FF31F91838083D09280
:100980003A02C0923902DF91CF911F910F91FF90EF
:10099000EF90DF90CF90BF90AF909F908F90089591
:1009A0008091FA068F5F8093FA068A3058F0809122
:1009B000F8069091F90601969093F9068093F8064F
:1009C0001092FA068091F6068130B1F480913902D6
:1009D00090913A0220914402309145028217930788
:1009E00018F00E94510405C0019690933A0280933A
:1009F00039020E943F040895811118C08091390284
:100A000090913A028632924060F40E9427048091CD
:100A1000390290913A02019690933A0280933902FA
:100A2000089581E08093F7060E9468040895E0919C
:100A30004102F091420282EB94E0DF019C011D92A1
:100A400021503040E1F70895E1EBF0E04081108261
:100A50002091B20030E02817390771F0E2EBF0E0A6
:100A60008083808190E09C012F5F3F4F26173707DE
:100A700019F4BC016E5F7F4F6093B3004093B100E7
:100A8000089560911707709118076C3F7105BCF4C9
:100A900080E090E00E9424052091190730911A0708
:100AA0008091170790911807820F931F90931A0750
:100AB00080931907109218071092170708956C5F1A
:100AC000710970931807609317076CEF70E080E06E
:100AD00090E00E9424058091190790911A07845094
:100AE0009F4F90931A0780931907089517BA82E0D1
:100AF0008093700085E08093B10008951092B1005A
:100B00001092700082E087BB08951816190614F041
:100B100081E090E090931807809317070E944105A9
:100B20000E9476050895F8945C980E947E0578945A
:100B30000895F8948A3223E0920728F490933D02B6
:100B400080933C0206C08AE293E090933D0280933A
:100B50003C0278940895F89480913C0290913D0273
:100B6000789408951F920F920FB60F9211242F932D
:100B70003F934F935F936F937F938F939F93AF9325
:100B8000BF93EF93FF93F894809117079091180704
:100B900018161906ACF05C9A81E090E00E94E90317
:100BA0005C988091190790911A078A3293401CF043
:100BB0000E947E0507C081E090E00E94850502C08A
:100BC0000E9441057894FF91EF91BF91AF919F9161
:100BD0008F917F916F915F914F913F912F910F90E6
:100BE0000FBE0F901F9018951F920F920FB60F9285
:100BF00011248F939F938091780090917900909326
:100C00001C0780931B07809113078F5F823019F0B8
:100C10008093130705C01092130781E08093FC06B0
:100C20009F918F910F900FBE0F901F9018951F925C
:100C30000F920FB60F9211242F933F934F935F9310
:100C40006F937F938F939F93AF93BF93EF93FF9394
:100C5000F8944A9B03C00E9493052BC010921A0778
:100C60001092190720913C0230913D021216130692
:100C700034F48AE293E0821B930B0E9485058091F5
:100C800016078F5F809316079DEC899F912D112485
:100C9000969596959695990F292F220F220F920FD0
:100CA000891307C091E090933B02823310F01092B9
:100CB00016077894FF91EF91BF91AF919F918F911B
:100CC0007F916F915F914F913F912F910F900FBE48
:100CD0000F901F9018951F920F920FB60F9211242C
:100CE0000F900FBE0F901F90189580EF81B980EE86
:100CF00082B98FE080937E0052985A985C98549AFB
:100D00005C985B98539A5B9881E0809369001DBA68
:100D1000109238021092800088E080938100109237
:100D2000820080E39AE29093890080938800109279
:100D300085001092840010926F0082E084BD9FEFC6
:100D400097BD16BC15BC10926E008093B000109237
:100D5000B1001092B6008CEF8093B3001092B200F5
:100D60001092700087E080937A001092FC06109237
:100D7000130710921C0710921B0778940895EAE756
:100D8000F0E087E080831092FC061092130781E464
:100D900080937C008FEA808383E080937B0085E0F2
:100DA00085BD82E080936E00089587E080937A008D
:100DB00015BC10926E000895109216071CBA81E0BF
:100DC0008DBB089510923E029093150780931407EF
:100DD00010921E0710921D0782E080936F008DE035
:100DE00080938100089588E08093810010926F00C5
:100DF00008951F920F920FB60F9211242F933F93D5
:100E00004F935F936F937F938F939F93AF93BF9312
:100E1000EF93FF938091140790911507019790939A
:100E200015078093140720911D0730911E072F5F2F
:100E30003F4F30931E0720931D071816190634F0F4
:100E40000E94F30681E080933E0203C081E080931C
:100E50003802FF91EF91BF91AF919F918F917F9158
:100E60006F915F914F913F912F910F900FBE0F9017
:100E70001F9018955B9808955B9A08958F929F92A2
:100E8000BF92CF92DF92EF92FF920F931F93CF9377
:100E9000DF93FC018181882309F49AC0D12C0F2EA5
:100EA000FBE0BF2EF02DC12CEB2CFC2C0D2D10E007
:100EB000C801880F991FEC01CC0FDD1FCC0FDD1F7F
:100EC000CC0FDD1F4E01881A990AC401A581B68195
:100ED000A80DB91D1C961C924B2D5C2D6581768149
:100EE000680F791F9A0121503109DB01A20FB31F4E
:100EF000AC91EB01C40FD51FA8832115310511F06A
:100F0000A901ECCFA581B681A80DB91DDC92258180
:100F10003681E901C80DD91D2C852F5F2C879801DA
:100F2000220F331F020F131F9801220F331F220FAE
:100F3000331F890142815381EA01C20FD31F2981E6
:100F40002F3F09F440C03CC0A90165817681680F3C
:100F5000791F9A0121503109EB01C20FD31FC881BB
:100F6000DB01A40FB51FCC932115310569F7C281B0
:100F7000D381C00FD11F2981C581D681C80FD91F48
:100F80002883C581D681C80FD91F2C852F5F2C8758
:100F900042815381DA01A00FB11F11962C9130E0EC
:100FA000B901660F771F260F371F220F331F220F3D
:100FB000331F8901EA01C20FD31F29812F3F19F086
:100FC0004E2D5F2DC2CFD3948181D81608F46ECFF9
:100FD000DF91CF911F910F91FF90EF90DF90CF9015
:100FE000BF909F908F900895FC0181818823C9F064
:100FF00040E05FEF242F30E0220F331FD901AA0F0A
:10100000BB1FAA0FBB1FAA0FBB1FA21BB30B85815F
:101010009681A80FB91F1D965C934F5F8181481779
:1010200048F30895FF920F931F93CF93DF93EC0142
:10103000F62E862F90E08C01000F111F800F911F5C
:101040008C01000F111F000F111FEA81FB81E00FBF
:10105000F11F0680F781E02D309709F00995EA81AC
:10106000FB81E00FF11F0084F185E02D309709F03E
:101070000995FC828A819B81FC01E00FF11FF280BF
:101080008FEFF81661F18F2D992787FD90958C01D0
:10109000000F111F800F911F8C01000F111F000FF7
:1010A000111FEA81FB81E00FF11F0680F781E02D1F
:1010B000309709F00995EA81FB81E00FF11F008468
:1010C000F185E02D309709F00995FC828A819B819A
:1010D000FC01E00FF11FF2808FEFF812D4CFDF9107
:1010E000CF911F910F91FF9008951F93CF93DF939E
:1010F000EC01122F49837B836A8350E0440F551F14
:10110000CA01880F991F880F991F880F991F841B88
:10111000950B0E94B40C9E838D83CE010E943E07E6
:10112000CE010E94F407612FCE010E9412088FEFBA
:101130008B8BDF91CF911F91089550E0440F551F85
:10114000DA01AA0FBB1FAA0FBB1FAA0FBB1FA41B4C
:10115000B50BFC0185819681A80FB91F1C969C9147
:101160001C97915072F080E031E0FD01E90FF11D14
:1011700097FDFA952081261301C0832F9150AAF77D
:10118000089580E00895EF92FF920F931F93CF93FD
:10119000DF93EC018FEF8B8BFE0137968CE0DF0144
:1011A0001D928A95E9F70C810F3F79F1FF24F394A2
:1011B000E12C8B898F5F8B8BFE01E80FF11D87FD82
:1011C000FA950783112707FD1095C801880F991F0D
:1011D000080F191F000F111F000F111FEA81FB815B
:1011E000E00FF11F0480F581E02D09959F2D8034DB
:1011F00009F09E2D2A813B81F901E00FF11F018149
:101200000F3F21F09923A9F201C090E0892FDF91CF
:10121000CF911F910F91FF90EF9008958F929F9221
:10122000AF92BF92CF92DF92EF92FF920F931F93F4
:10123000CF93DF93EC01962E6A018B8988230CF4FF
:1012400054C05E0187E0A80EB11C00E010E0F5017B
:1012500081905F01882D90E07C01EE0CFF1C8E0DCB
:101260009F1D7C01EE0CFF1CEE0CFF1CEA81FB8134
:10127000EE0DFF1D0284F385E02D309709F00995EE
:10128000F60180822A813B81F901EE0DFF1D8181EB
:10129000992787FD9095AC01440F551F480F591FA2
:1012A000440F551F440F551FF901E40FF51F23810B
:1012B000222381F0880F991FFC01EE0FFF1FEE0F14
:1012C000FF1FEE0FFF1FE81BF90B8D819E81E80FBA
:1012D000F91F85860F5F1F4F8B89992787FD909592
:1012E000801791070CF0B3CF02C088248A94882D10
:1012F00090E0FC01EE0FFF1F8E0F9F1F880F991FBC
:10130000880F991FEA81FB81E80FF91FF1804FC018
:101310008F2D90E08C01000F111F800F911F8C0109
:10132000000F111F000F111FEA81FB81E00FF11F59
:101330000284F385E02D309709F00995F601F082DB
:101340008A819B81FC01E00FF11FF1802F2D30E09D
:10135000F901EE0FFF1F2E0F3F1FF901EE0FFF1FC8
:10136000EE0FFF1FE80FF91F2181332727FD30956E
:10137000A901440F551F420F531F440F551F440F1F
:10138000551FFC01E40FF51F8381882381F0220F94
:10139000331FF901EE0FFF1FEE0FFF1FEE0FFF1FB0
:1013A000E21BF30B8D819E81E80FF91FF586EF2C70
:1013B000492D6F2DCE010E949D08882309F4A8CFE6
:1013C000F9103FC08F2D90E08C01000F111F800F8E
:1013D000911F8C01000F111F000F111FEA81FB816B
:1013E000E00FF11F0284F385E02D309709F0099595
:1013F000F8822A813B81F901E00FF11F8181992751
:1014000087FD9095AC01440F551F480F591F440F9D
:10141000551F440F551FF901E40FF51F23812223A7
:1014200081F0880F991FFC01EE0FFF1FEE0FFF1FC9
:10143000EE0FFF1FE81BF90B8D819E81E80FF91F4E
:10144000E586DF91CF911F910F91FF90EF90DF9094
:10145000CF90BF90AF909F908F900895EF92FF92A2
:101460000F931F93CF93DF93EC01E62E862F90E02E
:10147000880F991F8C01000F111F000F111F000F03
:10148000111F081B190BF42EED81FE81E00FF11FD7
:10149000EF0DF11D8081992787FD9095FC01EE0FDE
:1014A000FF1F8E0F9F1F880F991F880F991FEA81BA
:1014B000FB81E80FF91F0084F185E02D309709F0DA
:1014C0000995F3942F2D30E0ED81FE81E00FF11F9F
:1014D0008485992787FD9095019782179307A4F635
:1014E0001E2D18C0182F01C0182F212F30E0F90130
:1014F000EE0FFF1F2E0F3F1F220F331F220F331F30
:10150000EA81FB81E20FF31F0084F185E02D309723
:1015100009F00995412F50E09A01220F331FF9017C
:10152000EE0FFF1FEE0FFF1FEE0FFF1FE21BF30B6F
:101530002D813E81E20FF31F85858F3F99F6FA01D9
:10154000EE0FFF1F4E0F5F1F440F551F440F551F17
:10155000EA81FB81E40FF51F82818F3F29F6812FFD
:10156000DF91CF911F910F91FF90EF900895FF921F
:101570000F931F93CF93DF93EC01162F042F462F69
:10158000602F0E949D08882379F1812F90E0880FB9
:10159000991FFC01EE0FFF1FEE0FFF1FEE0FFF1F45
:1015A000E81BF90B8D819E81E80FF91F54851516F4
:1015B0000CF07FC0602F70E08081992787FD9095A7
:1015C0008617970709F477C0319640E008C021914B
:1015D000332727FD30952617370709F473C04F5F6F
:1015E0004513F5CF4FEF6EC02D813E81812F90E0E6
:1015F000880F991FDC01AA0FBB1FAA0FBB1FAA0FE0
:10160000BB1FA81BB90BA20FB31F1C96FC901C9705
:10161000888190E0880F991FFC01EE0FFF1FEE0FED
:10162000FF1FEE0FFF1FE81BF90BE20FF31F84856E
:101630008F1594F4802F90E0880F991FFC01EE0F16
:10164000FF1FEE0FFF1FEE0FFF1FE81BF90BE20F4E
:10165000F31FF484FA9401C0FA94FF2074F1602F10
:1016600070E0660F771FCB01880F991F880F991FB5
:10167000880F991F861B970B820F931FFC013081E7
:101680002C9132131CC040E00FC0252F332727FDBB
:101690003095FC01E20FF31F2A0F3B1F4081F90137
:1016A000208142130EC0452F51E0540FF5166CF700
:1016B00009C04FEF07C040E005C04FEF03C040E056
:1016C00001C0452F612FCE010E942E0A8C83DF912D
:1016D000CF911F910F91FF9008955058BB27AA27D3
:1016E0000ED0E0C0D1D030F0D6D020F031F49F3F02
:1016F00011F41EF4C6C00EF4E095E7FBBCC0E92F60
:10170000E2D080F3BA17620773078407950718F0D1
:1017100071F49EF5FAC00EF4E0950B2EBA2FA02DB1
:101720000B01B90190010C01CA01A0011124FF278E
:10173000591B99F0593F50F4503E68F11A16F04089
:10174000A22F232F342F4427585FF3CF4695379588
:101750002795A795F0405395C9F77EF41F16BA0B4D
:10176000620B730B840BBAF09150A1F0FF0FBB1FFB
:10177000661F771F881FC2F70EC0BA0F621F731F44
:10178000841F48F4879577956795B795F7959E3FA1
:1017900008F0B3CF9395880F08F09927EE0F97952F
:1017A0008795089598D088F09F5790F0B92F992782
:1017B000B751A0F0D1F0660F771F881F991F1AF05C
:1017C000BA95C9F712C0B13081F09FD0B1E0089549
:1017D0009CC0672F782F8827B85F39F0B93FCCF3CA
:1017E000869577956795B395D9F73EF49095809552
:1017F000709561957F4F8F4F9F4F0895E89409C072
:1018000097FB3EF490958095709561957F4F8F4F33
:101810009F4F9923A9F0F92F96E9BB279395F69549
:10182000879577956795B795F111F8CFFAF4BB0FC7
:1018300011F460FF1BC06F5F7F4F8F4F9F4F16C02B
:10184000882311F096E911C0772321F09EE8872FB5
:10185000762F05C0662371F096E8862F70E060E071
:101860002AF09A95660F771F881FDAF7880F9695EA
:10187000879597F9089597F99F6780E870E060E091
:1018800008959FEF80EC089500240A941616170619
:1018900018060906089500240A9412161306140661
:1018A00005060895092E0394000C11F4882352F0C4
:1018B000BB0F40F4BF2B11F460FF04C06F5F7F4F7C
:1018C0008F4F9F4F089557FD9058440F551F59F063
:1018D0005F3F71F04795880F97FB991F61F09F3F1D
:1018E00079F087950895121613061406551FF2CF46
:1018F0004695F1DF08C0161617061806991FF1CF96
:1019000086957105610508940895E894BB276627BC
:101910007727CB0197F9089597FB072E16F40094CB
:1019200007D077FD09D00E94A00C07FC05D03EF43B
:10193000909581959F4F0895709561957F4F08957B
:10194000AA1BBB1B51E107C0AA1FBB1FA617B707E5
:1019500010F0A61BB70B881F991F5A95A9F7809501
:101960009095BC01CD010895CF93DF93823091050E
:1019700010F482E090E0E0912107F091220720E04E
:1019800030E0A0E0B0E0309739F140815181481754
:101990005907B8F04817590771F48281938110975D
:1019A00029F013969C938E9312972CC09093220744
:1019B0008093210727C02115310531F042175307C5
:1019C00018F0A901DB0101C0EF019A01BD01DF019F
:1019D0000280F381E02DD7CF21153105F9F0281BC6
:1019E000390B2430310580F48A819B8161157105A2
:1019F00021F0FB019383828304C09093220780939C
:101A00002107FE01329644C0FE01E20FF31F8193CD
:101A1000919322503109398328833AC020911F07BE
:101A200030912007232B41F42091020130910301D2
:101A30003093200720931F0720910001309101016E
:101A40002115310541F42DB73EB740910401509165
:101A50000501241B350BE0911F07F0912007E217C9
:101A6000F307A0F42E1B3F0B2817390778F0AC01C1
:101A70004E5F5F4F2417350748F04E0F5F1F50939E
:101A8000200740931F078193919302C0E0E0F0E0AC
:101A9000CF01DF91CF910895CF93DF93009709F4A1
:101AA00087C0FC01329713821282C0912107D09126
:101AB0002207209781F420813181280F391F8091DE
:101AC0001F07909120078217930779F5F09320075D
:101AD000E0931F076DC0DE0120E030E0AE17BF07C6
:101AE00050F412964D915C9113979D01411551054B
:101AF00009F1DA01F3CFB383A28340815181840FCE
:101B0000951F8A179B0771F48D919C911197840FF3
:101B1000951F02969183808312968D919C911397C5
:101B2000938382832115310529F4F0932207E093F2
:101B300021073EC0D9011396FC93EE9312974D9165
:101B40005D91A40FB51FEA17FB0779F4808191819D
:101B5000840F951F0296D90111969C938E938281D2
:101B6000938113969C938E931297E0E0F0E08A8124
:101B70009B81009719F0FE01EC01F9CFCE0102968E
:101B800028813981820F931F20911F0730912007F0
:101B90002817390769F4309729F410922207109218
:101BA000210702C013821282D0932007C0931F071F
:101BB000DF91CF910895A0E0B0E0E1EEFDE00C945C
:101BC000A410FE01359661917191AF0180912507B6
:101BD000909126070E941C0EE2E00C94C0100F9317
:101BE0001F93CF93DF93E0912507F0912607238180
:101BF00021FF1BC0EC0100E010E0899160912507F6
:101C000070912607DB011896ED91FC9119978823B6
:101C100031F00995892B89F30FEF1FEFEECF8AE0A2
:101C20000995892B11F4C80102C08FEF9FEFDF9156
:101C3000CF911F910F910895ACE0B0E0E2E2FEE099
:101C40000C9494107C016B018A01FC0117821682AE
:101C5000838181FFBDC1CE0101964C01F7019381C3
:101C6000F60193FD859193FF81916F01882309F41B
:101C7000ABC1853239F493FD859193FF81916F015A
:101C8000853229F4B70190E00E940410E7CF512C6F
:101C9000312C20E02032A0F48B3269F030F4803215
:101CA00059F0833269F420612CC08D3239F08033D1
:101CB00039F4216026C02260246023C0286021C03E
:101CC00027FD27C030ED380F3A3078F426FF06C0E4
:101CD000FAE05F9E300D1124532E13C08AE0389E27
:101CE000300D1124332E20620CC08E3221F426FDDB
:101CF0006BC1206406C08C3611F4206802C088369F
:101D000041F4F60193FD859193FF81916F0181115B
:101D1000C1CF982F9F7D9554933028F40C5F1F4FAF
:101D2000FFE3F9830DC0833631F0833771F08335DB
:101D300009F05BC022C0F801808189830E5F1F4FCC
:101D400044244394512C540115C03801F2E06F0E25
:101D5000711CF801A080B18026FF03C0652D70E0E2
:101D600002C06FEF7FEFC5012C870E94F90F2C0195
:101D700083012C852F77222E17C03801F2E06F0ED9
:101D8000711CF801A080B18026FF03C0652D70E0B2
:101D900002C06FEF7FEFC5012C870E94EE0F2C0170
:101DA0002C852068222E830123FC1BC0832D90E00C
:101DB00048165906B0F4B70180E290E00E94041082
:101DC0003A94F4CFF50127FC859127FE81915F01BC
:101DD000B70190E00E94041031103A94F1E04F1ADC
:101DE00051084114510471F7E5C0843611F0893669
:101DF00039F5F80127FF07C06081718182819381E5
:101E00000C5F1F4F08C060817181882777FD809526
:101E1000982F0E5F1F4F2F76B22E97FF09C0909517
:101E20008095709561957F4F8F4F9F4F2068B22EA0
:101E30002AE030E0A4010E943610A82EA81844C061
:101E4000853729F42F7EB22E2AE030E025C0F22F0C
:101E5000F97FBF2E8F36C1F018F4883579F0B4C001
:101E6000803719F0883721F0AFC02F2F2061B22EB4
:101E7000B4FE0DC08B2D8460B82E09C024FF0AC0AB
:101E80009F2F9660B92E06C028E030E005C020E103
:101E900030E002C020E132E0F801B7FE07C0608107
:101EA0007181828193810C5F1F4F06C060817181B7
:101EB00080E090E00E5F1F4FA4010E943610A82E14
:101EC000A818FB2DFF77BF2EB6FE0BC02B2D2E7F43
:101ED000A51450F4B4FE0AC0B2FC08C02B2D2E7E0F
:101EE00005C07A2C2B2D03C07A2C01C0752C24FF41
:101EF0000DC0FE01EA0DF11D8081803311F4297EB1
:101F000009C022FF06C07394739404C0822F8678A0
:101F100009F0739423FD13C020FF06C05A2C7314DC
:101F200018F4530C5718732C731468F4B70180E23B
:101F300090E02C870E94041073942C85F5CF7314C5
:101F400010F4371801C0312C24FF12C0B70180E310
:101F500090E02C870E9404102C8522FF17C021FFDF
:101F600003C088E590E002C088E790E0B7010CC0AC
:101F7000822F867859F021FD02C080E201C08BE2F9
:101F800027FD8DE2B70190E00E940410A51438F4FB
:101F9000B70180E390E00E9404105A94F7CFAA940E
:101FA000F401EA0DF11D8081B70190E00E94041058
:101FB000A110F5CF332009F451CEB70180E290E0B3
:101FC0000E9404103A94F6CFF7018681978102C0EF
:101FD0008FEF9FEF2C96E2E10C94B010FC0105907E
:101FE000615070400110D8F7809590958E0F9F1F1B
:101FF0000895FC016150704001900110D8F7809560
:1020000090958E0F9F1F08950F931F93CF93DF938B
:10201000182F092FEB018B8181FD03C08FEF9FEFFC
:1020200020C082FF10C04E815F812C813D8142170C
:1020300053077CF4E881F9819F012F5F3F4F39837B
:102040002883108306C0E885F985812F0995892B9F
:1020500029F72E813F812F5F3F4F3F832E83812FB2
:10206000902FDF91CF911F910F910895FA01AA2728
:10207000283051F1203181F1E8946F936E7F6E5FCB
:102080007F4F8F4F9F4FAF4FB1E03ED0B4E03CD079
:10209000670F781F891F9A1FA11D680F791F8A1F5C
:1020A000911DA11D6A0F711D811D911DA11D20D0C3
:1020B00009F468943F912AE0269F11243019305D7D
:1020C0003193DEF6CF010895462F4770405D41936E
:1020D000B3E00FD0C9F7F6CF462F4F70405D4A33BB
:1020E00018F0495D31FD4052419302D0A9F7EACF83
:1020F000B4E0A6959795879577956795BA95C9F7B2
:1021000000976105710508959B01AC010A2E0694A4
:102110005795479537952795BA95C9F7620F731F5D
:10212000841F951FA01D08952F923F924F925F929A
:102130006F927F928F929F92AF92BF92CF92DF92D7
:10214000EF92FF920F931F93CF93DF93CDB7DEB73C
:10215000CA1BDB0B0FB6F894DEBF0FBECDBF0994D0
:102160002A88398848885F846E847D848C849B8427
:10217000AA84B984C884DF80EE80FD800C811B8135
:10218000AA81B981CE0FD11D0FB6F894DEBF0FBE64
:0A219000CDBFED010895F894FFCFD4
:10219A0000002907200000000002000000005D0086
:1021AA000000000000FF01000E0100000000000016
:1021BA00010002001D010000000000000201FF00F2
:1021CA0045010000300243020301FF0060020000E3
:1021DA0054021101040105009B02000095029802B5
:1021EA000504FF00D40200001201130106040700CF
:1021FA0026030000850350020706FF006C01000059
:10220A0039024A020806FF00930100003E024D020D
:10221A000906FF00BA010000140115010A04FF00B3
:10222A00E10100008B0392030B04FF000802000087
:10223A00160117010C00FF001A010000180119010C
:10224A000A5354415254555000656E747279207382
:10225A00746172747570207374617465006578694D
:10226A00742061736B2063616C696200656E7472BD
:10227A007920655374617465547269616352756E2D
:10228A006E696E6700656570726F6D2073746F7228
:10229A0065642025582C2062757420636865636B19
:1022AA002072657475726E65642025580A0072651D
:1022BA0072656164206F6B2072657475726E6564F5
:0822CA002025580A00408000A5
:00000001FF
