:100000000C943E000C942B0D0C945B000C945B0044
:100010000C9444010C945B000C945B000C945B000A
:100020000C945B000C94AC0C0C945B000C945B0087
:100030000C945B000C94C20D0C945B000C945B0060
:100040000C94B00D0C945B000C945B000C945B0062
:100050000C945B000C945B000C945B000C945B00B4
:100060000C94FA0C0C945B000C945B000C945B00F9
:100070000C945B000C945B000C945B0011241FBE7D
:10008000CFEFD0E1DEBFCDBF14E0A0E0B1E0E4E10E
:10009000FDE302C005900D92A63DB107D9F729E016
:1000A000A6EDB4E001C01D92A23DB207E1F70E94A7
:1000B00052020C94881E0C940000CF93DF93CDB7AE
:1000C000DEB781E290E021E230E0F90120812E707C
:1000D000FC01208382E290E020E7FC01208388E697
:1000E00090E028E630E0F90120812160FC012083C6
:1000F0008BE690E02BE630E0F9012081206FFC01D7
:10010000208381E290E021E230E0F90120812E603D
:10011000FC0120838AE290E02AE230E0F9012081AC
:100120002068FC0120838BE290E02BE230E0F901B3
:1001300020812F77FC01208380E290E0FC01808108
:100140008093E004DF91CF910895CF93DF9300D0A7
:1001500000D000D0CDB7DEB76B837C838D834E8318
:100160008B819C819A8389838E818823C1F48981C4
:100170009A81FC018081482F8D81282F332727FD0C
:10018000309581E090E002C0880F991F2A95E2F730
:10019000842B282F89819A81FC01208318C08981B2
:1001A0009A81FC018081482F8D81282F332727FDDC
:1001B000309581E090E002C0880F991F2A95E2F700
:1001C00080958423282F89819A81FC01208326969B
:1001D0000FB6F894DEBF0FBECDBFDF91CF9108956B
:1001E000CF93DF931F92CDB7DEB78983809109014A
:1001F00090910A01A0910B014981BC018A2F0E94B4
:10020000A5000F90DF91CF910895CF93DF931F92B8
:10021000CDB7DEB7898380910C0190910D01A0913B
:100220000E014981BC018A2F0E94A5000F90DF9129
:10023000CF910895CF93DF931F92CDB7DEB7898317
:1002400080910F0190911001A09111014981BC0191
:100250008A2F0E94A5000F90DF91CF910895CF9330
:10026000DF931F92CDB7DEB789838091060190910D
:100270000701A09108014981BC018A2F0E94A500B5
:100280000F90DF91CF9108951F920F9200905F0021
:100290000F9211242F933F938F939F93EF93FF938C
:1002A000CF93DF93CDB7DEB7F8948091E004282F89
:1002B00030E080E290E0FC018081882F90E082278E
:1002C000932780719927009781F080E290E0FC01EC
:1002D0008081882F90E080719927009719F0109203
:1002E000DB0403C081E08093DB048091E004282FCD
:1002F00030E080E290E0FC018081882F90E082274E
:10030000932780729927009789F080E290E0FC01A2
:100310008081882F90E080729927009721F081E0FA
:100320008093990903C081E08093D6048091E00412
:10033000282F30E080E290E0FC018081882F90E05F
:100340008227932780749927009789F080E290E0B4
:10035000FC018081882F90E080749927009721F01C
:1003600081E08093E10403C081E08093D90480910F
:10037000E004282F30E080E290E0FC018081882FAB
:1003800090E08227932780789927009769F080E290
:1003900090E0FC018081882324F481E08093E204D2
:1003A00003C081E080939C0980E290E0FC018081A1
:1003B0008093E0047894DF91CF91FF91EF919F912A
:1003C0008F913F912F910F9000925F000F901F909F
:1003D0001895CF93DF93CDB7DEB780E290E0FC01B4
:1003E000808188233CF481E08093E20488EC91E0F2
:1003F0000E94AC1BDF91CF910895CF93DF9300D083
:10040000CDB7DEB79A83898385EC90E029813A8164
:10041000232F3327FC01208384EC90E02981FC0109
:10042000208380EC90E020EC30E0F90120812C7FEB
:10043000FC01208381EC90E028E1FC01208382EC28
:1004400090E026E0FC0120830F900F90DF91CF9188
:100450000895CF93DF9300D01F92CDB7DEB7898385
:100460007B836A83000080EC90E0FC018081882F10
:1004700090E0807299270097B1F389818A3029F43E
:1004800062E171E08DE00E94290286EC90E0298112
:10049000FC01208380E090E00F900F900F90DF919F
:1004A000CF910895CF93DF93CDB7DEB728970FB6DE
:1004B000F894DEBF0FBECDBF85E090E00E94FD0145
:1004C00082E191E09093CF098093CE098FEE91E085
:1004D0000E94AC1B0E94B5080E945D000E940E0E97
:1004E0000E94B7078091E504882359F08CE090E0E2
:1004F0009A838983CE010196BC0186EA99E00E9425
:10050000CC078091A209882369F01092A2098BE0A0
:1005100090E09A838983CE010196BC0186EA99E036
:100520000E94CC0780919B09882369F010929B0957
:1005300083E090E09A838983CE010196BC0186EA2C
:1005400099E00E94CC078091D804882369F010922A
:10055000D80481E090E09A838983CE010196BC01A2
:1005600086EA99E00E94CC078091DF04882359F045
:100570001092DF041A821982CE010196BC0186EA2C
:1005800099E00E94CC078091DC04882369F01092E6
:10059000DC0482E090E09A838983CE010196BC015D
:1005A00086EA99E00E94CC078091E204882369F0F2
:1005B0001092E20484E090E09A838983CE01019650
:1005C000BC0186EA99E00E94CC0780919C098823AF
:1005D00069F010929C0985E090E09A838983CE01AE
:1005E0000196BC0186EA99E00E94CC078091D6046E
:1005F000882369F01092D60486E090E09A8389837C
:10060000CE010196BC0186EA99E00E94CC07809158
:100610009909882369F01092990987E090E09A83FC
:100620008983CE010196BC0186EA99E00E94CC073D
:100630008091D904882369F01092D90488E090E071
:100640009A838983CE010196BC0186EA99E00E94D3
:10065000CC078091E104882369F01092E10489E0DD
:1006600090E09A838983CE010196BC0186EA99E0E5
:100670000E94CC078091DB04882371F01092DB0488
:100680008AE090E09A838983CE010196BC0186EAD4
:1006900099E00E94CC0726CF25CFCF93DF93CDB72B
:1006A000DEB78091D304DF91CF910895CF93DF938C
:1006B00000D01F92CDB7DEB78091D304898380919B
:1006C000BA099091BB09FC01808191818C30910520
:1006D000C9F48DE08A8380919F099091A0099E01C1
:1006E0002D5F3F4FA9016DE00E94B4132B818091D3
:1006F0009F099091A009422F6A810E944017809122
:10070000D404898389810F900F900F90DF91CF914E
:100710000895CF93DF93CDB7DEB788EF91E00E94C5
:10072000AC1B83E090E00E946A0FDF91CF910895A7
:10073000CF93DF93CDB7DEB78CE092E00E94AC1B85
:100740000E948C0FDF91CF910895CF93DF9300D05B
:100750001F92CDB7DEB78091D30489838091BA0907
:100760009091BB09FC01808191810097C9F483E0DD
:100770008A8380919F099091A0099E012D5F3F4F30
:10078000A90163E00E94B4132B8180919F0990918D
:10079000A009422F6A810E9440178091D404898366
:1007A00089810F900F900F90DF91CF910895CF9393
:1007B000DF93CDB7DEB789E192E00E94AC1B0E94C7
:1007C000920981E00E94FF090E94110F0E94E90135
:1007D000DF91CF910895CF93DF93CDB7DEB782E35A
:1007E00092E00E94AC1B0E94290FDF91CF910895E7
:1007F000CF93DF9300D01F92CDB7DEB78091D304A3
:1008000089838091BA099091BB09FC018081918113
:100810008230910529F40E94AB098091D404898328
:100820008091BA099091BB09FC018081918184304B
:100830009105C9F485E08A8380919F099091A00970
:100840009E012D5F3F4FA90165E00E94B4132B81EB
:1008500080919F099091A009422F6A810E944017C0
:100860008091D404898389810F900F900F90DF913C
:10087000CF910895CF93DF93CDB7DEB789E492E0AF
:100880000E94AC1B80E00E942F010E94D30E0E94A8
:10089000110FDF91CF910895CF93DF93CDB7DEB7DE
:1008A0008AE592E00E94AC1B81E00E942F010E9429
:1008B000500F0E94290FDF91CF910895CF93DF93BE
:1008C00000D01F92CDB7DEB78091D3048983809189
:1008D000BA099091BB09FC01808191818530910515
:1008E000C9F483E08A8380919F099091A0099E01B9
:1008F0002D5F3F4FA90163E00E94B4132B818091CB
:100900009F099091A009422F6A810E94401780910F
:10091000D404898389810F900F900F90DF91CF913C
:100920000895CF93DF93CDB7DEB78AE692E00E94B9
:10093000AC1BDF91CF910895CF93DF93CDB7DEB796
:100940008EE792E00E94AC1BDF91CF910895CF9388
:10095000DF9300D000D01F92CDB7DEB78091D304D3
:1009600089838091BA099091BB09FC0180819181B2
:100970008330910529F40E940C0A8091D404898364
:100980008091BA099091BB09FC01808191818630E8
:100990009105C9F486E08A8380919F099091A0090E
:1009A0009E012C5F3F4FA90166E00E94B4132C8189
:1009B00080919F099091A009422F6A810E9440175F
:1009C0008091D40489838091BA099091BB09FC017C
:1009D0008081918188309105C9F48CE08B8380916E
:1009E0009F099091A0099E012B5F3F4FA9016CE0E8
:1009F0000E94B4132D8180919F099091A009422FEC
:100A00006B810E9440178091D404898389810F9063
:100A10000F900F900F900F90DF91CF910895CF938B
:100A2000DF93CDB7DEB781E992E00E94AC1B0E9454
:100A3000740B80E00E94FF090E94920980E00E94EE
:100A4000F000DF91CF910895CF93DF93CDB7DEB75C
:100A50008EE992E00E94AC1B0E946B0A81E00E942A
:100A6000FF0981E00E94F0000E949C0FDF91CF916E
:100A70000895CF93DF9300D01F92CDB7DEB780915A
:100A8000D30489838091BA099091BB09FC018081CC
:100A9000918187309105C9F485E08A8380919F090F
:100AA0009091A0099E012D5F3F4FA90165E00E9432
:100AB000B4132B8180919F099091A009422F6A81E4
:100AC0000E9440178091D404898389810F900F90F0
:100AD0000F90DF91CF910895CF93DF93CDB7DEB71D
:100AE0008AEA92E00E94AC1BDF91CF910895CF93E8
:100AF000DF93CDB7DEB78DEB92E00E94AC1BDF91A8
:100B0000CF910895CF93DF9300D01F92CDB7DEB77A
:100B10008091D30489838091BA099091BB09FC012B
:100B2000808191818330910529F40E940C0A809183
:100B3000D40489838091BA099091BB09FC0180811A
:100B400091818230910529F40E94AB098091D404EF
:100B500089838091BA099091BB09FC0180819181C0
:100B60008B309105C9F48BE08A8380919F09909125
:100B7000A0099E012D5F3F4FA9016BE00E94B413B5
:100B80002B8180919F099091A009422F6A810E9438
:100B900040178091D404898389810F900F900F9022
:100BA000DF91CF910895CF93DF93CDB7DEB78FEC70
:100BB00092E00E94AC1B88E290E00E946A0FDF91F5
:100BC000CF910895CF93DF93CDB7DEB78FED92E04D
:100BD0000E94AC1B0E948C0FDF91CF910895CF93A0
:100BE000DF9300D01F92CDB7DEB78091D304898305
:100BF0008091BA099091BB09FC0180819181009795
:100C0000C9F489E08A8380919F099091A0099E018F
:100C10002D5F3F4FA90169E00E94B4132B818091A1
:100C20009F099091A009422F6A810E9440178091EC
:100C3000D404898389810F900F900F90DF91CF9119
:100C40000895CF93DF93CDB7DEB78EEE92E00E948A
:100C5000AC1B8AE090E00E946A0FDF91CF9108956B
:100C6000CF93DF93CDB7DEB78FEF92E00E94AC1B3E
:100C70000E948C0F0E949C0FDF91CF910895CF931B
:100C8000DF9300D01F92CDB7DEB78091D304898364
:100C90008091BA099091BB09FC01808191810097F4
:100CA000C9F48AE08A8380919F099091A0099E01EE
:100CB0002D5F3F4FA9016AE00E94B4132B81809100
:100CC0009F099091A009422F6A810E94401780914C
:100CD000D40489838091BA099091BB09FC01808179
:100CE00091818230910549F480919809823018F4FD
:100CF0000E94AC0F02C00E949C0F89810F900F9040
:100D00000F90DF91CF910895CF93DF93CDB7DEB7EA
:100D10008FE093E00E94AC1BDF91CF910895CF93B9
:100D2000DF93CDB7DEB785E293E00E94AC1BDF9185
:100D3000CF910895CF93DF931F92CDB7DEB7809107
:100D4000D30489838091BA099091BB09FC01808109
:100D500091818230910549F480919809863018F488
:100D60000E94AC0F02C00E949C0F89810F90DF91FE
:100D7000CF910895CF93DF93CDB7DEB78AE393E0A9
:100D80000E94AC1B8FE090E00E946A0F0E94AC0FA3
:100D9000DF91CF910895CF93DF93CDB7DEB78BE48A
:100DA00093E00E94AC1B0E948C0F0E949C0FDF916D
:100DB000CF910895CF93DF9300D01F92CDB7DEB7C8
:100DC0008091D30489838091BA099091BB09FC0179
:100DD000808191810097C9F485E08A8380919F0981
:100DE0009091A0099E012D5F3F4FA90165E00E94EF
:100DF000B4132B8180919F099091A009422F6A81A1
:100E00000E9440178091D404898389810F900F90AC
:100E10000F90DF91CF910895CF93DF93CDB7DEB7D9
:100E20008BE593E00E94AC1B0E94920981E00E9436
:100E3000FF0980E00E940501DF91CF910895CF93D3
:100E4000DF93CDB7DEB789E693E00E94AC1B81E06B
:100E50000E940501DF91CF910895CF93DF9300D0D9
:100E60001F92CDB7DEB78091D30489838091BA09F0
:100E70009091BB09FC018081918189309105C9F471
:100E800085E08A8380919F099091A0099E012D5F42
:100E90003F4FA90165E00E94B4132B8180919F0907
:100EA0009091A009422F6A810E9440178091D4043A
:100EB00089838091BA099091BB09FC01808191815D
:100EC0008230910529F40E94AB098091D404898372
:100ED0008091BA099091BB09FC01808191818A308F
:100EE0009105B9F486E793E00E94AC1B80E00E9474
:100EF0001A018091E3049091E4040E94CC0881E0FF
:100F00000E941A018CE893E00E94AC1B8091D404EB
:100F1000898389810F900F900F90DF91CF91089571
:100F2000CF93DF93CDB7DEB780EA93E00E94AC1B8E
:100F300081EB93E00E94AC1BDF91CF910895CF939A
:100F4000DF93CDB7DEB786EE93E00E94AC1BDF9156
:100F5000CF910895CF93DF931F92CDB7DEB78091E5
:100F6000D304898389810F90DF91CF910895CF9326
:100F7000DF93CDB7DEB786EA99E09093A00980931E
:100F80009F0920E04EE060E271E086EA99E00E946D
:100F90008512DF91CF910895CF93DF9300D000D0D9
:100FA000CDB7DEB79A8389837C836B838B819C81E9
:100FB0009093BB098093BA0989819A810E94311369
:100FC0000F900F900F900F90DF91CF910895CF93D6
:100FD000DF9300D01F92CDB7DEB79A8389836B83EE
:100FE00000008FE390E0FC018081882F90E0827008
:100FF00099270097B1F781E490E029813A81FC01BB
:101000003183208380E490E02B81FC012083F894DD
:10101000FA9AF99A78940F900F900F90DF91CF91F0
:101020000895CF93DF9300D0CDB7DEB79A8389833D
:1010300000008FE390E0FC018081882F90E08270B7
:1010400099270097B1F781E490E029813A81FC016A
:10105000318320838FE390E02FE330E0F90120819A
:101060002160FC01208380E490E0FC0180810F90EE
:101070000F90DF91CF910895CF93DF9300D000D0F0
:1010800000D0CDB7DEB79D838C836E8319828C81AF
:101090009D819B838A832E818A819B81622F0E94FE
:1010A000E7078A819B810E94110889839E8189813B
:1010B0009817D9F08981282F30E08E81882F90E011
:1010C000432F4F932F93292F2F938F9385EF93E0E7
:1010D000892F8F9385EF93E08F930E94981B0F9039
:1010E0000F900F900F900F900F9026960FB6F894D8
:1010F000DEBF0FBECDBFDF91CF910895CF93DF93B9
:1011000000D000D01F92CDB7DEB79D838C838C8139
:101110009D819A83898389819A810E9411088B839A
:101120008B810F900F900F900F900F90DF91CF91C8
:101130000895CF93DF9300D01F92CDB7DEB79B8386
:101140008A83198289818F5F898300008A819B81CC
:101150009C01215031093B832A830097B9F70F90F6
:101160000F900F90DF91CF910895CF93DF93CDB77C
:10117000DEB786EE94E09093E4048093E30410924B
:101180009A091092E5048091E3049091E4040E948E
:10119000FA08DF91CF910895CF93DF9300D000D06C
:1011A0001F92CDB7DEB79D838C831B821A82198272
:1011B00012C02C813D8189819A81820F931FFC018D
:1011C000208189819A81622F0E943C0889819A81BD
:1011D00001969A83898389819A81823BF4E09F07F3
:1011E00040F38B810F900F900F900F900F90DF9135
:1011F000CF910895CF93DF93CDB7DEB728970FB681
:10120000F894DEBF0FBECDBF98878F831B8282EB21
:1012100094E09D838C831A82198213C089819A81FC
:101220000E947E088E832F81388589819A81820F62
:10123000931F2E81FC01208389819A8101969A83D4
:10124000898329813A818C819D812817390730F360
:101250008B8128960FB6F894DEBF0FBECDBFDF910D
:10126000CF910895CF93DF9300D0CDB7DEB79A83A7
:1012700089832091E3043091E40480919D09909149
:101280009E090196880F991F820F931F29813A8129
:10129000FC01318320838091E3049091E404FC01FC
:1012A000208131812F5F3F4FFC0131832083898171
:1012B0009A810F900F90DF91CF910895CF93DF9394
:1012C00000D0CDB7DEB70E94980C9A8389838981BC
:1012D0009A810E94320989819A810F900F90DF9143
:1012E000CF910895CF93DF9300D0CDB7DEB7209193
:1012F000E3043091E40480919D0990919E09019648
:10130000880F991F820F931FFC01808191819A831E
:10131000898389819A810E946E0C0F900F90DF91D2
:10132000CF910895CF93DF93CDB7DEB786EE94E0EB
:101330009093E4048093E3041092A4091092A3090B
:101340001092A50910929E0910929D091092A2096F
:10135000DF91CF910895CF93DF93CDB7DEB7809122
:10136000A5098F5F8093A5098091A5098A3058F05F
:101370008091A3099091A40901969093A409809368
:10138000A3091092A5098091A1098130D1F420917F
:10139000E6043091E70480919D0990919E0982179F
:1013A000930718F00E94920909C080919D099091BD
:1013B0009E09019690939E0980939D090E9472094F
:1013C0001BC08091A1098823B9F480919D09909157
:1013D0009E09863222E0920760F40E945E098091A5
:1013E0009D0990919E09019690939E0980939D0975
:1013F00003C081E08093A209DF91CF910895CF933C
:10140000DF931F92CDB7DEB7898389818093A109CD
:101410000F90DF91CF910895CF93DF93CDB7DEB7D3
:1014200060970FB6F894DEBF0FBECDBF0E943C0F91
:101430009A83898389819A81AA2797FDA095BA2FDB
:10144000BC01CD010E947B19DC01CB018B839C8305
:10145000AD83BE8320E030E040E854E46B817C81C2
:101460008D819E810E94E018DC01CB018F839887DB
:10147000A987BA8720E030E04EE354E46F81788595
:1014800089859A850E94071ADC01CB018B879C878E
:10149000AD87BE8720E030E040E05FE36B857C8570
:1014A0008D859E850E947C18DC01CB01BC01CD019D
:1014B0000E944819DC01CB01988B8F878F85988912
:1014C0000E946E0C60960FB6F894DEBF0FBECDBFC3
:1014D000DF91CF910895CF93DF93CDB7DEB76697B5
:1014E0000FB6F894DEBF0FBECDBF8EE194E00E9430
:1014F000AC1B2091E3043091E40480919D0990910C
:101500009E0901970196880F991F820F931FFC0176
:10151000208131818091E3049091E404FC01828177
:101520009381A901481B590BCA019C838B838B8132
:101530009C81863091050CF4CEC08B819C81AA27BA
:1015400097FDA095BA2FBC01CD010E947B19DC014B
:10155000CB018D839E83AF83B88780E090E0A0EAC3
:10156000B1E489879A87AB87BC8729853A854B8503
:101570005C856D817E818F8198850E94E018DC01F9
:10158000CB018D879E87AF87B88B88898F938F8596
:101590008F938E858F938D858F938C858F938B857D
:1015A0008F938A858F9389858F9388858F938F8179
:1015B0008F938E818F938D818F9388E294E0892F12
:1015C0008F9388E294E08F930E94981B8DB79EB70B
:1015D0000E960FB6F894DEBF0FBECDBF1A821982E9
:1015E00067C02091E3043091E40480919D099091BB
:1015F0009E0901970196880F991F820F931FFC0186
:1016000080819181CC01A0E0B0E0BC01CD010E94BD
:101610007919DC01CB012D853E854F855889BC01A8
:10162000CD010E947C18DC01CB01898B9A8BAB8B9E
:10163000BC8B20E030E040E05FE369897A898B89E8
:101640009C890E947C18DC01CB01BC01CD010E9469
:101650004819DC01CB019E8B8D8B8E898F938D89F0
:101660008F938C898F938B898F938A898F938989A4
:101670008F938A818F9389818F938EE594E0892F50
:101680008F938EE594E08F930E94981B4DB75EB7C1
:10169000465F5F4F0FB6F894DEBF0FBECDBF8D899A
:1016A0009E890E94320989819A8101969A83898351
:1016B00089819A81843191050CF493CF8091E30460
:1016C0009091E404FC01828193819E8B8D8B8D89A6
:1016D0009E890E94320966960FB6F894DEBF0FBE4F
:1016E000CDBFDF91CF910895CF93DF93CDB7DEB714
:1016F0008091E3049091E40442EB54E060E070E0F8
:101700000E94911BDF91CF910895CF93DF9300D07A
:1017100000D01F92CDB7DEB79B838A837D836C8315
:1017200081EB90E0FC018081898381EB90E0FC01FA
:10173000108282EB90E0FC018081282F30E08A81CA
:101740009B8128173907C1F082EB90E02A81FC01C8
:10175000208382EB90E0FC018081882F90E09C0147
:101760002F5F3F4F8C819D812817390729F48C8189
:101770009D8101969D838C8383EB90E02C81FC01FD
:10178000208381EB90E02981FC0120830F900F9052
:101790000F900F900F90DF91CF910895CF93DF932B
:1017A000CDB7DEB78091C0099091C1098C3F9105FA
:1017B000E4F48091C0099091C109BC0180E090E0FF
:1017C0000E94850B2091C2093091C3098091C00904
:1017D0009091C109820F931F9093C3098093C2090E
:1017E0001092C1091092C0091AC08091C00990914D
:1017F000C1098C5F91099093C1098093C0096CEF76
:1018000070E080E090E00E94850B8091C209909189
:10181000C30984509F4F9093C3098093C209DF91FD
:10182000CF910895CF93DF93CDB7DEB787E390E0F4
:10183000FC01108280E790E022E0FC01208381EB34
:1018400090E025E0FC012083DF91CF910895CF93B4
:10185000DF93CDB7DEB781EB90E0FC01108280E72B
:1018600090E0FC01108287E390E022E0FC012083FD
:10187000DF91CF910895CF93DF9300D0CDB7DEB73E
:101880009A83898389819A811816190624F081E048
:1018900090E09A83898389819A819093C10980938A
:1018A000C0090E94CE0B0E94120C0F900F90DF9186
:1018B000CF910895CF93DF93CDB7DEB7F8948BE245
:1018C00090E02BE230E0F90120812F7EFC012083A3
:1018D0000E94270C7894DF91CF910895CF93DF93E6
:1018E00000D0CDB7DEB79A838983F89489819A8135
:1018F000883F22E0920780F489819A81009739F02D
:1019000089819A819093DE048093DD040BC010924C
:10191000DE041092DD0406C088EF92E09093DE04AE
:101920008093DD0478940F900F90DF91CF9108950C
:10193000CF93DF9300D0CDB7DEB7F8948091DD046C
:101940009091DE049A838983789489819A810F909B
:101950000F90DF91CF9108951F920F9200905F003A
:101960000F9211242F933F934F935F936F937F9325
:101970008F939F93AF93BF93EF93FF93CF93DF9397
:10198000CDB7DEB7F8948091C0099091C1091816BF
:101990001906CCF08BE290E02BE230E0F9012081D7
:1019A0002061FC01208380E090E00E9499088BE296
:1019B00090E02BE230E0F90120812F7EFC012083B2
:1019C0000E94270C02C00E94CE0B7894DF91CF9129
:1019D000FF91EF91BF91AF919F918F917F916F9107
:1019E0005F914F913F912F910F9000925F000F9068
:1019F0001F9018951F920F9200905F000F92112474
:101A00008F939F93EF93FF93CF93DF93CDB7DEB781
:101A100088E790E0FC01808191819093C5098093D3
:101A2000C4098091BC098F5F8093BC098091BC0977
:101A3000823028F01092BC0981E080939B09DF91ED
:101A4000CF91FF91EF919F918F910F9000925F0046
:101A50000F901F9018951F920F9200905F000F92A9
:101A600011242F933F934F935F936F937F938F93A3
:101A70009F93AF93BF93EF93FF93CF93DF93CDB734
:101A8000DEB7F89489E290E0FC018081882F90E035
:101A900084709927009719F40E945A0C4CC0109238
:101AA000C3091092C2098091DD049091DE041816DA
:101AB000190664F48091DD049091DE0428EF32E091
:101AC000A901481B590BCA010E943B0C8091BF0918
:101AD0008F5F8093BF099091BF098DEC989F812DF6
:101AE0001124869586958695880F282F220F220F20
:101AF000820F592F581B852F8823E9F481E08093AA
:101B0000DC048091BF09843610F01092BF098091E7
:101B100098098F5F80939809809198098A3010F016
:101B2000109298098091D704882329F08091D704D6
:101B300081508093D7047894DF91CF91FF91EF91FA
:101B4000BF91AF919F918F917F916F915F914F91D5
:101B50003F912F910F9000925F000F901F9018956A
:101B60001F920F9200905F000F921124CF93DF938A
:101B7000CDB7DEB7DF91CF910F9000925F000F904D
:101B80001F9018951F920F9200905F000F921124E2
:101B90002F933F934F935F936F937F938F939F9375
:101BA000AF93BF93EF93FF93CF93DF93CDB7DEB7A0
:101BB0008091BD099091BE0901979093BE098093D1
:101BC000BD098091C6099091C70901969093C709F4
:101BD0008093C6098091BD099091BE091816190617
:101BE00034F00E948C0F81E08093DF0403C081E019
:101BF0008093D804DF91CF91FF91EF91BF91AF9186
:101C00009F918F917F916F915F914F913F912F9114
:101C10000F9000925F000F901F901895CF93DF9365
:101C2000CDB7DEB785E894E00E94AC1BF8948EE750
:101C300090E021E0FC0120838AE290E02AE230E09B
:101C4000F90120812B7FFC0120838BE290E02BE2C5
:101C500030E0F90120812B7FFC0120838BE290E0B2
:101C60002BE230E0F90120812F7EFC0120838AE203
:101C700090E02AE230E0F90120812061FC0120831C
:101C80008BE290E02BE230E0F90120812F7EFC0115
:101C900020838BE290E02BE230E0F9012081277F66
:101CA000FC0120838AE290E02AE230E0F901208101
:101CB0002860FC0120838BE290E02BE230E0F90108
:101CC0002081277FFC01208389E690E021E0FC0150
:101CD00020838DE390E0FC0110821092D80480E80C
:101CE00090E0FC01108281E890E028E0FC01208374
:101CF00082E890E0FC01108288E890E020E33AE27C
:101D0000FC013183208384E890E0FC011182108281
:101D10008FE690E0FC01108284E490E022E0FC0178
:101D2000208387E490E02FEFFC01208386E490E09D
:101D3000FC01108285E490E0FC0110828EE690E0C8
:101D4000FC01108280EB90E022E0FC01208381EB1B
:101D500090E0FC01108286EB90E0FC01108283EBA6
:101D600090E02CEFFC01208382EB90E0FC011082DC
:101D700080E790E0FC0110828AE790E027E0FC0118
:101D8000208310929B091092BC091092C5091092F1
:101D9000C409109298091092DC041092D704789428
:101DA000DF91CF910895CF93DF93CDB7DEB785E96B
:101DB00094E00E94AC1BF8948AE790E027E0FC01D5
:101DC000208310929B091092BC098EE790E021E0DD
:101DD000FC0120838AE790E02FEAFC0120838BE757
:101DE00090E023E0FC0120838CE790E020E4FC01FC
:101DF000208387E490E02FEFFC01208384E490E0CF
:101E000022E0FC01208385E490E025E0FC012083B2
:101E10008EE690E022E0FC0120837894DF91CF9160
:101E20000895CF93DF93CDB7DEB71092BF09F89432
:101E30008CE390E0FC0110828DE390E021E0FC0156
:101E40002083789484EA94E00E94AC1BDF91CF91C8
:101E50000895CF93DF93CDB7DEB7F8948DE390E08C
:101E6000FC0110820E945A0C789485EB94E00E9449
:101E7000AC1BDF91CF910895CF93DF9300D0CDB706
:101E8000DEB7F8948091C4099091C5099A8389833B
:101E9000789489819A810F900F90DF91CF91089566
:101EA000CF93DF93CDB7DEB786EC94E00E94AC1BF6
:101EB000F8948AE790E027E0FC01208385E490E035
:101EC000FC0110828EE690E0FC0110827894DF9194
:101ED000CF910895CF93DF9300D0CDB7DEB79A832B
:101EE00089831092DF0489819A819093BE0980933F
:101EF000BD091092C7091092C6098FE690E022E052
:101F0000FC01208381E890E02DE0FC0120830F900C
:101F10000F90DF91CF910895CF93DF93CDB7DEB7C8
:101F200081E890E028E0FC0120838FE690E0FC014E
:101F30001082DF91CF910895CF93DF93CDB7DEB7B5
:101F40008BE290E02BE230E0F9012081277FFC0159
:101F50002083DF91CF910895CF93DF93CDB7DEB784
:101F60008BE290E02BE230E0F90120812860FC0157
:101F70002083DF91CF910895CF93DF9300D000D0DD
:101F800000D0CDB7DEB79E838D83198264C18D8169
:101F90009E81FC01258136818981882F90E0880F00
:101FA000991FAC01440F551F440F551F440F551F77
:101FB000BA01681B790BCB01820F931FFC011486B9
:101FC0008BE090E09C838B8340C08D819E81FC01DF
:101FD000258136818981882F90E0880F991FAC0177
:101FE000440F551F440F551F440F551FBA01681B5E
:101FF000790BCB01280F391F8D819E81FC01458112
:1020000056818981882F90E0880F991FBC01660F47
:10201000771F660F771F660F771FFB01E81BF90B11
:10202000CF01480F591F8B819C810197840F951F09
:10203000FC0140818B819C81820F931FFC014083B6
:102040008B819C8101979C838B838B819C8118164B
:1020500019060CF4BACF8D819E81FC012581368151
:102060008981882F90E0880F991FAC01440F551F7C
:10207000440F551F440F551FBA01681B790BCB0144
:10208000820F931F2981FC0120838D819E81FC0199
:10209000258136818981882F90E0880F991FAC01B6
:1020A000440F551F440F551F440F551FBA01681B9D
:1020B000790BCB01820F931FFC0124852F5FFC015C
:1020C000248789818A83ACC08BE090E09C838B83DA
:1020D00040C08D819E81FC01258136818981882FB8
:1020E00090E0880F991FAC01440F551F440F551FF6
:1020F000440F551FBA01681B790BCB01280F391FFC
:102100008D819E81FC01458156818981882F90E0D7
:10211000880F991FBC01660F771F660F771F660F28
:10212000771FFB01E81BF90BCF01480F591F8B816B
:102130009C810197840F951FFC0140818B819C81BC
:10214000820F931FFC0140838B819C8101979C83AC
:102150008B838B819C81181619060CF4BACF8D8164
:102160009E81FC01258136818981882F90E0880F2E
:10217000991FAC01440F551F440F551F440F551FA5
:10218000BA01681B790BCB01A901480F591F8D813A
:102190009E81FC01628173818A81282F30E0C90110
:1021A000880F991F820F931F880F991F880F991FFF
:1021B000860F971FFC018181FA0180838D819E81AA
:1021C000FC01258136818981882F90E0880F991F35
:1021D000AC01440F551F440F551F440F551FBA0142
:1021E000681B790BCB01820F931FFC0124852F5FA5
:1021F000FC0124878D819E81FC01428153818A816B
:10220000282F30E0C901880F991F820F931F880F74
:10221000991F880F991F840F951FFC0181818A8364
:102220008D819E81FC01428153818A81282F30E07B
:10223000C901880F991F820F931F880F991F880F5C
:10224000991F840F951FFC0181818F3F09F03CCFBE
:1022500089818F5F89838D819E81FC019181898134
:10226000891708F494CE26960FB6F894DEBF0FBEF9
:10227000CDBFDF91CF910895CF93DF9300D01F9210
:10228000CDB7DEB79B838A8319821DC08A819B816B
:10229000FC01258136818981882F90E0880F991F64
:1022A000AC01440F551F440F551F440F551FBA0171
:1022B000681B790BCB01820F931F2FEFFC01258741
:1022C00089818F5F89838A819B81FC0191818981CA
:1022D0008917E0F20F900F900F90DF91CF91089542
:1022E000CF93DF9300D000D0CDB7DEB79B838A8336
:1022F0006C838A819B81FC01428153818C81282FD0
:1023000030E0C901880F991F820F931F880F991F12
:10231000880F991F840F951FFC0186819781009774
:10232000C1F08A819B81FC01428153818C81282FDD
:1023300030E0C901880F991F820F931F880F991FE2
:10234000880F991F840F951FFC0186819781FC01DE
:1023500009958A819B81FC01428153818C81282FC0
:1023600030E0C901880F991F820F931F880F991FB2
:10237000880F991F840F951FFC0180859185009718
:10238000C1F08A819B81FC01428153818C81282F7D
:1023900030E0C901880F991F820F931F880F991F82
:1023A000880F991F840F951FFC0180859185FC0182
:1023B00009958A819B812C81FC0124838A819B81E0
:1023C000FC01428153818C81282F30E0C901880FA4
:1023D000991F820F931F880F991F880F991F840FD1
:1023E000951FFC018281898385C08A819B81FC01C4
:1023F000428153818981282F332727FD3095C901D8
:10240000880F991F820F931F880F991F880F991F9C
:10241000840F951FFC01868197810097D1F08A81F6
:102420009B81FC01428153818981282F332727FD1D
:102430003095C901880F991F820F931F880F991F2C
:10244000880F991F840F951FFC0186819781FC01DD
:1024500009958A819B81FC01428153818981282FC2
:10246000332727FD3095C901880F991F820F931FCD
:10247000880F991F880F991F840F951FFC01808575
:1024800091850097D1F08A819B81FC014281538123
:102490008981282F332727FD3095C901880F991F7F
:1024A000820F931F880F991F880F991F840F951F04
:1024B000FC0180859185FC01099529818A819B8198
:1024C000FC0124838A819B81FC01428153818981A3
:1024D000282F332727FD3095C901880F991F820FB8
:1024E000931F880F991F880F991F840F951FFC0158
:1024F0008281898389818F3F09F077CF0F900F9078
:102500000F900F90DF91CF910895CF93DF9300D07C
:1025100000D000D0CDB7DEB79A8389837C836B83EC
:102520004D832E8389819A812D81FC0121838981AC
:102530009A812B813C81FC013383228389819A819A
:10254000FC018181882F90E0880F991F9C01220F48
:10255000331F220F331F220F331FA901481B590BB2
:10256000CA010E946A1A9C0189819A81FC01368302
:10257000258389819A810E94BC0F89819A810E945A
:102580003C1189819A816E810E94701189819A81A2
:102590002FEFFC01238B26960FB6F894DEBF0FBEFB
:1025A000CDBFDF91CF910895CF93DF9300D000D0BE
:1025B00000D0CDB7DEB79C838B836D834E831982A9
:1025C00019828B819C81FC01258136818E81882F27
:1025D00090E0880F991FAC01440F551F440F551F01
:1025E000440F551FBA01681B790BCB01820F931F53
:1025F000FC01848581508A8327C08B819C81FC01EA
:10260000258136818E81882F90E0880F991FAC013B
:10261000440F551F440F551F440F551FBA01681B27
:10262000790BCB01280F391F8A81992787FD909557
:10263000820F931FFC0190818D81981711F481E026
:1026400089838A8181508A838A818823B4F689812B
:1026500026960FB6F894DEBF0FBECDBFDF91CF91A7
:102660000895CF93DF9300D000D01F92CDB7DEB78F
:102670009D838C838C819D812FEFFC01238B8C812A
:102680009D8107964CE050E060E070E00E94911B55
:102690001A828C819D81FC018481898353C08C8145
:1026A0009D81FC01838921E0280F8C819D81FC01A3
:1026B000238B8C819D81FC018389992787FD9095CF
:1026C00049812C813D81820F931F0796FC01408335
:1026D0008C819D81FC01428153818981282F332780
:1026E00027FD3095C901880F991F820F931F880F0E
:1026F000991F880F991F840F951FFC018481958174
:10270000FC0109958B8390E481E02B81291709F066
:1027100080E08A838C819D81FC0142815381898183
:10272000282F332727FD3095C901880F991F820F65
:10273000931F880F991F880F991F840F951FFC0105
:102740008181898389818F3F31F09A8181E0892756
:10275000882309F0A4CF8A810F900F900F900F90DB
:102760000F90DF91CF910895CF93DF93CDB7DEB770
:1027700028970FB6F894DEBF0FBECDBF9D838C8324
:102780006E8358874F838FEF8B831A821982A0C084
:102790002C813D8189819A81820F931F0796FC01CC
:1027A00080818B838C819D81FC01428153818B814F
:1027B000282F30E0C901880F991F820F931F880FBF
:1027C000991F880F991F840F951FFC01828593859F
:1027D0000097C1F08C819D81FC01428153818B81E6
:1027E000282F30E0C901880F991F820F931F880F8F
:1027F000991F880F991F840F951FFC01828593856F
:10280000FC0109958F8198852B81FC0120838C81A7
:102810009D81FC01428153818C819D81FC016281FB
:1028200073818B81282F30E0C901880F991F820F97
:10283000931F880F991F880F991F860F971FFC0100
:102840008181282F332727FD3095C901880F991FD3
:10285000820F931F880F991F880F991F840F951F50
:10286000FC018381882379F18C819D81FC01458164
:1028700056818C819D81FC01628173818B81282F1F
:1028800030E0C901880F991F820F931F880F991F8D
:10289000880F991F860F971FFC018181992787FD5B
:1028A0009095880F991F9C01220F331F220F331F11
:1028B000220F331FB901681B790BCB01840F951FC1
:1028C0002B81FC01258789819A8101969A838983CE
:1028D0008C819D81FC018389282F332727FD30952A
:1028E00089819A81281739070CF052CF8C819D81FC
:1028F000FC01428153818B81282F30E0C901880F70
:10290000991F820F931F880F991F880F991F840F9B
:10291000951FFC0181818B83A7C08C819D81FC0167
:10292000428153818B81282F30E0C901880F991F84
:10293000820F931F880F991F880F991F840F951F6F
:10294000FC01828593850097C1F08C819D81FC01FB
:10295000428153818B81282F30E0C901880F991F54
:10296000820F931F880F991F880F991F840F951F3F
:10297000FC0182859385FC0109958F8198852B81C7
:10298000FC0120838C819D81FC01428153818B81DC
:10299000282F30E0C901880F991F820F931F880FDD
:1029A000991F880F991F840F951FFC0181818B83CC
:1029B0008C819D81FC01428153818C819D81FC0130
:1029C000628173818B81282F30E0C901880F991FA4
:1029D000820F931F880F991F880F991F860F971FCB
:1029E000FC018181282F332727FD3095C901880FED
:1029F000991F820F931F880F991F880F991F840FAB
:102A0000951FFC018381882379F18C819D81FC01D4
:102A1000458156818C819D81FC01628173818B810E
:102A2000282F30E0C901880F991F820F931F880F4C
:102A3000991F880F991F860F971FFC018181992785
:102A400087FD9095880F991F9C01220F331F220F3D
:102A5000331F220F331FB901681B790BCB01840F81
:102A6000951F2B81FC0125872B818C819D814E81B7
:102A7000622F0E94D412982F81E08927882309F0C1
:102A80004CCF9B818E81981709F091C08C819D81DC
:102A9000FC01428153818B81282F30E0C901880FCE
:102AA000991F820F931F880F991F880F991F840FFA
:102AB000951FFC01828593850097C1F08C819D81D3
:102AC000FC01428153818B81282F30E0C901880F9E
:102AD000991F820F931F880F991F880F991F840FCA
:102AE000951FFC0182859385FC0109958C819D8150
:102AF0002B81FC0120838C819D81FC0142815381CB
:102B00008C819D81FC01628173818B81282F30E053
:102B1000C901880F991F820F931F880F991F880F73
:102B2000991F860F971FFC018181282F332727FDCE
:102B30003095C901880F991F820F931F880F991F25
:102B4000880F991F840F951FFC018381882379F1D9
:102B50008C819D81FC01458156818C819D81FC0188
:102B6000628173818B81282F30E0C901880F991F02
:102B7000820F931F880F991F880F991F860F971F29
:102B8000FC018181992787FD9095880F991F9C01F1
:102B9000220F331F220F331F220F331FB901681B6F
:102BA000790BCB01840F951F2B81FC012587000039
:102BB00028960FB6F894DEBF0FBECDBFDF91CF9140
:102BC0000895CF93DF9300D000D000D0CDB7DEB70B
:102BD0009C838B836D834E838E8189838B819C81C3
:102BE000FC01428153818B819C81FC0125813681CE
:102BF0008D81882F90E0880F991FBC01660F771F89
:102C0000660F771F660F771FFB01E81BF90BCF01DB
:102C1000280F391F8981882F90E0820F931FFC01B4
:102C20008081282F332727FD3095C901880F991FF0
:102C3000820F931F880F991F880F991F840F951F6C
:102C4000FC01808591850097B9F18B819C81FC0105
:102C5000428153818B819C81FC01258136818D814C
:102C6000882F90E0880F991FBC01660F771F660FB1
:102C7000771F660F771FFB01E81BF90BCF01280FA9
:102C8000391F8981882F90E0820F931FFC0180817A
:102C9000282F332727FD3095C901880F991F820FF0
:102CA000931F880F991F880F991F840F951FFC0190
:102CB00080859185FC01099589818F5F8983898150
:102CC000282F30E08B819C81FC01458156818D81CC
:102CD000882F90E0880F991FBC01660F771F660F41
:102CE000771F660F771FFB01E81BF90BCF01840FDD
:102CF000951FFC018485992787FD90950197821780
:102D000093070CF06BCF8D818A837CC08B819C8173
:102D1000FC01258136818A81882F90E0880F991FD8
:102D2000AC01440F551F440F551F440F551FBA01E6
:102D3000681B790BCB01820F931FFC0185858F3FA8
:102D4000D9F08B819C81FC01258136818A81882F75
:102D500090E0880F991FAC01440F551F440F551F79
:102D6000440F551FBA01681B790BCB01820F931FCB
:102D7000FC0185858A8316C08B819C81FC01428180
:102D800053818A81282F30E0C901880F991F820F53
:102D9000931F880F991F880F991F840F951FFC019F
:102DA00082818A838B819C81FC01428153818A814B
:102DB000282F30E0C901880F991F820F931F880FB9
:102DC000991F880F991F840F951FFC01808591859D
:102DD0000097C1F08B819C81FC01428153818A81E3
:102DE000282F30E0C901880F991F820F931F880F89
:102DF000991F880F991F840F951FFC01808591856D
:102E0000FC0109958B819C81FC01258136818A8199
:102E1000882F90E0880F991FAC01440F551F440F75
:102E2000551F440F551FBA01681B790BCB01820F48
:102E3000931FFC0185858F3F09F068CF8B819C81B2
:102E4000FC01428153818A81282F30E0C901880F1B
:102E5000991F820F931F880F991F880F991F840F46
:102E6000951FFC0182818F3F09F050CF8A81269601
:102E70000FB6F894DEBF0FBECDBFDF91CF9108959E
:102E8000CF93DF93CDB7DEB728970FB6F894DEBFA8
:102E90000FBECDBF9E838D836F8348878FEF89835D
:102EA00028858D819E814F81622F0E94D4128823B4
:102EB00009F450C01A8230C08D819E81FC012581A9
:102EC00036818F81882F90E0880F991FAC01440FC5
:102ED000551F440F551F440F551FBA01681B790B2E
:102EE000CB01280F391F8A81992787FD9095820F82
:102EF000931FFC018081282F332727FD309588857B
:102F0000882F90E02817390721F48A8189830000EF
:102F1000DCC08A818F5F8A838D819E81FC0125813F
:102F200036818F81882F90E0880F991FAC01440F64
:102F3000551F440F551F440F551FBA01681B790BCD
:102F4000CB01820F931FFC0194858A8189170CF4B1
:102F5000B3CFBBC08D819E81FC01258136818F81DD
:102F6000882F90E0880F991FAC01440F551F440F24
:102F7000551F440F551FBA01681B790BCB01820FF7
:102F8000931FFC0164858D819E81FC012581368122
:102F90008D819E81FC018081882F90E0880F991F90
:102FA000AC01440F551F440F551F440F551FFA0124
:102FB000E81BF90BCF01820F931FFC018485861754
:102FC000E4F48D819E81FC01258136818885882FDE
:102FD00090E0880F991FAC01440F551F440F551FF7
:102FE000440F551FBA01681B790BCB01820F931F49
:102FF000FC01848581508C831BC08D819E81FC01E6
:10300000258136818F81882F90E0880F991FAC0130
:10301000440F551F440F551F440F551FBA01681B1D
:10302000790BCB01820F931FFC01848581508C8327
:103030001B8246C08B8189838D819E81FC01258105
:1030400036818885882F90E0880F991FAC01440F46
:10305000551F440F551F440F551FBA01681B790BAC
:10306000CB01280F391F8B81992787FD9095820FFF
:10307000931FFC0160818D819E81FC012581368139
:103080008F81882F90E0880F991FAC01440F551F46
:10309000440F551F440F551FFA01E81BF90BCF01D0
:1030A000280F391F8B81992787FD9095820F931FD9
:1030B000FC018081681709F008C08B818F5F8B83CA
:1030C0009B818C8189170CF0B5CF29818D819E81E0
:1030D000422F6F810E94E115282F8D819E81FC0176
:1030E0002483000028960FB6F894DEBF0FBECDBF34
:1030F000DF91CF9108955058BB27AA270ED04DC11C
:103100003ED130F043D120F031F49F3F11F41EF452
:1031100033C10EF4E095E7FB29C1E92F4FD180F3CD
:10312000BA17620773078407950718F071F49EF5C4
:1031300067C10EF4E0950B2EBA2FA02D0B01B9013B
:1031400090010C01CA01A0011124FF27591B99F01D
:10315000593F50F4503E68F11A16F040A22F232F29
:10316000342F4427585FF3CF469537952795A79579
:10317000F0405395C9F77EF41F16BA0B620B730B20
:10318000840BBAF09150A1F0FF0FBB1F661F771F91
:10319000881FC2F70EC0BA0F621F731F841F48F446
:1031A000879577956795B795F7959E3F08F0B3CFCC
:1031B0009395880F08F09927EE0F979587950895B6
:1031C0000CD0EBC0E3D040F0DAD030F021F45F3F18
:1031D00019F0CCC0511115C1CFC0F0D098F399238C
:1031E000C9F35523B1F3951B550BBB27AA276217CB
:1031F0007307840738F09F5F5F4F220F331F441F10
:10320000AA1FA9F333D00E2E3AF0E0E830D0915047
:103210005040E695001CCAF729D0FE2F27D0660F34
:10322000771F881FBB1F261737074807AB07B0E873
:1032300009F0BB0B802DBF01FF2793585F4F2AF089
:103240009E3F510568F092C0DCC05F3FECF3983EB2
:10325000DCF3869577956795B795F7959F5FC9F7E6
:10326000880F911D9695879597F90895E1E0660F6F
:10327000771F881FBB1F621773078407BA0720F0E8
:10328000621B730B840BBA0BEE1F88F7E095089551
:1032900004D06894B111B5C0089598D088F09F57B4
:1032A00090F0B92F9927B751A0F0D1F0660F771F92
:1032B000881F991F1AF0BA95C9F712C0B13081F072
:1032C0009FD0B1E008959CC0672F782F8827B85F02
:1032D00039F0B93FCCF3869577956795B395D9F7D3
:1032E0003EF490958095709561957F4F8F4F9F4FDD
:1032F0000895E89409C097FB3EF4909580957095E9
:1033000061957F4F8F4F9F4F9923A9F0F92F96E931
:10331000BB279395F695879577956795B795F111A6
:10332000F8CFFAF4BB0F11F460FF1BC06F5F7F4F43
:103330008F4F9F4F16C0882311F096E911C0772355
:1033400021F09EE8872F762F05C0662371F096E85E
:10335000862F70E060E02AF09A95660F771F881F2D
:10336000DAF7880F9695879597F9089597F99F67EB
:1033700080E870E060E008959FEF80EC08950024FD
:103380000A941616170618060906089500240A94CA
:1033900012161306140605060895092E0394000C50
:1033A00011F4882352F0BB0F40F4BF2B11F460FFDF
:1033B00004C06F5F7F4F8F4F9F4F089557FD905808
:1033C000440F551F59F05F3F71F04795880F97FBE9
:1033D000991F61F09F3F79F08795089512161306A3
:1033E0001406551FF2CF4695F1DF08C016161706D2
:1033F0001806991FF1CF8695710561050894089507
:10340000E894BB2766277727CB0197F908950BD05F
:10341000C4CFB5DF28F0BADF18F0952309F0A6CFA6
:10342000ABCF1124EECFCADFA0F3959FD1F3950F58
:1034300050E0551F629FF001729FBB27F00DB11D38
:10344000639FAA27F00DB11DAA1F649F6627B00DC8
:10345000A11D661F829F2227B00DA11D621F739FB1
:10346000B00DA11D621F839FA00D611D221F749FBF
:103470003327A00D611D231F849F600D211D822F06
:10348000762F6A2F11249F5750408AF0E1F088234D
:103490004AF0EE0FFF1FBB1F661F771F881F91505A
:1034A0005040A9F79E3F510570F060CFAACF5F3F13
:1034B000ECF3983EDCF3869577956795B795F7958D
:1034C000E7959F5FC1F7FE2B880F911D9695879515
:1034D00097F90895CF93DF938230910510F482E03D
:1034E00090E0E091CA09F091CB0920E030E0A0E043
:1034F000B0E0309739F14081518148175907B8F051
:103500004817590771F482819381109729F0139617
:103510009C938E9312972CC09093CB098093CA09E9
:1035200027C02115310531F04217530718F0A901C2
:10353000DB0101C0EF019A01BD01DF010280F381CF
:10354000E02DD7CF21153105F9F0281B390B243098
:10355000310580F48A819B816115710521F0FB01A1
:103560009383828304C09093CB098093CA09FE01A0
:10357000329644C0FE01E20FF31F819391932250D3
:103580003109398328833AC02091C8093091C9098B
:10359000232B41F420910201309103013093C9099A
:1035A0002093C809209100013091010121153105B6
:1035B00041F42DB73EB74091040150910501241B01
:1035C000350BE091C809F091C909E217F307A0F49F
:1035D0002E1B3F0B2817390778F0AC014E5F5F4F69
:1035E0002417350748F04E0F5F1F5093C9094093C9
:1035F000C8098193919302C0E0E0F0E0CF01DF9130
:10360000CF910895CF93DF93009709F487C0FC0111
:10361000329713821282C091CA09D091CB092097A8
:1036200081F420813181280F391F8091C809909140
:10363000C9098217930779F5F093C909E093C8097E
:103640006DC0DE0120E030E0AE17BF0750F41296E7
:103650004D915C9113979D014115510509F1DA01D6
:10366000F3CFB383A28340815181840F951F8A17C2
:103670009B0771F48D919C911197840F951F029671
:103680009183808312968D919C911397938382836B
:103690002115310529F4F093CB09E093CA093EC006
:1036A000D9011396FC93EE9312974D915D91A40F5F
:1036B000B51FEA17FB0779F480819181840F951F6C
:1036C0000296D90111969C938E93828193811396D1
:1036D0009C938E931297E0E0F0E08A819B810097A3
:1036E00019F0FE01EC01F9CFCE0102962881398153
:1036F000820F931F2091C8093091C90928173907F3
:1037000069F4309729F41092CB091092CA0902C0CB
:1037100013821282D093C909C093C809DF91CF9157
:103720000895DC0101C06D9341505040E0F70895C9
:10373000A0E0B0E0EEE9FBE10C94611EFE013596DD
:1037400061917191AF018091CE099091CF090E9452
:10375000D91BE2E00C947D1E0F931F93CF93DF9350
:10376000E091CE09F091CF09238121FF1BC0EC012C
:1037700000E010E089916091CE097091CF09DB01E2
:103780001896ED91FC911997882331F00995892BB2
:1037900089F30FEF1FEFEECF8AE00995892B11F423
:1037A000C80102C08FEF9FEFDF91CF911F910F9162
:1037B0000895ACE0B0E0EFEDFBE10C94511E7C010C
:1037C0006B018A01FC0117821682838181FFBDC1D2
:1037D000CE0101964C01F7019381F60193FD85918D
:1037E00093FF81916F01882309F4ABC1853239F4CD
:1037F00093FD859193FF81916F01853229F4B70183
:1038000090E00E94C11DE7CF512C312C20E02032E6
:10381000A0F48B3269F030F4803259F0833269F4CD
:1038200020612CC08D3239F0803339F4216026C0FC
:103830002260246023C0286021C027FD27C030ED0E
:10384000380F3A3078F426FF06C0FAE05F9E300D5C
:103850001124532E13C08AE0389E300D1124332ECC
:1038600020620CC08E3221F426FD6BC1206406C09C
:103870008C3611F4206802C0883641F4F60193FDBD
:10388000859193FF81916F018111C1CF982F9F7D09
:103890009554933028F40C5F1F4FFFE3F9830DC05C
:1038A000833631F0833771F0833509F05BC022C075
:1038B000F801808189830E5F1F4F44244394512C6B
:1038C000540115C03801F2E06F0E711CF801A080A0
:1038D000B18026FF03C0652D70E002C06FEF7FEF5F
:1038E000C5012C870E94B61D2C0183012C852F77E2
:1038F000222E17C03801F2E06F0E711CF801A08073
:10390000B18026FF03C0652D70E002C06FEF7FEF2E
:10391000C5012C870E94AB1D2C012C852068222E0E
:10392000830123FC1BC0832D90E048165906B0F498
:10393000B70180E290E00E94C11D3A94F4CFF501F6
:1039400027FC859127FE81915F01B70190E00E94DD
:10395000C11D31103A94F1E04F1A5108411451043D
:1039600071F7E5C0843611F0893639F5F80127FF83
:1039700007C060817181828193810C5F1F4F08C0F5
:1039800060817181882777FD8095982F0E5F1F4F8A
:103990002F76B22E97FF09C090958095709561950E
:1039A0007F4F8F4F9F4F2068B22E2AE030E0A40156
:1039B0000E94F31DA82EA81844C0853729F42F7E35
:1039C000B22E2AE030E025C0F22FF97FBF2E8F36CD
:1039D000C1F018F4883579F0B4C0803719F0883711
:1039E00021F0AFC02F2F2061B22EB4FE0DC08B2D61
:1039F0008460B82E09C024FF0AC09F2F9660B92E9C
:103A000006C028E030E005C020E130E002C020E13F
:103A100032E0F801B7FE07C0608171818281938135
:103A20000C5F1F4F06C06081718180E090E00E5FE7
:103A30001F4FA4010E94F31DA82EA818FB2DFF778D
:103A4000BF2EB6FE0BC02B2D2E7FA51450F4B4FE56
:103A50000AC0B2FC08C02B2D2E7E05C07A2C2B2D5F
:103A600003C07A2C01C0752C24FF0DC0FE01EA0DA5
:103A7000F11D8081803311F4297E09C022FF06C028
:103A80007394739404C0822F867809F0739423FD95
:103A900013C020FF06C05A2C731418F4530C571887
:103AA000732C731468F4B70180E290E02C870E94B5
:103AB000C11D73942C85F5CF731410F4371801C011
:103AC000312C24FF12C0B70180E390E02C870E94C4
:103AD000C11D2C8522FF17C021FF03C088E590E09F
:103AE00002C088E790E0B7010CC0822F867859F0B9
:103AF00021FD02C080E201C08BE227FD8DE2B7010B
:103B000090E00E94C11DA51438F4B70180E390E055
:103B10000E94C11D5A94F7CFAA94F401EA0DF11D39
:103B20008081B70190E00E94C11DA110F5CF332024
:103B300009F451CEB70180E290E00E94C11D3A9491
:103B4000F6CFF7018681978102C08FEF9FEF2C9609
:103B5000E2E10C946D1EFC01059061507040011073
:103B6000D8F7809590958E0F9F1F0895FC016150A6
:103B7000704001900110D8F7809590958E0F9F1F8F
:103B800008950F931F93CF93DF93182F092FEB0105
:103B90008B8181FD03C08FEF9FEF20C082FF10C09B
:103BA0004E815F812C813D81421753077CF4E8816F
:103BB000F9819F012F5F3F4F39832883108306C00F
:103BC000E885F985812F0995892B29F72E813F8179
:103BD0002F5F3F4F3F832E83812F902FDF91CF9117
:103BE0001F910F910895FA01AA27283051F1203131
:103BF00081F1E8946F936E7F6E5F7F4F8F4F9F4F81
:103C0000AF4FB1E03ED0B4E03CD0670F781F891FC2
:103C10009A1FA11D680F791F8A1F911DA11D6A0F90
:103C2000711D811D911DA11D20D009F468943F9143
:103C30002AE0269F11243019305D3193DEF6CF0142
:103C40000895462F4770405D4193B3E00FD0C9F708
:103C5000F6CF462F4F70405D4A3318F0495D31FD75
:103C60004052419302D0A9F7EACFB4E0A6959795C8
:103C7000879577956795BA95C9F70097610571059E
:103C800008959B01AC010A2E0694579547953795E8
:103C90002795BA95C9F7620F731F841F951FA01D42
:103CA00008952F923F924F925F926F927F928F92E0
:103CB0009F92AF92BF92CF92DF92EF92FF920F93BB
:103CC0001F93CF93DF93CDB7DEB7CA1BDB0B0FB6C5
:103CD000F894DEBF0FBECDBF09942A883988488882
:103CE0005F846E847D848C849B84AA84B984C88418
:103CF000DF80EE80FD800C811B81AA81B981CE0F0F
:103D0000D11D0FB6F894DEBF0FBECDBFED010895F3
:043D1000F894FFCF55
:103D14000000D20920002B00072200012200022209
:103D2400000300000002000000002902000000005F
:103D340000FF01004D03000000000000010002002C
:103D440056030000000000000201FF00A50300006C
:103D5400890398030301FF00F8030000D703EB0372
:103D6400040105005E0400003A044C040504FF004D
:103D7400A704000091049C04060407003905000010
:103D84000F05240507060800820500006C05770569
:103D94000807FF00EF050000D305E2050907FF004F
:103DA4003F060000210630060A07FF009A060000BD
:103DB40084068F060B06FF00DA060000BA06CB065F
:103DC4000C04FF002D0700000C071F070D00FF0067
:103DD400AA07000090079F07636865636B427574C8
:103DE400746F6E7320666F756E642070726F677285
:103DF400616D696E67427574746F6E206F6E000A30
:103E04005354415254555000656E74727920737442
:103E14006172747570207374617465006578697477
:103E2400207374617274757000656E7472792065A4
:103E34005374617465547269616352756E6E696E10
:103E440067006578697420747269616352756E6E77
:103E5400696E67537461746500656E74727920507D
:103E6400726F6772616D696E67006578697420505E
:103E7400726F6772616D696E6700656E7472792026
:103E840050726570617265466F7252656300657841
:103E940069742050726570617265466F7252656311
:103EA40000656E747279205265636F726400657880
:103EB4006974205265636F726400656E7472792050
:103EC4005265636F726441637469766500657869ED
:103ED40074205265636F726441637469766500652A
:103EE4006E74727920526563496E54696D6500651C
:103EF40078697420526563496E54696D6500656E16
:103F04007472792052656354696D654C6F770065EE
:103F14007869742052656354696D654C6F770065E8
:103F24006E7472792052656354696D654372697465
:103F34006963616C00657869742052656354696DC6
:103F440065437269746963616C00656E747279208B
:103F540052656354696D654F7574006578697420A2
:103F640052656354696D654F757400656E7472793A
:103F74002054657374696E670065786974205465AC
:103F84007374696E670073746172742073746F72F2
:103F940065206F6E20656570726F6D00656E6420BC
:103FA40073746F7265206F6E20656570726F6D003B
:103FB400656E74727920466174616C4572726F72B9
:103FC400002A2A2A2A2A2A2A2A2A2A2A2A2A2A663B
:103FD4006174616C204572726F723A202A2A2A2A0F
:103FE4002A2A2A2A2A2A2A2A2A2A2A2A2A2A2A2A2D
:103FF4002A2A2A2A2A006578697420466174616C29
:104004004572726F00656570726F6D2073746F72A4
:1040140065642025582C2062757420636865636B81
:104024002072657475726E65642025580A00736584
:1040340074456E6447617000656E644469666646E3
:10404400202531312E33662020656E64476170531C
:10405400697A6546202531312E33660A202073742F
:10406400657057697468202531312E336600736595
:1040740074456E64476170202569207468207661F8
:104084006C75653A20256631312E33202D2D3E2066
:104094002025690A00696E697420696E74657272FC
:1040A4007570747300737461727420414D505320A1
:1040B40061646300547269616372756E2073746124
:1040C4007274656400747269616372756E207374CE
:1040D4006F707065640073746F7020616D707361CC
:0640E4006463008040004F
:00000001FF
