:100000000C94BF000C94280F0C94DC000C94DC00C2
:100010000C94C5010C94DC000C94DC000C94DC0006
:100020000C94DC000C94A90E0C94DC000C94DC0005
:100030000C94DC000C94BD0F0C94DC000C94DC00E0
:100040000C94AB0F0C94DC000C94DC000C94DC00E2
:100050000C94DC000C94DC000C94DC000C94DC00B0
:100060000C94F70E0C94DC000C94DC000C94DC0077
:100070000C94DC000C94DC000C94DC006E616E00CF
:10008000696E660000407A10F35A00A0724E18099B
:100090000010A5D4E80000E87648170000E40B54EF
:1000A000020000CA9A3B000000E1F50500008096BE
:1000B0009800000040420F000000A08601000000F0
:1000C000102700000000E8030000000064000000AA
:1000D00000000A00000000000100000000002C7673
:1000E000D888DC674F0823DFC1DFAE59E1B1B7968E
:1000F000E5E3E453C63AE651997696E8E6C28426EB
:10010000EB898C9B62ED407C6FFCEFBC9C9F40F2C6
:10011000BAA56FA5F490055A2AF75C936B6CF96742
:100120006DC11BFCE0E40D47FEF520E6B500D0ED07
:10013000902E0300943577050080841E080000206F
:100140004E0A000000C80C333333330F986E12830D
:100150001141EF8D2114893BE65516CFFEE6DB18E1
:10016000D1844B381BF77C1D901DA4BBE4242032A6
:1001700084725E228100C9F124ECA1E53D2711249F
:100180001FBECFEFD0E1DEBFCDBF14E0A0E0B1E0F5
:10019000ECE0F6E402C005900D92A63DB107D9F758
:1001A0002CE0A6EDB4E001C01D92AF32B207E1F73A
:1001B0000E94D3020C9404230C940000CF93DF938D
:1001C000CDB7DEB781E290E021E230E0F901208195
:1001D0002E70FC01208382E290E020E7FC01208366
:1001E00088E690E028E630E0F90120812160FC01FA
:1001F00020838BE690E02BE630E0F9012081206F30
:10020000FC01208381E290E021E230E0F9012081CD
:100210002E60FC0120838AE290E02AE230E0F901BE
:1002200020812068FC0120838BE290E02BE230E00B
:10023000F90120812F77FC01208380E290E0FC010E
:1002400080818093E104DF91CF910895CF93DF9374
:1002500000D000D000D0CDB7DEB76B837C838D8318
:100260004E838B819C819A8389838E818823C1F4FC
:1002700089819A81FC018081482F8D81282F332725
:1002800027FD309581E090E002C0880F991F2A95E4
:10029000E2F7842B282F89819A81FC01208318C0E2
:1002A00089819A81FC018081482F8D81282F3327F5
:1002B00027FD309581E090E002C0880F991F2A95B4
:1002C000E2F780958423282F89819A81FC0120837D
:1002D00026960FB6F894DEBF0FBECDBFDF91CF914B
:1002E0000895CF93DF931F92CDB7DEB789838091B6
:1002F000090190910A01A0910B014981BC018A2F4B
:100300000E9426010F90DF91CF910895CF93DF9344
:100310001F92CDB7DEB7898380910C0190910D01BA
:10032000A0910E014981BC018A2F0E9426010F90E5
:10033000DF91CF910895CF93DF931F92CDB7DEB7B2
:10034000898380910F0190911001A0911101498141
:10035000BC018A2F0E9426010F90DF91CF91089552
:10036000CF93DF931F92CDB7DEB7898380910601CB
:1003700090910701A09108014981BC018A2F0E9438
:1003800026010F90DF91CF9108951F920F92009058
:100390005F000F9211242F933F938F939F93EF93BE
:1003A000FF93CF93DF93CDB7DEB7F8948091E1044C
:1003B000282F30E080E290E0FC018081882F90E0DF
:1003C0008227932780719927009781F080E290E03F
:1003D000FC018081882F90E080719927009719F0A7
:1003E0001092DD0403C081E08093DD048091E1047C
:1003F000282F30E080E290E0FC018081882F90E09F
:100400008227932780729927009789F080E290E0F5
:10041000FC018081882F90E080729927009721F05D
:1004200081E08093E60403C081E08093D60480914C
:10043000E104282F30E080E290E0FC018081882FE9
:1004400090E08227932780749927009789F080E2B3
:1004500090E0FC018081882F90E0807499270097BC
:1004600021F081E08093E20403C081E08093DB040B
:100470008091E104282F30E080E290E0FC0180814F
:10048000882F90E08227932780789927009769F03A
:1004900080E290E0FC018081882324F481E0809355
:1004A000E30403C081E08093F40B80E290E0FC0160
:1004B00080818093E1047894DF91CF91FF91EF9157
:1004C0009F918F913F912F910F9000925F000F901D
:1004D0001F901895CF93DF93CDB7DEB780E290E001
:1004E000FC01808188233CF481E08093E30488EC64
:1004F00091E00E947922DF91CF910895CF93DF930D
:1005000000D0CDB7DEB79A83898385EC90E029814E
:100510003A81232F3327FC01208384EC90E029814A
:10052000FC01208380EC90E020EC30E0F901208198
:100530002C7FFC01208381EC90E028E1FC012083EA
:1005400082EC90E026E0FC0120830F900F90DF9179
:10055000CF910895CF93DF9300D01F92CDB7DEB730
:1005600089837B836A83000080EC90E0FC018081BA
:10057000882F90E0807299270097B1F389818A30A3
:1005800029F462E171E08DE00E94AA0286EC90E01D
:100590002981FC01208380E090E00F900F900F9064
:1005A000DF91CF910895CF93DF93CDB7DEB7289732
:1005B0000FB6F894DEBF0FBECDBF85E090E00E947D
:1005C0007E0282E191E090932C0C80932B0C8FEEB5
:1005D00091E00E9479220E9442090E94DE000E945E
:1005E00009100E9444088091E404882359F08CE0AB
:1005F00090E09A838983CE010196BC0189EF9BE04C
:100600000E9459088091F80B882369F01092F80B2A
:100610008BE090E09A838983CE010196BC0189EF3B
:100620009BE00E9459088091F30B882369F0109297
:10063000F30B83E090E09A838983CE010196BC019D
:1006400089EF9BE00E9459088091D804882369F0C3
:100650001092D80481E090E09A838983CE010196BC
:10066000BC0189EF9BE00E9459088091E004882337
:1006700059F01092E0041A821982CE010196BC0151
:1006800089EF9BE00E9459088091F50B882369F05F
:100690001092F50B82E090E09A838983CE01019657
:1006A000BC0189EF9BE00E9459088091E3048823F4
:1006B00069F01092E30484E090E09A838983CE018C
:1006C0000196BC0189EF9BE00E9459088091F40BD0
:1006D000882369F01092F40B85E090E09A83898377
:1006E000CE010196BC0189EF9BE00E9459088091E0
:1006F000D604882369F01092D60486E090E09A83AD
:100700008983CE010196BC0189EF9BE00E945908C4
:100710008091E604882369F01092E60487E090E077
:100720009A838983CE010196BC0189EF9BE00E94E8
:1007300059088091DB04882369F01092DB0488E07B
:1007400090E09A838983CE010196BC0189EF9BE0FA
:100750000E9459088091E204882369F01092E20413
:1007600089E090E09A838983CE010196BC0189EFEC
:100770009BE00E9459088091DD04882371F010925B
:10078000DD048AE090E09A838983CE010196BC0162
:1007900089EF9BE00E94590826CF25CFCF93DF93A6
:1007A000CDB7DEB78091D404DF91CF910895CF9378
:1007B000DF9300D01F92CDB7DEB78091D404898338
:1007C00080910D0C90910E0CFC01808191818C30F8
:1007D0009105C9F48DE08A838091F60B9091F70B17
:1007E0009E012D5F3F4FA9016DE00E94AF152B8147
:1007F0008091F60B9091F70B422F6A810E943B1972
:100800008091D504898389810F900F900F90DF919B
:10081000CF910895CF93DF93CDB7DEB788EF91E006
:100820000E94792283E090E00E946511DF91CF91D0
:100830000895CF93DF93CDB7DEB78CE092E00E94AE
:1008400079220E948711DF91CF910895CF93DF9392
:1008500000D01F92CDB7DEB78091D40489838091F8
:100860000D0C90910E0CFC01808191810097C9F4D0
:1008700083E08A838091F60B9091F70B9E012D5FA8
:100880003F4FA90163E00E94AF152B818091F60BC9
:100890009091F70B422F6A810E943B198091D504F9
:1008A000898389810F900F900F90DF91CF910895E8
:1008B000CF93DF93CDB7DEB789E192E00E94792232
:1008C0000E94C90B8091D9049091DA040E94810999
:1008D00081E00E940A0C0E940C110E946A02DF91C2
:1008E000CF910895CF93DF93CDB7DEB782E392E047
:1008F0000E9479220E942411DF91CF910895CF9315
:10090000DF9300D01F92CDB7DEB78091D4048983E6
:1009100080910D0C90910E0CFC01808191818230B0
:10092000910529F40E94EE0B8091D5048983809172
:100930000D0C90910E0CFC01808191818430910509
:10094000C9F485E08A838091F60B9091F70B9E01A4
:100950002D5F3F4FA90165E00E94AF152B8180916B
:10096000F60B9091F70B422F6A810E943B19809100
:10097000D504898389810F900F900F90DF91CF91DB
:100980000895CF93DF93CDB7DEB789E492E00E945C
:10099000792280E00E94B0010E94CE100E940C11CA
:1009A000DF91CF910895CF93DF93CDB7DEB78AE57E
:1009B00092E00E94792281E00E94B0010E944B11D6
:1009C0000E942411DF91CF910895CF93DF9300D03F
:1009D0001F92CDB7DEB78091D404898380910D0C2E
:1009E00090910E0CFC018081918185309105C9F4B4
:1009F00083E08A838091F60B9091F70B9E012D5F27
:100A00003F4FA90163E00E94AF152B818091F60B47
:100A10009091F70B422F6A810E943B198091D50477
:100A2000898389810F900F900F90DF91CF91089566
:100A3000CF93DF93CDB7DEB78AE692E00E947922AA
:100A4000DF91CF910895CF93DF93CDB7DEB78EE7D7
:100A500092E00E947922DF91CF910895CF93DF93A6
:100A600000D000D01F92CDB7DEB78091D404898327
:100A700080910D0C90910E0CFC018081918183304E
:100A8000910529F40E94170C8091D50489838091E7
:100A90000D0C90910E0CFC018081918186309105A6
:100AA000C9F486E08A838091F60B9091F70B9E0142
:100AB0002C5F3F4FA90166E00E94AF152C81809109
:100AC000F60B9091F70B422F6A810E943B1980919F
:100AD000D504898380910D0C90910E0CFC018081CE
:100AE000918188309105C9F48CE08B838091F60B5D
:100AF0009091F70B9E012B5F3F4FA9016CE00E9484
:100B0000AF152D818091F60B9091F70B422F6B81E1
:100B10000E943B198091D504898389810F900F90A1
:100B20000F900F900F90DF91CF910895CF93DF93A7
:100B3000CDB7DEB781E992E00E9479220E94710D63
:100B400080E00E940A0C0E94C90B80E00E947101A3
:100B5000DF91CF910895CF93DF93CDB7DEB78EE9C4
:100B600092E00E9479220E94760C81E00E940A0C99
:100B700081E00E9471010E949711DF91CF91089549
:100B8000CF93DF9300D01F92CDB7DEB78091D4040E
:100B9000898380910D0C90910E0CFC0180819181D4
:100BA00087309105C9F485E08A838091F60B909196
:100BB000F70B9E012D5F3F4FA90165E00E94AF1525
:100BC0002B818091F60B9091F70B422F6A810E9446
:100BD0003B198091D504898389810F900F900F90E4
:100BE000DF91CF910895CF93DF93CDB7DEB78AEA37
:100BF00092E00E9479228FEF9FE70E946511DF91BA
:100C0000CF910895CF93DF93CDB7DEB78DEB92E010
:100C10000E9479220E948711DF91CF910895CF938E
:100C2000DF9300D01F92CDB7DEB78091D4048983C3
:100C300080910D0C90910E0CFC018081918183308C
:100C4000910529F40E94170C8091D5048983809125
:100C50000D0C90910E0CFC018081918182309105E8
:100C600029F40E94EE0B8091D504898380910D0CAC
:100C700090910E0CFC01808191818B309105C9F41B
:100C80008BE08A838091F60B9091F70B9E012D5F8C
:100C90003F4FA9016BE00E94AF152B818091F60BAD
:100CA0009091F70B422F6A810E943B198091D504E5
:100CB000898389810F900F900F90DF91CF910895D4
:100CC000CF93DF93CDB7DEB78FEC92E00E9479220D
:100CD000DF91CF910895CF93DF93CDB7DEB78FED3E
:100CE00092E00E947922DF91CF910895CF93DF9314
:100CF00000D01F92CDB7DEB78091D4048983809154
:100D00000D0C90910E0CFC01808191818130910538
:100D1000E9F40E94780A8823C9F089E08A838091E7
:100D2000F60B9091F70B9E012D5F3F4FA90169E0F3
:100D30000E94AF152B818091F60B9091F70B422FFB
:100D40006A810E943B198091D504898389810F9023
:100D50000F900F90DF91CF910895CF93DF93CDB790
:100D6000DEB78EEE92E00E947922DF91CF91089556
:100D7000CF93DF93CDB7DEB78FEF92E00E94792259
:100D80000E949711DF91CF910895CF93DF9300D008
:100D90001F92CDB7DEB78091D404898380910D0C6A
:100DA00090910E0CFC018081918181309105E9F4D4
:100DB0000E948C0A8823C9F08AE08A838091F60B0E
:100DC0009091F70B9E012D5F3F4FA9016AE00E94B1
:100DD000AF152B818091F60B9091F70B422F6A8112
:100DE0000E943B198091D504898380910D0C9091CC
:100DF0000E0CFC01808191818230910549F4809133
:100E0000E504882319F40E94A71102C00E949711DB
:100E100089810F900F900F90DF91CF910895CF931C
:100E2000DF93CDB7DEB78FE093E00E947922DF91A8
:100E3000CF910895CF93DF93CDB7DEB785E293E0EE
:100E40000E9479220E949711DF91CF910895CF934C
:100E5000DF931F92CDB7DEB78091D4048983809150
:100E60000D0C90910E0CFC018081918182309105D6
:100E700049F48091E504833018F40E94A71102C060
:100E80000E94971189810F90DF91CF910895CF93A0
:100E9000DF93CDB7DEB78AE393E00E9479228FE03B
:100EA00090E00E9465110E94A711DF91CF910895F3
:100EB000CF93DF93CDB7DEB78BE493E00E94792226
:100EC0000E9487110E949711DF91CF910895CF93CF
:100ED000DF9300D01F92CDB7DEB78091D404898311
:100EE00080910D0C90910E0CFC01808191810097F6
:100EF000C9F485E08A838091F60B9091F70B9E01EF
:100F00002D5F3F4FA90165E00E94AF152B818091B5
:100F1000F60B9091F70B422F6A810E943B1980914A
:100F2000D504898389810F900F900F90DF91CF9125
:100F30000895CF93DF93CDB7DEB78BE593E00E94A2
:100F400079220E94C90B81E00E940A0C80E00E9475
:100F50008601DF91CF910895CF93DF93CDB7DEB7B0
:100F600089E693E00E94792281E00E948601DF9168
:100F7000CF910895CF93DF9300D01F92CDB7DEB706
:100F80008091D404898380910D0C90910E0CFC010A
:100F90008081918189309105C9F485E08A838091AF
:100FA000F60B9091F70B9E012D5F3F4FA90165E075
:100FB0000E94AF152B818091F60B9091F70B422F79
:100FC0006A810E943B198091D504898380910D0C20
:100FD00090910E0CFC01808191818230910529F461
:100FE0000E94EE0B8091D504898380910D0C909125
:100FF0000E0CFC01808191818A309105B9F486E75D
:1010000093E00E94792280E00E949B018091D904A4
:101010009091DA040E94530981E00E949B018CE8C0
:1010200093E00E9479228091D504898389810F9071
:101030000F900F90DF91CF910895CF93DF93CDB7AD
:10104000DEB780EA93E00E94792281EB93E00E9470
:101050007922DF91CF910895CF93DF93CDB7DEB79B
:1010600086EE93E00E947922DF91CF910895CF938D
:10107000DF931F92CDB7DEB78091D4048983898135
:101080000F90DF91CF910895CF93DF93CDB7DEB767
:1010900089EF9BE09093F70B8093F60B20E04EE0F6
:1010A00060E271E089EF9BE00E948014DF91CF91B4
:1010B0000895CF93DF9300D000D0CDB7DEB79A83E9
:1010C00089837C836B838B819C8190930E0C8093AE
:1010D0000D0C89819A810E942C150F900F900F9012
:1010E0000F90DF91CF910895CF93DF9300D01F929F
:1010F000CDB7DEB79A8389836B8300008FE390E0DE
:10110000FC018081882F90E0827099270097B1F7C9
:1011100081E490E029813A81FC013183208380E4DD
:1011200090E02B81FC012083F894FA9AF99A789444
:101130000F900F900F90DF91CF910895CF93DF9391
:1011400000D0CDB7DEB79A83898300008FE390E0AB
:10115000FC018081882F90E0827099270097B1F779
:1011600081E490E029813A81FC01318320838FE37F
:1011700090E02FE330E0F90120812160FC01208321
:1011800080E490E0FC0180810F900F90DF91CF917F
:101190000895CF93DF9300D000D000D0CDB7DEB755
:1011A0009D838C836E8319828C819D819B838A832E
:1011B0002E818A819B81622F0E9474088A819B8183
:1011C0000E949E0889839E8189819817D9F0898120
:1011D000282F30E08E81882F90E0432F4F932F935C
:1011E000292F2F938F9385EF93E0892F8F9385EF8E
:1011F00093E08F930E9465220F900F900F900F90B5
:101200000F900F9026960FB6F894DEBF0FBECDBF9D
:10121000DF91CF910895CF93DF9300D000D01F923C
:10122000CDB7DEB79D838C838C819D819A83898322
:1012300089819A810E949E088B838B810F900F90E9
:101240000F900F900F90DF91CF910895CF93DF9380
:1012500000D01F92CDB7DEB79B838A831982898124
:101260008F5F898300008A819B819C012150310915
:101270003B832A830097B9F70F900F900F90DF916F
:10128000CF910895CF93DF93CDB7DEB787EE94E08B
:101290009093DA048093D9041092F20B1092E40434
:1012A000DF91CF910895CF93DF9300D000D01F92AC
:1012B000CDB7DEB79D838C831B821A82198212C040
:1012C0002C813D8189819A81820F931FFC012081AD
:1012D00089819A81622F0E94C90889819A81019629
:1012E0009A83898389819A818B30F7E09F0740F345
:1012F0008B810F900F900F900F900F90DF91CF91F7
:101300000895CF93DF93CDB7DEB728970FB6F89443
:10131000DEBF0FBECDBF98878F831B828BE097E027
:101320009D838C831A82198213C089819A810E94BD
:101330000B098E832F81388589819A81820F931FB3
:101340002E81FC01208389819A8101969A83898369
:1013500029813A818C819D812817390730F38B814F
:1013600028960FB6F894DEBF0FBECDBFDF91CF91A8
:101370000895CF93DF9300D000D0CDB7DEB79C8324
:101380008B831A8219828B819C81FC0180819181DF
:101390009F779A83898389819A810F900F900F900C
:1013A0000F90DF91CF910895CF93DF9300D000D0BD
:1013B000CDB7DEB79A8389837C836B8389819A81D9
:1013C000FC01808191819C012227307889819A815A
:1013D000FC013183208389819A81FC012081318144
:1013E0008B819C81282B392B89819A81FC01318347
:1013F00020830F900F900F900F90DF91CF91089561
:10140000CF93DF9300D000D0CDB7DEB79C838B8322
:101410001A8219828B819C81FC01808191819923A0
:101420004CF48B819C81FC018281992787FD9095EA
:101430009A83898389819A810F900F900F900F90E2
:10144000DF91CF910895CF93DF9300D0CDB7DEB772
:101450009A83898389819A81FC0180819181992372
:10146000DCF089819A81FC018081918190689C01E6
:1014700089819A81FC01318320838091100C9091A5
:10148000110C01969093110C8093100C89819A8114
:1014900021E0FC0122830AC089819A81FC018281BA
:1014A00021E0280F89819A81FC0122830F900F90FF
:1014B000DF91CF910895CF93DF9300D0CDB7DEB702
:1014C0001A8219828091170C9091180C9C018091BE
:1014D000100C9091110CA901481B590BCA019A8359
:1014E000898389819A810F900F90DF91CF91089520
:1014F000CF93DF931F92CDB7DEB719820E945B0AAC
:1015000021E0843F31E093070CF020E029838981BA
:101510000F90DF91CF910895CF93DF931F92CDB7B6
:10152000DEB719820E945B0A21E08A3F91050CF028
:1015300020E0298389810F90DF91CF910895CF9387
:10154000DF931F92CDB7DEB719820E945B0A21E0BC
:10155000843691050CF020E0298389810F90DF917A
:10156000CF910895CF93DF9300D000D0CDB7DEB7F1
:101570009C838B831A8219828B819C81009729F42A
:1015800089EE94E09A83898315C08B819C819A832C
:10159000898389819A8102969A8389838B819C8130
:1015A0000E94000A181619062CF489819A81019666
:1015B0009A83898389819A810F900F900F900F9061
:1015C000DF91CF910895CF93DF9300D0CDB7DEB7F1
:1015D0001A82198280910F0C181634F480910F0C26
:1015E000815080930F0C34C08091120C9091130C99
:1015F0009C018091D9049091DA04FC018081918151
:101600008217930710F40E94C90B8091100C9091DF
:10161000110C9093150C8093140C8091140C9091E4
:10162000150C0E94B20A9093110C8093100C8091BB
:10163000140C9091150C0E94000A80930F0C80915D
:10164000120C9091130C01969093130C8093120C32
:101650008091140C9091150C0E94B9099A8389838A
:1016600089819A810F900F90DF91CF910895CF9348
:10167000DF9300D000D000D0CDB7DEB79E838D833E
:101680008091140C9091150C0097E1F08091140C4E
:101690009091150C0E94B9099A83898329813A8116
:1016A0008D819E812817390769F48091140C9091DF
:1016B000150C0E94000A9C838B838B819C818B3F3D
:1016C000910584F18091100C9091110C9093150C60
:1016D0008093140C8091100C9091110C02969093B1
:1016E000110C8093100C8091120C9091130C0196A8
:1016F0009093130C8093120C8091D9049091DA048A
:10170000FC01208131812F5F3F4FFC013183208319
:101710002D813E818091140C9091150CB9010E948D
:10172000D40906C08091140C9091150C0E94230AD4
:101730008D819E8126960FB6F894DEBF0FBECDBF79
:10174000DF91CF910895CF93DF9300D0CDB7DEB76F
:101750000E94950E9A83898389819A810E94370B12
:1017600089819A810F900F90DF91CF910895CF9347
:10177000DF9300D0CDB7DEB70E94E30A9A83898356
:1017800089819A810E946B0E0F900F90DF91CF910B
:101790000895CF93DF93CDB7DEB787EE94E09093B3
:1017A000DA048093D9041092150C1092140C89EE6F
:1017B00094E09093110C8093100C81EF9BE0909338
:1017C000180C8093170C1092130C1092120C10929C
:1017D0000F0C1092F80BDF91CF910895CF93DF9308
:1017E000CDB7DEB78091160C813019F40E94B70B8B
:1017F0000EC08091160C882351F40E949F0A882302
:1018000019F40E94A30B03C081E08093F80BDF91D1
:10181000CF910895CF93DF931F92CDB7DEB7898321
:1018200089818093160C0F90DF91CF910895CF930B
:10183000DF93CDB7DEB760970FB6F894DEBF0FBE6B
:10184000CDBF0E9437119A83898389819A81AA2703
:1018500097FDA095BA2FBC01CD010E94761BDC013B
:10186000CB018B839C83AD83BE8320E030E040E8D6
:1018700054E46B817C818D819E810E94DB1ADC01A6
:10188000CB018F839887A987BA8720E030E04EE3A9
:1018900054E46F81788589859A850E94021CDC0159
:1018A000CB018B879C87AD87BE8720E030E040E08E
:1018B0005FE36B857C858D859E850E94771ADC01B0
:1018C000CB01BC01CD010E94431BDC01CB01988BF5
:1018D0008F878F8598890E946B0E60960FB6F8945B
:1018E000DEBF0FBECDBFDF91CF910895CF93DF93C1
:1018F000CDB7DEB76A970FB6F894DEBF0FBECDBF87
:1019000089EE94E00E94B9099C838B838091140C2A
:101910009091150C0E94B9099E838D832D813E8183
:101920008B819C81A901481B590BCA0198878F8321
:101930008EE194E00E9479228F81988599231CF48E
:10194000919581959109863091050CF4C1C08F81E4
:101950009885AA2797FDA095BA2FBC01CD010E94BA
:10196000761BDC01CB0189879A87AB87BC8780E037
:1019700090E0A0E2B1E48D879E87AF87B88B2D857C
:101980003E854F85588969857A858B859C850E941F
:10199000DB1ADC01CB01898B9A8BAB8BBC8B8C89DE
:1019A0008F938B898F938A898F9389898F93888965
:1019B0008F938F858F938E858F938D858F938C8555
:1019C0008F938B858F938A858F9389858F9388E2F8
:1019D00094E0892F8F9388E294E08F930E94652290
:1019E0008DB79EB70E960FB6F894DEBF0FBECDBF73
:1019F0001A8219825DC08091140C9091150C0E947E
:101A0000B909AA2797FDA095BA2FBC01CD010E9464
:101A1000761BDC01CB0129893A894B895C89BC01A1
:101A2000CD010E94761ADC01CB018D8B9E8BAF8B92
:101A3000B88F20E030E040E05FE36D897E898F89D8
:101A4000988D0E94771ADC01CB01BC01CD010E9468
:101A5000431BDC01CB019A8F898F8A8D8F93898DEF
:101A60008F93888D8F938F898F938E898F938D8994
:101A70008F938A818F9389818F938FE594E0892F4B
:101A80008F938FE594E08F930E9465224DB75EB7E8
:101A9000465F5F4F0FB6F894DEBF0FBECDBF898D96
:101AA0009A8D0E94370B89819A8101969A83898346
:101AB00089819A818A3091050CF49DCF89EE94E05A
:101AC0000E94B9099A8F898F898D9A8D0E94370B50
:101AD0006A960FB6F894DEBF0FBECDBFDF91CF91EF
:101AE0000895CF93DF93CDB7DEB78091D90490915D
:101AF000DA044BE057E060E070E00E942122DF91C1
:101B0000CF910895CF93DF9300D000D01F92CDB72F
:101B1000DEB79B838A837D836C8381EB90E0FC013D
:101B20008081898381EB90E0FC01108282EB90E060
:101B3000FC018081282F30E08A819B81281739079A
:101B4000C1F082EB90E02A81FC01208382EB90E0DF
:101B5000FC018081882F90E09C012F5F3F4F8C819A
:101B60009D812817390729F48C819D8101969D83D9
:101B70008C8383EB90E02C81FC01208381EB90E04F
:101B80002981FC0120830F900F900F900F900F90F0
:101B9000DF91CF910895CF93DF93CDB7DEB78091DA
:101BA0001D0C90911E0C8C3F9105E4F480911D0C4E
:101BB00090911E0CBC0180E090E00E94820D20916B
:101BC0001F0C3091200C80911D0C90911E0C820FE7
:101BD000931F9093200C80931F0C10921E0C109258
:101BE0001D0C1AC080911D0C90911E0C8C5F9109E8
:101BF00090931E0C80931D0C6CEF70E080E090E0E1
:101C00000E94820D80911F0C9091200C84509F4F58
:101C10009093200C80931F0CDF91CF910895CF9368
:101C2000DF93CDB7DEB787E390E0FC01108280E759
:101C300090E022E0FC01208381EB90E025E0FC01B4
:101C40002083DF91CF910895CF93DF93CDB7DEB797
:101C500081EB90E0FC01108280E790E0FC011082B3
:101C600087E390E022E0FC012083DF91CF9108958B
:101C7000CF93DF9300D0CDB7DEB79A838983898174
:101C80009A811816190624F081E090E09A838983DE
:101C900089819A8190931E0C80931D0C0E94CB0D1C
:101CA0000E940F0E0F900F90DF91CF910895CF9368
:101CB000DF93CDB7DEB7F8948BE290E02BE230E013
:101CC000F90120812F7EFC0120830E94240E78944C
:101CD000DF91CF910895CF93DF9300D0CDB7DEB7DA
:101CE0009A838983F89489819A81883F22E09207B8
:101CF00080F489819A81009739F089819A81909343
:101D0000DF048093DE040BC01092DF041092DE0427
:101D100006C088EF92E09093DF048093DE0478940D
:101D20000F900F90DF91CF910895CF93DF9300D064
:101D3000CDB7DEB7F8948091DE049091DF049A83EA
:101D40008983789489819A810F900F90DF91CF9148
:101D500008951F920F9200905F000F9211242F930D
:101D60003F934F935F936F937F938F939F93AF9323
:101D7000BF93EF93FF93CF93DF93CDB7DEB7F89484
:101D800080911D0C90911E0C18161906CCF08BE258
:101D900090E02BE230E0F90120812061FC012083FA
:101DA00080E090E00E9426098BE290E02BE230E098
:101DB000F90120812F7EFC0120830E94240E02C0A5
:101DC0000E94CB0D7894DF91CF91FF91EF91BF915D
:101DD000AF919F918F917F916F915F914F913F91C3
:101DE0002F910F9000925F000F901F9018951F92F7
:101DF0000F9200905F000F9211248F939F93EF93A7
:101E0000FF93CF93DF93CDB7DEB788E790E0FC0177
:101E1000808191819093220C8093210C8091190CE8
:101E20008F5F8093190C8091190C823028F01092EA
:101E3000190C81E08093F30BDF91CF91FF91EF912B
:101E40009F918F910F9000925F000F901F901895B7
:101E50001F920F9200905F000F9211242F933F93D7
:101E60004F935F936F937F938F939F93AF93BF93A2
:101E7000EF93FF93CF93DF93CDB7DEB7F89489E26A
:101E800090E0FC018081882F90E084709927009772
:101E900019F40E94570E4AC01092200C10921F0C89
:101EA0008091DE049091DF041816190664F4809185
:101EB000DE049091DF0428EF32E0A901481B590BA2
:101EC000CA010E94380E80911C0C8F5F80931C0CFD
:101ED00020911C0C8DEC289F812D1124982F969514
:101EE0009695892F880F880F890F922F981B992319
:101EF000E9F481E08093F50B80911C0C843610F09E
:101F000010921C0C8091E5048F5F8093E504809112
:101F1000E5048A3010F01092E5048091D7048823FC
:101F200029F08091D70481508093D7047894DF9171
:101F3000CF91FF91EF91BF91AF919F918F917F9141
:101F40006F915F914F913F912F910F9000925F00A1
:101F50000F901F9018951F920F9200905F000F92A4
:101F60001124CF93DF93CDB7DEB7DF91CF910F90E0
:101F700000925F000F901F9018951F920F92009093
:101F80005F000F9211242F933F934F935F936F93B2
:101F90007F938F939F93AF93BF93EF93FF93CF93D1
:101FA000DF93CDB7DEB780911A0C90911B0C01978F
:101FB00090931B0C80931A0C8091230C9091240C0D
:101FC00001969093240C8093230C80911A0C90918D
:101FD0001B0C1816190634F00E94871181E08093BB
:101FE000E00403C081E08093D804DF91CF91FF919A
:101FF000EF91BF91AF919F918F917F916F915F9181
:102000004F913F912F910F9000925F000F901F9082
:102010001895CF93DF93CDB7DEB786E894E00E94A2
:102020007922F8948EE790E021E0FC0120838AE297
:1020300090E02AE230E0F90120812B7FFC0120832F
:102040008BE290E02BE230E0F90120812B7FFC0154
:1020500020838BE290E02BE230E0F90120812F7E9B
:10206000FC0120838AE290E02AE230E0F90120813D
:102070002061FC0120838BE290E02BE230E0F9014B
:1020800020812F7EFC0120838BE290E02BE230E068
:10209000F9012081277FFC0120838AE290E02AE277
:1020A00030E0F90120812860FC0120838BE290E080
:1020B0002BE230E0F9012081277FFC01208389E6B3
:1020C00090E021E0FC0120838DE390E0FC01108290
:1020D0001092D80480E890E0FC01108281E890E042
:1020E00028E0FC01208382E890E0FC01108288E86F
:1020F00090E020E33AE2FC013183208384E890E021
:10210000FC01118210828FE690E0FC01108284E4D1
:1021100090E022E0FC01208387E490E02FEFFC01B7
:10212000208386E490E0FC01108285E490E0FC01CD
:1021300010828EE690E0FC01108280EB90E022E0BD
:10214000FC01208381EB90E0FC01108286EB90E0A3
:10215000FC01108283EB90E02CEFFC01208382EBEA
:1021600090E0FC01108280E790E0FC0110828AE799
:1021700090E027E0FC0120831092F30B1092190CE1
:102180001092220C1092210C1092E5041092F50B83
:102190001092D7047894DF91CF910895CF93DF9375
:1021A000CDB7DEB786E994E00E947922F8948AE7F9
:1021B00090E027E0FC0120831092F30B1092190CA1
:1021C0008EE790E021E0FC0120838AE790E02FEA8F
:1021D000FC0120838BE790E023E0FC0120838CE767
:1021E00090E020E4FC01208387E490E02FEFFC01E5
:1021F000208384E490E022E0FC01208385E490E0E9
:1022000025E0FC0120838EE690E022E0FC012083A3
:102210007894DF91CF910895CF93DF93CDB7DEB758
:1022200010921C0CF8948CE390E0FC0110828DE37A
:1022300090E021E0FC012083789485EA94E00E94FC
:102240007922DF91CF910895CF93DF93CDB7DEB799
:10225000F8948DE390E0FC0110820E94570E789470
:1022600086EB94E00E947922DF91CF910895CF937D
:10227000DF9300D0CDB7DEB7F8948091210C909118
:10228000220C9A838983789489819A810F900F9088
:10229000DF91CF910895CF93DF93CDB7DEB787EC71
:1022A00094E00E947922F8948AE790E027E0FC010C
:1022B000208385E490E0FC0110828EE690E0FC0132
:1022C00010827894DF91CF910895CF93DF9300D05F
:1022D000CDB7DEB79A8389831092E00489819A8111
:1022E00090931B0C80931A0C1092240C1092230CC8
:1022F0008FE690E022E0FC01208381E890E02DE071
:10230000FC0120830F900F90DF91CF910895CF9320
:10231000DF93CDB7DEB781E890E028E0FC012083B1
:102320008FE690E0FC011082DF91CF910895CF936A
:10233000DF93CDB7DEB78BE290E02BE230E0F9011E
:102340002081277FFC012083DF91CF910895CF93D7
:10235000DF93CDB7DEB78BE290E02BE230E0F901FE
:1023600020812860FC012083DF91CF910895CF93D5
:10237000DF9300D000D000D0CDB7DEB79E838D8331
:10238000198264C18D819E81FC01258136818981FC
:10239000882F90E0880F991FAC01440F551F440F00
:1023A000551F440F551FBA01681B790BCB01820FD3
:1023B000931FFC0114868BE090E09C838B8340C0CC
:1023C0008D819E81FC01258136818981882F90E055
:1023D000880F991FAC01440F551F440F551F440F20
:1023E000551FBA01681B790BCB01280F391F8D814E
:1023F0009E81FC01458156818981882F90E0880F5C
:10240000991FBC01660F771F660F771F660F771F36
:10241000FB01E81BF90BCF01480F591F8B819C81F1
:102420000197840F951FFC0140818B819C81820F55
:10243000931FFC0140838B819C8101979C838B833C
:102440008B819C81181619060CF4BACF8D819E8160
:10245000FC01258136818981882F90E0880F991FA2
:10246000AC01440F551F440F551F440F551FBA01AF
:10247000681B790BCB01820F931F2981FC012083FC
:102480008D819E81FC01258136818981882F90E094
:10249000880F991FAC01440F551F440F551F440F5F
:1024A000551FBA01681B790BCB01820F931FFC01EA
:1024B00024852F5FFC01248789818A83ACC08BE04F
:1024C00090E09C838B8340C08D819E81FC0125819F
:1024D00036818981882F90E0880F991FAC01440FC5
:1024E000551F440F551F440F551FBA01681B790B28
:1024F000CB01280F391F8D819E81FC0145815681BA
:102500008981882F90E0880F991FBC01660F771F83
:10251000660F771F660F771FFB01E81BF90BCF01D2
:10252000480F591F8B819C810197840F951FFC01D7
:1025300040818B819C81820F931FFC0140838B81A2
:102540009C8101979C838B838B819C811816190633
:102550000CF4BACF8D819E81FC0125813681898161
:10256000882F90E0880F991FAC01440F551F440F2E
:10257000551F440F551FBA01681B790BCB01A901E8
:10258000480F591F8D819E81FC01628173818A8170
:10259000282F30E0C901880F991F820F931F880FE1
:1025A000991F880F991F860F971FFC018181FA01DF
:1025B00080838D819E81FC01258136818981882FD0
:1025C00090E0880F991FAC01440F551F440F551F11
:1025D000440F551FBA01681B790BCB01820F931F63
:1025E000FC0124852F5FFC0124878D819E81FC01E5
:1025F000428153818A81282F30E0C901880F991FB9
:10260000820F931F880F991F880F991F840F951FA2
:10261000FC0181818A838D819E81FC0142815381ED
:102620008A81282F30E0C901880F991F820F931FDC
:10263000880F991F880F991F840F951FFC018181B6
:102640008F3F09F03CCF89818F5F89838D819E8187
:10265000FC0191818981891708F494CE26960FB6E2
:10266000F894DEBF0FBECDBFDF91CF910895CF9319
:10267000DF9300D01F92CDB7DEB79B838A83198288
:102680001DC08A819B81FC01258136818981882F2B
:1026900090E0880F991FAC01440F551F440F551F40
:1026A000440F551FBA01681B790BCB01820F931F92
:1026B0002FEFFC01258789818F5F89838A819B8128
:1026C000FC01918189818917E0F20F900F900F90A2
:1026D000DF91CF910895CF93DF9300D000D0CDB795
:1026E000DEB79B838A836C838A819B81FC01428154
:1026F00053818C81282F30E0C901880F991F820FE8
:10270000931F880F991F880F991F840F951FFC0135
:10271000868197810097C1F08A819B81FC0142816B
:1027200053818C81282F30E0C901880F991F820FB7
:10273000931F880F991F880F991F840F951FFC0105
:1027400086819781FC0109958A819B81FC014281E8
:1027500053818C81282F30E0C901880F991F820F87
:10276000931F880F991F880F991F840F951FFC01D5
:10277000808591850097C1F08A819B81FC0142810F
:1027800053818C81282F30E0C901880F991F820F57
:10279000931F880F991F880F991F840F951FFC01A5
:1027A00080859185FC0109958A819B812C81FC01A2
:1027B00024838A819B81FC01428153818C81282F53
:1027C00030E0C901880F991F820F931F880F991F4E
:1027D000880F991F840F951FFC018281898385C012
:1027E0008A819B81FC01428153818981282F332773
:1027F00027FD3095C901880F991F820F931F880FFD
:10280000991F880F991F840F951FFC01868197815E
:102810000097D1F08A819B81FC014281538189819B
:10282000282F332727FD3095C901880F991F820F64
:10283000931F880F991F880F991F840F951FFC0104
:1028400086819781FC0109958A819B81FC014281E7
:1028500053818981282F332727FD3095C901880F9F
:10286000991F820F931F880F991F880F991F840F3C
:10287000951FFC01808591850097D1F08A819B810D
:10288000FC01428153818981282F332727FD309510
:10289000C901880F991F820F931F880F991F880FF6
:1028A000991F840F951FFC0180859185FC01099576
:1028B00029818A819B81FC0124838A819B81FC017F
:1028C000428153818981282F332727FD3095C90103
:1028D000880F991F820F931F880F991F880F991FC8
:1028E000840F951FFC018281898389818F3F09F0C4
:1028F00077CF0F900F900F900F90DF91CF910895A9
:10290000CF93DF9300D000D000D0CDB7DEB79A834D
:1029100089837C836B834D832E8389819A812D816A
:10292000FC01218389819A812B813C81FC013383C5
:10293000228389819A81FC018181882F90E0880F10
:10294000991F9C01220F331F220F331F220F331FA9
:10295000A901481B590BCA010E9417209C018981BB
:102960009A81FC013683258389819A810E94B7115F
:1029700089819A810E94371389819A816E810E9490
:102980006B1389819A812FEFFC01238B26960FB65A
:10299000F894DEBF0FBECDBFDF91CF910895CF93E6
:1029A000DF9300D000D000D0CDB7DEB79C838B83FF
:1029B0006D834E83198219828B819C81FC01258154
:1029C00036818E81882F90E0880F991FAC01440FCB
:1029D000551F440F551F440F551FBA01681B790B33
:1029E000CB01820F931FFC01848581508A8327C00D
:1029F0008B819C81FC01258136818E81882F90E01E
:102A0000880F991FAC01440F551F440F551F440FE9
:102A1000551FBA01681B790BCB01280F391F8A811A
:102A2000992787FD9095820F931FFC0190818D81DE
:102A3000981711F481E089838A8181508A838A8181
:102A40008823B4F6898126960FB6F894DEBF0FBEB0
:102A5000CDBFDF91CF910895CF93DF9300D000D009
:102A60001F92CDB7DEB79D838C838C819D812FEF24
:102A7000FC01238B8C819D8107964CE050E060E047
:102A800070E00E9421221A828C819D81FC01848148
:102A9000898353C08C819D81FC01838921E0280FAB
:102AA0008C819D81FC01238B8C819D81FC0183891C
:102AB000992787FD909549812C813D81820F931F35
:102AC0000796FC0140838C819D81FC0142815381EA
:102AD0008981282F332727FD3095C901880F991F39
:102AE000820F931F880F991F880F991F840F951FBE
:102AF000FC0184819581FC0109958B8390E481E040
:102B00002B81291709F080E08A838C819D81FC014B
:102B1000428153818981282F332727FD3095C901B0
:102B2000880F991F820F931F880F991F880F991F75
:102B3000840F951FFC018181898389818F3F31F04A
:102B40009A8181E08927882309F0A4CF8A810F9098
:102B50000F900F900F900F90DF91CF910895CF932A
:102B6000DF93CDB7DEB728970FB6F894DEBF0FBE60
:102B7000CDBF9D838C836E8358874F838FEF8B836C
:102B80001A821982A0C02C813D8189819A81820F8D
:102B9000931F0796FC0180818B838C819D81FC01B2
:102BA000428153818B81282F30E0C901880F991F02
:102BB000820F931F880F991F880F991F840F951FED
:102BC000FC01828593850097C1F08C819D81FC0179
:102BD000428153818B81282F30E0C901880F991FD2
:102BE000820F931F880F991F880F991F840F951FBD
:102BF000FC0182859385FC0109958F8198852B8145
:102C0000FC0120838C819D81FC01428153818C8158
:102C10009D81FC01628173818B81282F30E0C90185
:102C2000880F991F820F931F880F991F880F991F74
:102C3000860F971FFC018181282F332727FD3095B0
:102C4000C901880F991F820F931F880F991F880F42
:102C5000991F840F951FFC018381882379F18C8152
:102C60009D81FC01458156818C819D81FC016281A1
:102C700073818B81282F30E0C901880F991F820F43
:102C8000931F880F991F880F991F860F971FFC01AC
:102C90008181992787FD9095880F991F9C01220FAC
:102CA000331F220F331F220F331FB901681B790B0B
:102CB000CB01840F951F2B81FC01258789819A8187
:102CC00001969A8389838C819D81FC018389282FB9
:102CD000332727FD309589819A81281739070CF011
:102CE00052CF8C819D81FC01428153818B81282FA1
:102CF00030E0C901880F991F820F931F880F991F19
:102D0000880F991F840F951FFC0181818B83A7C0B9
:102D10008C819D81FC01428153818B81282F30E081
:102D2000C901880F991F820F931F880F991F880F61
:102D3000991F840F951FFC01828593850097C1F030
:102D40008C819D81FC01428153818B81282F30E051
:102D5000C901880F991F820F931F880F991F880F31
:102D6000991F840F951FFC0182859385FC010995AD
:102D70008F8198852B81FC0120838C819D81FC01B2
:102D8000428153818B81282F30E0C901880F991F20
:102D9000820F931F880F991F880F991F840F951F0B
:102DA000FC0181818B838C819D81FC014281538157
:102DB0008C819D81FC01628173818B81282F30E0A1
:102DC000C901880F991F820F931F880F991F880FC1
:102DD000991F860F971FFC018181282F332727FD1C
:102DE0003095C901880F991F820F931F880F991F73
:102DF000880F991F840F951FFC018381882379F127
:102E00008C819D81FC01458156818C819D81FC01D5
:102E1000628173818B81282F30E0C901880F991F4F
:102E2000820F931F880F991F880F991F860F971F76
:102E3000FC018181992787FD9095880F991F9C013E
:102E4000220F331F220F331F220F331FB901681BBC
:102E5000790BCB01840F951F2B81FC0125872B81DA
:102E60008C819D814E81622F0E94CF14982F81E02A
:102E70008927882309F04CCF9B818E81981709F010
:102E800091C08C819D81FC01428153818B81282FCF
:102E900030E0C901880F991F820F931F880F991F77
:102EA000880F991F840F951FFC01828593850097D9
:102EB000C1F08C819D81FC01428153818B81282F3F
:102EC00030E0C901880F991F820F931F880F991F47
:102ED000880F991F840F951FFC0182859385FC0143
:102EE00009958C819D812B81FC0120838C819D81A2
:102EF000FC01428153818C819D81FC01628173813F
:102F00008B81282F30E0C901880F991F820F931FF2
:102F1000880F991F880F991F860F971FFC018181C9
:102F2000282F332727FD3095C901880F991F820F5D
:102F3000931F880F991F880F991F840F951FFC01FD
:102F40008381882379F18C819D81FC0145815681A3
:102F50008C819D81FC01628173818B81282F30E0FF
:102F6000C901880F991F820F931F880F991F880F1F
:102F7000991F860F971FFC018181992787FD9095E6
:102F8000880F991F9C01220F331F220F331F220F1E
:102F9000331FB901681B790BCB01840F951F2B815F
:102FA000FC012587000028960FB6F894DEBF0FBEFF
:102FB000CDBFDF91CF910895CF93DF9300D000D0A4
:102FC00000D0CDB7DEB79C838B836D834E838E811B
:102FD00089838B819C81FC01428153818B819C81FF
:102FE000FC01258136818D81882F90E0880F991F03
:102FF000BC01660F771F660F771F660F771FFB01F7
:10300000E81BF90BCF01280F391F8981882F90E029
:10301000820F931FFC018081282F332727FD3095D5
:10302000C901880F991F820F931F880F991F880F5E
:10303000991F840F951FFC01808591850097B9F138
:103040008B819C81FC01428153818B819C81FC019D
:10305000258136818D81882F90E0880F991FBC01D2
:10306000660F771F660F771F660F771FFB01E81B40
:10307000F90BCF01280F391F8981882F90E0820F2B
:10308000931FFC018081282F332727FD3095C9012C
:10309000880F991F820F931F880F991F880F991F00
:1030A000840F951FFC0180859185FC01099589811C
:1030B0008F5F89838981282F30E08B819C81FC017F
:1030C000458156818D81882F90E0880F991FBC0122
:1030D000660F771F660F771F660F771FFB01E81BD0
:1030E000F90BCF01840F951FFC018485992787FD7B
:1030F00090950197821793070CF06BCF8D818A838F
:103100007CC08B819C81FC01258136818A81882F3E
:1031100090E0880F991FAC01440F551F440F551FB5
:10312000440F551FBA01681B790BCB01820F931F07
:10313000FC0185858F3FD9F08B819C81FC01258125
:1031400036818A81882F90E0880F991FAC01440F47
:10315000551F440F551F440F551FBA01681B790BAB
:10316000CB01820F931FFC0185858A8316C08B815A
:103170009C81FC01428153818A81282F30E0C90162
:10318000880F991F820F931F880F991F880F991F0F
:10319000840F951FFC0182818A838B819C81FC01B5
:1031A000428153818A81282F30E0C901880F991FFD
:1031B000820F931F880F991F880F991F840F951FE7
:1031C000FC01808591850097C1F08B819C81FC0179
:1031D000428153818A81282F30E0C901880F991FCD
:1031E000820F931F880F991F880F991F840F951FB7
:1031F000FC0180859185FC0109958B819C81FC01F6
:10320000258136818A81882F90E0880F991FAC0133
:10321000440F551F440F551F440F551FBA01681B1B
:10322000790BCB01820F931FFC0185858F3F09F03D
:1032300068CF8B819C81FC01428153818A81282F38
:1032400030E0C901880F991F820F931F880F991FC3
:10325000880F991F840F951FFC0182818F3F09F011
:1032600050CF8A8126960FB6F894DEBF0FBECDBF31
:10327000DF91CF910895CF93DF93CDB7DEB7289735
:103280000FB6F894DEBF0FBECDBF9E838D836F83D4
:1032900048878FEF898328858D819E814F81622F9A
:1032A0000E94CF14882309F450C01A8230C08D8147
:1032B0009E81FC01258136818F81882F90E0880FC7
:1032C000991FAC01440F551F440F551F440F551F44
:1032D000BA01681B790BCB01280F391F8A81992706
:1032E00087FD9095820F931FFC018081282F332743
:1032F00027FD30958885882F90E02817390721F41D
:103300008A8189830000DCC08A818F5F8A838D81F6
:103310009E81FC01258136818F81882F90E0880F66
:10332000991FAC01440F551F440F551F440F551FE3
:10333000BA01681B790BCB01820F931FFC019485A6
:103340008A8189170CF4B3CFBBC08D819E81FC01AB
:10335000258136818F81882F90E0880F991FAC01DD
:10336000440F551F440F551F440F551FBA01681BCA
:10337000790BCB01820F931FFC0164858D819E81A7
:10338000FC01258136818D819E81FC018081882F01
:1033900090E0880F991FAC01440F551F440F551F33
:1033A000440F551FFA01E81BF90BCF01820F931F41
:1033B000FC0184858617E4F48D819E81FC012581C2
:1033C00036818885882F90E0880F991FAC01440FC3
:1033D000551F440F551F440F551FBA01681B790B29
:1033E000CB01820F931FFC01848581508C831BC00D
:1033F0008D819E81FC01258136818F81882F90E00F
:10340000880F991FAC01440F551F440F551F440FDF
:10341000551FBA01681B790BCB01820F931FFC016A
:10342000848581508C831B8246C08B8189838D81EA
:103430009E81FC01258136818885882F90E0880F48
:10344000991FAC01440F551F440F551F440F551FC2
:10345000BA01681B790BCB01280F391F8B81992783
:1034600087FD9095820F931FFC0160818D819E8165
:10347000FC01258136818F81882F90E0880F991F6C
:10348000AC01440F551F440F551F440F551FFA013F
:10349000E81BF90BCF01280F391F8B81992787FD76
:1034A0009095820F931FFC018081681709F008C076
:1034B0008B818F5F8B839B818C8189170CF0B5CFBB
:1034C00029818D819E81422F6F810E94DC17282FD8
:1034D0008D819E81FC012483000028960FB6F8940C
:1034E000DEBF0FBECDBFDF91CF9108955058BB27EF
:1034F000AA270ED04DC13ED130F043D120F031F497
:103500009F3F11F41EF433C10EF4E095E7FB29C18F
:10351000E92F4FD180F3BA17620773078407950725
:1035200018F071F49EF567C10EF4E0950B2EBA2FDA
:10353000A02D0B01B90190010C01CA01A0011124B9
:10354000FF27591B99F0593F50F4503E68F11A1665
:10355000F040A22F232F342F4427585FF3CF4695F6
:1035600037952795A795F0405395C9F77EF41F1618
:10357000BA0B620B730B840BBAF09150A1F0FF0FE2
:10358000BB1F661F771F881FC2F70EC0BA0F621FCE
:10359000731F841F48F4879577956795B795F795BE
:1035A0009E3F08F0B3CF9395880F08F09927EE0F50
:1035B0009795879508950CD0EBC0E3D040F0DAD012
:1035C00030F021F45F3F19F0CCC0511115C1CFC0CC
:1035D000F0D098F39923C9F35523B1F3951B550BFC
:1035E000BB27AA2762177307840738F09F5F5F4FD6
:1035F000220F331F441FAA1FA9F333D00E2E3AF017
:10360000E0E830D091505040E695001CCAF729D030
:10361000FE2F27D0660F771F881FBB1F261737077F
:103620004807AB07B0E809F0BB0B802DBF01FF27AF
:1036300093585F4F2AF09E3F510568F092C0DCC05E
:103640005F3FECF3983EDCF3869577956795B795E9
:10365000F7959F5FC9F7880F911D9695879597F904
:103660000895E1E0660F771F881FBB1F621773077D
:103670008407BA0720F0621B730B840BBA0BEE1F92
:1036800088F7E095089504D06894B111B5C0089505
:1036900098D088F09F5790F0B92F9927B751A0F094
:1036A000D1F0660F771F881F991F1AF0BA95C9F7D6
:1036B00012C0B13081F09FD0B1E008959CC0672F57
:1036C000782F8827B85F39F0B93FCCF38695779586
:1036D0006795B395D9F73EF490958095709561956F
:1036E0007F4F8F4F9F4F0895E89409C097FB3EF49A
:1036F00090958095709561957F4F8F4F9F4F99233F
:10370000A9F0F92F96E9BB279395F69587957795BC
:103710006795B795F111F8CFFAF4BB0F11F460FF7C
:103720001BC06F5F7F4F8F4F9F4F16C0882311F0D4
:1037300096E911C0772321F09EE8872F762F05C0E8
:10374000662371F096E8862F70E060E02AF09A9583
:10375000660F771F881FDAF7880F9695879597F978
:10376000089597F99F6780E870E060E008959FEF03
:1037700080EC089500240A94161617061806090608
:10378000089500240A9412161306140605060895D7
:10379000092E0394000C11F4882352F0BB0F40F45F
:1037A000BF2B11F460FF04C06F5F7F4F8F4F9F4F9F
:1037B000089557FD9058440F551F59F05F3F71F021
:1037C0004795880F97FB991F61F09F3F79F0879588
:1037D0000895121613061406551FF2CF4695F1DF11
:1037E00008C0161617061806991FF1CF86957105A1
:1037F000610508940895E894BB2766277727CB01D5
:1038000097F908950BD0C4CFB5DF28F0BADF18F0D0
:10381000952309F0A6CFABCF1124EECFCADFA0F3DA
:10382000959FD1F3950F50E0551F629FF001729F55
:10383000BB27F00DB11D639FAA27F00DB11DAA1F74
:10384000649F6627B00DA11D661F829F2227B00DC1
:10385000A11D621F739FB00DA11D621F839FA00D4C
:10386000611D221F749F3327A00D611D231F849F9C
:10387000600D211D822F762F6A2F11249F575040F3
:103880008AF0E1F088234AF0EE0FFF1FBB1F661F8E
:10389000771F881F91505040A9F79E3F510570F047
:1038A00060CFAACF5F3FECF3983EDCF38695779527
:1038B0006795B795F795E7959F5FC1F7FE2B880F42
:1038C000911D9695879597F90895A3E1B0E0EBE6F1
:1038D000FCE10C94E01F7C011B016A01FC011782D2
:1038E0001682838181FF66C3BE016F5F7F4F4B01EC
:1038F000F7019381F10193FD859193FF81911F0160
:10390000882309F453C3853239F493FD859193FFDD
:1039100081911F01853239F4B70190E00E94332272
:1039200056016501E5CF10E0512C20E02032A0F4D3
:103930008B3269F030F4803259F0833269F42061BF
:103940002CC08D3239F0803339F4216026C02260DA
:10395000246023C0286021C027FD27C030ED380F28
:103960003A3078F426FF06C0FAE01F9F300D11248C
:10397000132F13C06AE0569E300D1124532E20627F
:103980000CC08E3221F426FD11C3206406C08C3693
:1039900011F4206802C0883641F4F10193FD85914D
:1039A00093FF81911F018111C1CF9BEB980F933041
:1039B00018F42061805E06C09BE9980F933008F0F0
:1039C000AAC12F7E26FF16E02F73722E853621F4B2
:1039D000F22FF0647F2E08C0863621F4622F6068D3
:1039E000762E02C01111115077FE07C01C3348F427
:1039F00044244394410E27E00BC0183030F4212FAB
:103A000006C027E04CE3442E03C027E017E0412C1A
:103A1000560174E0A70EB11CF601608171818281AC
:103A20009381042DA4010E943E216C01098100FFB5
:103A300002C003FF06C071FC07C072FC08C0612C05
:103A400008C03DE2632E05C02BE2622E02C090E268
:103A5000692E802F8C7099F1662011F084E001C0EE
:103A600083E0851510F0512C0BC0581A73FC08C068
:103A7000B70180E290E00E9433225A94C9F7F3CF55
:103A8000662029F0B701862D90E00E94332203FDC5
:103A900003C000E810E002C00CE710E0F72DF07161
:103AA0007F2EF8018491882309F476C27110805228
:103AB000B70190E00E9433220F5F1F4FF2CF77FED5
:103AC0000FC04C0C04FF04C08A81813309F44A946E
:103AD000141474F5F8E0F41578F588E0482E2CC03D
:103AE00076FC2AC0812F90E08C159D059CF06CEF30
:103AF000C6166FEFD60674F0772D7068772E0AC061
:103B0000E2E0F0E0EC0FFD1FE10FF11D808180335A
:103B100019F411501111F4CF77FE0EC044244394D0
:103B2000410E812F90E0C816D9062CF41C1904C050
:103B30004424439401C010E077FE07C01C141D0408
:103B40003CF496012F5F3F4F05C025E030E002C0F6
:103B500021E030E0662011F02F5F3F4F112331F05C
:103B6000412F50E04F5F5F4F240F351F452D50E030
:103B70002417350714F4521A01C0512C872D89706F
:103B800049F4552039F0B70180E290E00E943322D9
:103B90005A94F7CF662029F0B701862D90E00E9455
:103BA000332273FC09C0552039F0B70180E390E05F
:103BB0000E9433225A94F7CF77FE5FC09C2D8D2D43
:103BC000D7FE02C090E080E0692E782E40E050E001
:103BD000C601841991099D878C879601261937099A
:103BE000280D391D812F90E0EE27FF27E81BF90BE8
:103BF000FF87EE87FFEF6F167F0669F4B7018EE24D
:103C000090E02B8B3A8B488B598B0E943322598939
:103C100048893A892B89C614D70454F06C857D8570
:103C2000661577052CF4F901E40FF51F818101C0B9
:103C300080E371E0671A71084F5F5F4FEE85FF8583
:103C40006E167F066CF0B70190E02B8B3A8B488B99
:103C5000598B0E9433222B893A8948895989CACFC6
:103C60006C147D0439F49A81963318F4953311F469
:103C700004FF81E3B70190E04BC08A81813309F0F2
:103C80000F7EB70190E00E943322111105C074FE2F
:103C900018C085E490E017C0B7018EE290E00E9462
:103CA000332282E066246394680EF401E80FF11D6C
:103CB0008081B70190E00E943322115041F3862D9C
:103CC000F1CF85E690E0B7010E943322D7FC05C012
:103CD000C114D10439F404FF05C0D194C194D108B2
:103CE0008DE201C08BE2B70190E00E94332280E3B5
:103CF0006AE0C616D1042CF08F5FFAE0CF1AD10823
:103D0000F7CFB70190E00E943322B701C601C096F9
:103D10000E94332241C1833631F0833779F08335F5
:103D200009F058C021C0560172E0A70EB11CF6017F
:103D30008081898301E010E0640114C05601F2E043
:103D4000AF0EB11CF601C080D18026FF03C0612FE9
:103D500070E002C06FEF7FEFC6012B8B0E9428221C
:103D60008C012B892F7715C05601F2E0AF0EB11CE4
:103D7000F601C080D18026FF03C0612F70E002C031
:103D80006FEF7FEFC6012B8B0E9416228C012B89CF
:103D90002068722E23FD1AC0852D90E008171907A0
:103DA000A8F4B70180E290E00E9433225A94F4CF45
:103DB000F60177FC859177FE81916F01B70190E064
:103DC0000E94332251105A94015011090115110516
:103DD00079F7E2C0843611F0893651F5560127FF94
:103DE00009C0F4E0AF0EB11CF601608171818281DF
:103DF00093810AC0F2E0AF0EB11CF60160817181BF
:103E0000882777FD8095982F022F0F7697FF08C09F
:103E100090958095709561957F4F8F4F9F4F00686B
:103E20002AE030E0A4010E94A622C82EC8183EC095
:103E3000022F853721F40F7E2AE030E01DC0097F74
:103E40008F3691F018F4883559F0B0C0803719F0EA
:103E5000883711F0ABC0006104FF09C0046007C0DF
:103E600024FF08C0066006C028E030E005C020E15D
:103E700030E002C020E132E0560107FF09C0F4E063
:103E8000AF0EB11CF601608171818281938108C0FF
:103E9000F2E0AF0EB11CF6016081718180E090E02C
:103EA000A4010E94A622C82EC8180F7706FF0BC0D7
:103EB000202F2E7FC11650F404FF0AC002FD08C057
:103EC000202F2E7E05C0DC2C202F03C0DC2C01C04F
:103ED000D12E24FF0DC0FE01EC0DF11D8081803339
:103EE00011F4297E09C022FF06C0D394D39404C0E4
:103EF000822F867809F0D39423FD13C020FF06C0DB
:103F00001C2DD51418F4150D1D19D52CD51468F4D5
:103F1000B70180E290E02B8B0E943322D3942B894F
:103F2000F5CFD51410F45D1801C0512C24FF12C038
:103F3000B70180E390E02B8B0E9433222B8922FF74
:103F400017C021FF03C088E590E002C088E790E039
:103F5000B7010CC0822F867859F021FD02C080E2A3
:103F600001C08BE227FD8DE2B70190E00E94332271
:103F7000C11638F4B70180E390E00E94332211505B
:103F8000F7CFCA94F401EC0DF11D8081B70190E0E8
:103F90000E943322C110F5CF552009F4C2CCB701DD
:103FA00080E290E00E9433225A94F6CFF701868196
:103FB000978102C08FEF9FEF6396E2E10C94FC1FA4
:103FC0002F923F924F925F926F927F928F929F9229
:103FD000AF92BF92CF92DF92EF92FF920F931F9317
:103FE000CF93DF93CDB7DEB7CA1BDB0B0FB6F894C8
:103FF000DEBF0FBECDBF09942A88398848885F8408
:104000006E847D848C849B84AA84B984C884DF8078
:10401000EE80FD800C811B81AA81B981CE0FD11D5C
:104020000FB6F894DEBF0FBECDBFED010895CF935C
:10403000DF938230910510F482E090E0E091270C4C
:10404000F091280C20E030E0A0E0B0E0309739F1AA
:104050004081518148175907B8F04817590771F442
:1040600082819381109729F013969C938E931297D7
:104070002CC09093280C8093270C27C02115310564
:1040800031F04217530718F0A901DB0101C0EF011D
:104090009A01BD01DF010280F381E02DD7CF211508
:1040A0003105F9F0281B390B2430310580F48A8161
:1040B0009B816115710521F0FB019383828304C00C
:1040C0009093280C8093270CFE01329644C0FE0189
:1040D000E20FF31F81939193225031093983288392
:1040E0003AC02091250C3091260C232B41F42091CD
:1040F0000201309103013093260C2093250C20916E
:104100000001309101012115310541F42DB73EB771
:104110004091040150910501241B350BE091250CC1
:10412000F091260CE217F307A0F42E1B3F0B281783
:10413000390778F0AC014E5F5F4F2417350748F020
:104140004E0F5F1F5093260C4093250C8193919343
:1041500002C0E0E0F0E0CF01DF91CF910895CF936E
:10416000DF93009709F487C0FC0132971382128213
:10417000C091270CD091280C209781F420813181A7
:10418000280F391F8091250C9091260C82179307D8
:1041900079F5F093260CE093250C6DC0DE0120E04C
:1041A00030E0AE17BF0750F412964D915C91139713
:1041B0009D014115510509F1DA01F3CFB383A283C3
:1041C00040815181840F951F8A179B0771F48D914F
:1041D0009C911197840F951F02969183808312966C
:1041E0008D919C911397938382832115310529F436
:1041F000F093280CE093270C3EC0D9011396FC9352
:10420000EE9312974D915D91A40FB51FEA17FB072E
:1042100079F480819181840F951F0296D9011196BE
:104220009C938E938281938113969C938E93129785
:10423000E0E0F0E08A819B81009719F0FE01EC013B
:10424000F9CFCE01029628813981820F931F2091E8
:10425000250C3091260C2817390769F4309729F47A
:104260001092280C1092270C02C013821282D09355
:10427000260CC093250CDF91CF910895283008F0CB
:1042800027E03327DA01990F311D87FD91600096F1
:104290006105710539F432602E5F3D9330E32A9554
:1042A000E1F708959F3F30F080387105610509F00E
:1042B0003C5F3C5F3D93913008F08068911DDF9337
:1042C000CF931F930F93FF92EF92192F987F96959C
:1042D000E92F96959695E90FFF27E252FF4F992710
:1042E0003327EE24FF24A701E701059008940794E3
:1042F00028F4360FE71EF81E491F511D660F771F61
:10430000881F991F0694A1F70590079428F4E70EDB
:10431000F81E491F561FC11D770F881F991F661F62
:104320000694A1F70590079428F4F80E491F561F2C
:10433000C71FD11D880F991F661F771F0694A1F70D
:104340000590079420F4490F561FC71FD81F990FD7
:10435000661F771F881F0694A9F784911095177020
:1043600041F0D695C79557954795F794E7941A95D8
:10437000C1F7E4E8F0E068941590159135916591E6
:10438000959105907FE27395E118F10A430B560B66
:10439000C90BD009C0F7E10CF11E431F561FC91FFE
:1043A000D01D7EF4703311F48A95E6CFE894015065
:1043B00030F0080F0AF40027021708F4202F239585
:1043C000022F7A3328F079E37D932A95E9F710C01C
:1043D0007D932A9589F60694979567953795179555
:1043E0001794E118F10A430B560BC90BD00998F04A
:1043F00023957E9173957A3308F070E37C932013B4
:10440000B8F77E9170617D9330F0839571E37D9371
:1044100070E32A95E1F71124EF90FF900F911F911F
:10442000CF91DF91992787FD90950895FC01059024
:10443000615070400110D8F7809590958E0F9F1FA6
:104440000895DC0101C06D9341505040E0F708959C
:10445000FC016150704001900110D8F78095909553
:104460008E0F9F1F08950F931F93CF93DF93182FE5
:10447000092FEB018B8181FD03C08FEF9FEF20C0DF
:1044800082FF10C04E815F812C813D81421753070E
:104490007CF4E881F9819F012F5F3F4F39832883A6
:1044A000108306C0E885F985812F0995892B29F7A6
:1044B0002E813F812F5F3F4F3F832E83812F902F8F
:1044C000DF91CF911F910F910895A0E0B0E0EBE64E
:1044D000F2E20C94F01FFE01359661917191AF01EB
:1044E00080912B0C90912C0C0E94651CE2E00C94A6
:1044F0000C200F931F93CF93DF93E0912B0CF0913F
:104500002C0C238121FF1BC0EC0100E010E08991FD
:1045100060912B0C70912C0CDB011896ED91FC91A5
:104520001997882331F00995892B89F30FEF1FEF35
:10453000EECF8AE00995892B11F4C80102C08FEFF4
:104540009FEFDF91CF911F910F910895FA01AA2754
:10455000283051F1203181F1E8946F936E7F6E5FC6
:104560007F4F8F4F9F4FAF4FB1E03ED0B4E03CD074
:10457000670F781F891F9A1FA11D680F791F8A1F57
:10458000911DA11D6A0F711D811D911DA11D20D0BE
:1045900009F468943F912AE0269F11243019305D78
:1045A0003193DEF6CF010895462F4770405D419369
:1045B000B3E00FD0C9F7F6CF462F4F70405D4A33B6
:1045C00018F0495D31FD4052419302D0A9F7EACF7E
:1045D000B4E0A6959795879577956795BA95C9F7AD
:1045E00000976105710508959B01AC010A2E0694A0
:1045F0005795479537952795BA95C9F7620F731F59
:0C460000841F951FA01D0895F894FFCFA3
:10460C0000002F0C20002B000722000122000222A8
:10461C0000030000000200000000AA0200000000DD
:10462C0000FF0100CE0300000000000001000200AA
:10463C00D7030000000000000201FF002604000068
:10464C000A0419040301FF007F04000058047204DB
:10465C0004010500E5040000C104D3040504FF00B7
:10466C002E0500001805230506040700C0050000F0
:10467C009605AB05070608000F060000F3050206B9
:10468C000807FF007606000060066B060907FF00AE
:10469C00C5060000AD06B8060A07FF002707000094
:1046AC000F071A070B06FF0067070000470758079C
:1046BC000C04FF00BA0700009907AC070D00FF00BF
:1046CC00370800001D082C08636865636B4275741D
:1046DC00746F6E7320666F756E642070726F677284
:1046EC00616D696E67427574746F6E206F6E000A2F
:1046FC005354415254555000656E74727920737442
:10470C006172747570207374617465006578697476
:10471C00207374617274757000656E7472792065A3
:10472C005374617465547269616352756E6E696E0F
:10473C0067006578697420747269616352756E6E76
:10474C00696E67537461746500656E74727920507C
:10475C00726F6772616D696E67006578697420505D
:10476C00726F6772616D696E6700656E7472792025
:10477C0050726570617265466F7252656300657840
:10478C0069742050726570617265466F7252656310
:10479C0000656E747279205265636F72640065787F
:1047AC006974205265636F726400656E747279204F
:1047BC005265636F726441637469766500657869EC
:1047CC0074205265636F7264416374697665006529
:1047DC006E74727920526563496E54696D6500651B
:1047EC0078697420526563496E54696D6500656E15
:1047FC007472792052656354696D654C6F770065EE
:10480C007869742052656354696D654C6F770065E7
:10481C006E7472792052656354696D654372697464
:10482C006963616C00657869742052656354696DC5
:10483C0065437269746963616C00656E747279208A
:10484C0052656354696D654F7574006578697420A1
:10485C0052656354696D654F757400656E74727939
:10486C002054657374696E670065786974205465AB
:10487C007374696E670073746172742073746F72F1
:10488C0065206F6E20656570726F6D00656E6420BB
:10489C0073746F7265206F6E20656570726F6D003A
:1048AC00656E74727920466174616C4572726F72B8
:1048BC00002A2A2A2A2A2A2A2A2A2A2A2A2A2A663A
:1048CC006174616C204572726F723A202A2A2A2A0E
:1048DC002A2A2A2A2A2A2A2A2A2A2A2A2A2A2A2A2C
:1048EC002A2A2A2A2A006578697420466174616C28
:1048FC004572726F00656570726F6D2073746F72A4
:10490C0065642025582C2062757420636865636B80
:10491C002072657475726E65642025580A00736583
:10492C0074456E6447617000656E644469666646E2
:10493C00202531312E33662020656E64476170531B
:10494C00697A6546202531312E33660A202073742E
:10495C00657057697468202531312E33660A0073EF
:10496C006574456E644761702025692074682076F3
:10497C00616C75653A20256631312E33202D2D3E24
:10498C00202025690A00696E697420696E7465724D
:10499C00727570747300737461727420414D50534E
:1049AC002061646300547269616372756E20737464
:1049BC00617274656400747269616372756E2073E0
:1049CC00746F707065640073746F7020616D7073B8
:0649DC00616463008040ED
:00000001FF
