:100000000C943E000C94EA010C945B000C945B0091
:100010000C945B000C945B000C945B000C945B00F4
:100020000C945B000C9485010C945B000C945B00B9
:100030000C945B000C9495020C945B000C945B0098
:100040000C9424020C945B000C945B000C945B00F9
:100050000C945B000C945B000C945B000C945B00B4
:100060000C94C7010C945B000C945B000C945B0037
:100070000C945B000C945B000C945B0011241FBE7D
:10008000CFEFD8E0DEBFCDBF11E0A0E0B1E0E0E20D
:10009000F0E102C005900D92A83CB107D9F726E027
:1000A000A8ECB1E001C01D92A33BB207E1F70E94AA
:1000B00081000C940E080C940000CF93C82FE0EC44
:1000C000F0E0908195FFFDCFCA3029F466E071E041
:1000D0008DE00E945D00C093C60080E090E0CF916B
:1000E00008959093C5008093C400E0ECF0E0808117
:1000F0008C7F808388E18093C10086E08093C2007A
:1001000008958BE090E00E94710086E091E090936A
:10011000B0068093AF0684EA91E00E94E1070E9456
:100120000B010E942E020E94FB00FFCF8091C601AE
:10013000089508958091C6010895089508958091C5
:10014000C6010895089508958091C60108950895FF
:1001500008958091C6010895089508958091C6017B
:100160000895089508958091C60108950895089509
:100170008091C6010895089508958091C60108955B
:10018000089508958091C601089508950895809175
:10019000C6010895CF93DF931F92CDB7DEB780914C
:1001A000C601E0919906F0919A06208131812330B1
:1001B0003105A1F4AE014F5F5F4F6BE08091CC0140
:1001C0009091CD010E945B0449816BE08091CC014C
:1001D0009091CD010E9404068091C5010F90DF919E
:1001E000CF9108958DEA91E00E94E10786E090E0CA
:1001F0000E947E02089585E896E09093CD01809359
:10020000CC0120E04CE064E171E00E940D0408950F
:100210000197F0F70895109283061092D001089587
:10022000E1EBF0E0408110822091B20030E028172D
:10023000390771F0E2EBF0E08083808190E09C016F
:100240002F5F3F4F2617370719F4BC016E5F7F4FB2
:100250006093B3004093B10008956091A10670913E
:10026000A2066C3F7105BCF480E090E00E94100192
:100270002091A3063091A4068091A1069091A20638
:10028000820F931F9093A4068093A3061092A20658
:100290001092A10608956C5F71097093A206609395
:1002A000A1066CEF70E080E090E00E941001809168
:1002B000A3069091A40684509F4F9093A406809328
:1002C000A306089517BA82E08093700085E08093BA
:1002D000B10008951092B1001092700082E087BBC7
:1002E00008951816190614F081E090E09093A20684
:1002F0008093A1060E942D010E9462010895F89446
:100300005C980E946A01789408951F920F920FB62C
:100310000F9211242F933F934F935F936F937F938B
:100320008F939F93AF93BF93EF93FF93F894809134
:10033000A1069091A20618161906ACF05C9A81E00D
:1003400090E00E9408015C988091A3069091A40619
:100350008A3293401CF00E946A0107C081E090E05D
:100360000E94710102C00E942D017894FF91EF91CB
:10037000BF91AF919F918F917F916F915F914F91BD
:100380003F912F910F900FBE0F901F9018951F92C5
:100390000F920FB60F9211248F939F938091780044
:1003A000909179009093A6068093A50680919B0674
:1003B0008F5F8E3119F080939B0605C010929B06CB
:1003C00081E0809384069F918F910F900FBE0F90D4
:1003D0001F9018951F920F920FB60F9211242F9312
:1003E0003F934F935F936F937F938F939F93AF93BD
:1003F000BF93EF93FF93F8944A9B03C00E947F0141
:1004000011C01092A4061092A3062091C901309148
:10041000CA011216130634F48AE293E0821B930B8E
:100420000E9471017894FF91EF91BF91AF919F91DC
:100430008F917F916F915F914F913F912F910F908D
:100440000FBE0F901F9018951F920F920FB60F922C
:1004500011240F900FBE0F901F90189581ED91E021
:100460009093CF018093CE0180EF81B980EE82B965
:100470008FE080937E0052985A985C98549A5C98CA
:100480005B98539A5B9881E0809369001DBA109243
:10049000C8011092800088E0809381001092820051
:1004A00080E39AE2909389008093880010928500FF
:1004B0001092840010926F0082E084BD9FEF97BD80
:1004C00016BC15BC10926E008093B0001092B10063
:1004D0001092B6008CEF8093B3001092B20010928D
:1004E000700087E080937A001092840610929B0639
:1004F0001092A6061092A506789408951092CB014A
:1005000090939D0680939C061092A8061092A706D1
:1005100082E080936F008DE080938100089588E0F1
:100520008093810010926F0008951F920F920FB672
:100530000F9211242F933F934F935F936F937F9369
:100540008F939F93AF93BF93EF93FF9380919C06FC
:1005500090919D06019790939D0680939C06209113
:10056000A7063091A8062F5F3F4F3093A80620932F
:10057000A7061816190634F00E948F0281E08093B6
:10058000CB0103C081E08093C801FF91EF91BF913F
:10059000AF919F918F917F916F915F914F913F911B
:1005A0002F910F900FBE0F901F9018958F929F92D2
:1005B000BF92CF92DF92EF92FF920F931F93CF9350
:1005C000DF93FC018181882309F49AC0D12C0F2E7E
:1005D000FBE0BF2EF02DC12CEB2CFC2C0D2D10E0E0
:1005E000C801880F991FEC01CC0FDD1FCC0FDD1F58
:1005F000CC0FDD1F4E01881A990AC401A581B6816E
:10060000A80DB91D1C961C924B2D5C2D6581768121
:10061000680F791F9A0121503109DB01A20FB31F26
:10062000AC91EB01C40FD51FA8832115310511F042
:10063000A901ECCFA581B681A80DB91DDC92258159
:100640003681E901C80DD91D2C852F5F2C879801B3
:10065000220F331F020F131F9801220F331F220F87
:10066000331F890142815381EA01C20FD31F2981BF
:100670002F3F09F440C03CC0A90165817681680F15
:10068000791F9A0121503109EB01C20FD31FC88194
:10069000DB01A40FB51FCC932115310569F7C28189
:1006A000D381C00FD11F2981C581D681C80FD91F21
:1006B0002883C581D681C80FD91F2C852F5F2C8731
:1006C00042815381DA01A00FB11F11962C9130E0C5
:1006D000B901660F771F260F371F220F331F220F16
:1006E000331F8901EA01C20FD31F29812F3F19F05F
:1006F0004E2D5F2DC2CFD3948181D81608F46ECFD2
:10070000DF91CF911F910F91FF90EF90DF90CF90ED
:10071000BF909F908F900895FC0181818823C9F03C
:1007200040E05FEF242F30E0220F331FD901AA0FE2
:10073000BB1FAA0FBB1FAA0FBB1FA21BB30B858138
:100740009681A80FB91F1D965C934F5F8181481752
:1007500048F30895FF920F931F93CF93DF93EC011B
:10076000F62E862F90E08C01000F111F800F911F35
:100770008C01000F111F000F111FEA81FB81E00F98
:10078000F11F0680F781E02D309709F00995EA8185
:10079000FB81E00FF11F0084F185E02D309709F017
:1007A0000995FC828A819B81FC01E00FF11FF28098
:1007B0008FEFF81661F18F2D992787FD90958C01A9
:1007C000000F111F800F911F8C01000F111F000FD0
:1007D000111FEA81FB81E00FF11F0680F781E02DF8
:1007E000309709F00995EA81FB81E00FF11F008441
:1007F000F185E02D309709F00995FC828A819B8173
:10080000FC01E00FF11FF2808FEFF812D4CFDF91DF
:10081000CF911F910F91FF9008951F93CF93DF9376
:10082000EC01122F49837B836A8350E0440F551FEC
:10083000CA01880F991F880F991F880F991F841B61
:10084000950B0E94BA069E838D83CE010E94D6022C
:10085000CE010E948C03612FCE010E94AA038FEF6C
:100860008B8BDF91CF911F91089550E0440F551F5E
:10087000DA01AA0FBB1FAA0FBB1FAA0FBB1FA41B25
:10088000B50BFC0185819681A80FB91F1C969C9120
:100890001C97915072F080E031E0FD01E90FF11DED
:1008A00097FDFA952081261301C0832F9150AAF756
:1008B000089580E008958F929F92AF92BF92CF9259
:1008C000DF92EF92FF920F931F93CF93DF93EC0190
:1008D000962E6A018B8988230CF454C05E0187E050
:1008E000A80EB11C00E010E0F50181905F01882D99
:1008F00090E07C01EE0CFF1C8E0D9F1D7C01EE0C28
:10090000FF1CEE0CFF1CEA81FB81EE0DFF1D028433
:10091000F385E02D309709F00995F60180822A8150
:100920003B81F901EE0DFF1D8181992787FD90958F
:10093000AC01440F551F480F591F440F551F440F5A
:10094000551FF901E40FF51F2381222381F0880F41
:10095000991FFC01EE0FFF1FEE0FFF1FEE0FFF1F91
:10096000E81BF90B8D819E81E80FF91F85860F5FCB
:100970001F4F8B89992787FD9095801791070CF061
:10098000B3CF02C088248A94882D90E0FC01EE0F3A
:10099000FF1F8E0F9F1F880F991F880F991FEA81D5
:1009A000FB81E80FF91FF1804FC08F2D90E08C0183
:1009B000000F111F800F911F8C01000F111F000FDE
:1009C000111FEA81FB81E00FF11F0284F385E02D06
:1009D000309709F00995F601F0828A819B81FC012C
:1009E000E00FF11FF1802F2D30E0F901EE0FFF1F16
:1009F0002E0F3F1FF901EE0FFF1FEE0FFF1FE80F35
:100A0000F91F2181332727FD3095A901440F551F78
:100A1000420F531F440F551F440F551FFC01E40F95
:100A2000F51F8381882381F0220F331FF901EE0F18
:100A3000FF1FEE0FFF1FEE0FFF1FE21BF30B8D8159
:100A40009E81E80FF91FF586EF2C492D6F2DCE0101
:100A50000E943504882309F4A8CFF9103FC08F2DD8
:100A600090E08C01000F111F800F911F8C01000F6F
:100A7000111F000F111FEA81FB81E00FF11F02849B
:100A8000F385E02D309709F00995F8822A813B81A2
:100A9000F901E00FF11F8181992787FD9095AC0145
:100AA000440F551F480F591F440F551F440F551F22
:100AB000F901E40FF51F2381222381F0880F991F8C
:100AC000FC01EE0FFF1FEE0FFF1FEE0FFF1FE81BD5
:100AD000F90B8D819E81E80FF91FE586DF91CF919B
:100AE0001F910F91FF90EF90DF90CF90BF90AF904C
:100AF0009F908F900895EF92FF920F931F93CF9343
:100B0000DF93EC01E62E862F90E0880F991F8C0171
:100B1000000F111F000F111F000F111F081B190BD1
:100B2000F42EED81FE81E00FF11FEF0DF11D8081AC
:100B3000992787FD9095FC01EE0FFF1F8E0F9F1FD9
:100B4000880F991F880F991FEA81FB81E80FF91F11
:100B50000084F185E02D309709F00995F3942F2D4D
:100B600030E0ED81FE81E00FF11F8485992787FD3C
:100B70009095019782179307A4F61E2D18C0182F81
:100B800001C0182F212F30E0F901EE0FFF1F2E0FAB
:100B90003F1F220F331F220F331FEA81FB81E20F19
:100BA000F31F0084F185E02D309709F00995412F5E
:100BB00050E09A01220F331FF901EE0FFF1FEE0FD5
:100BC000FF1FEE0FFF1FE21BF30B2D813E81E20F93
:100BD000F31F85858F3F99F6FA01EE0FFF1F4E0F29
:100BE0005F1F440F551F440F551FEA81FB81E40F1F
:100BF000F51F82818F3F29F6812FDF91CF911F91C1
:100C00000F91FF90EF900895FF920F931F93CF9352
:100C1000DF93EC01162F042F462F602F0E9435041E
:100C2000882379F1812F90E0880F991FFC01EE0F46
:100C3000FF1FEE0FFF1FEE0FFF1FE81BF90B8D814B
:100C40009E81E80FF91F548515160CF07FC0602FA8
:100C500070E08081992787FD90958617970709F4A2
:100C600077C0319640E008C02191332727FD3095A9
:100C70002617370709F473C04F5F4513F5CF4FEFC1
:100C80006EC02D813E81812F90E0880F991FDC017D
:100C9000AA0FBB1FAA0FBB1FAA0FBB1FA81BB90B14
:100CA000A20FB31F1C96FC901C97888190E0880FC0
:100CB000991FFC01EE0FFF1FEE0FFF1FEE0FFF1F2E
:100CC000E81BF90BE20FF31F84858F1594F4802F36
:100CD00090E0880F991FFC01EE0FFF1FEE0FFF1F22
:100CE000EE0FFF1FE81BF90BE20FF31FF484FA94D9
:100CF00001C0FA94FF2074F1602F70E0660F771F37
:100D0000CB01880F991F880F991F880F991F861B89
:100D1000970B820F931FFC0130812C9132131CC062
:100D200040E00FC0252F332727FD3095FC01E20F4F
:100D3000F31F2A0F3B1F4081F901208142130EC08F
:100D4000452F51E0540FF5166CF709C04FEF07C05F
:100D500040E005C04FEF03C040E001C0452F612FC8
:100D6000CE010E947B058C83DF91CF911F910F9163
:100D7000FF900895CF93DF938230910510F482E0C5
:100D800090E0E091AB06F091AC0620E030E0A0E00E
:100D9000B0E0309739F14081518148175907B8F0D8
:100DA0004817590771F482819381109729F013969F
:100DB0009C938E9312972CC09093AC068093AB06B5
:100DC00027C02115310531F04217530718F0A9014A
:100DD000DB0101C0EF019A01BD01DF010280F38157
:100DE000E02DD7CF21153105F9F0281B390B243020
:100DF000310580F48A819B816115710521F0FB0129
:100E00009383828304C09093AC068093AB06FE016B
:100E1000329644C0FE01E20FF31F8193919322505A
:100E20003109398328833AC02091A9063091AA0656
:100E3000232B41F420910201309103013093AA0643
:100E40002093A9062091000130910101211531055F
:100E500041F42DB73EB74091040150910501241B88
:100E6000350BE091A906F091AA06E217F307A0F46A
:100E70002E1B3F0B2817390778F0AC014E5F5F4FF0
:100E80002417350748F04E0F5F1F5093AA06409372
:100E9000A9068193919302C0E0E0F0E0CF01DF91D9
:100EA000CF910895CF93DF93009709F487C0FC0199
:100EB000329713821282C091AB06D091AC06209774
:100EC00081F420813181280F391F8091A9069091EA
:100ED000AA068217930779F5F093AA06E093A9066C
:100EE0006DC0DE0120E030E0AE17BF0750F412966F
:100EF0004D915C9113979D014115510509F1DA015E
:100F0000F3CFB383A28340815181840F951F8A1749
:100F10009B0771F48D919C911197840F951F0296F8
:100F20009183808312968D919C91139793838283F2
:100F30002115310529F4F093AC06E093AB063EC0D1
:100F4000D9011396FC93EE9312974D915D91A40FE6
:100F5000B51FEA17FB0779F480819181840F951FF3
:100F60000296D90111969C938E9382819381139658
:100F70009C938E931297E0E0F0E08A819B8100972A
:100F800019F0FE01EC01F9CFCE01029628813981DA
:100F9000820F931F2091A9063091AA0628173907BE
:100FA00069F4309729F41092AC061092AB0602C097
:100FB00013821282D093AA06C093A906DF91CF9123
:100FC00008950F931F93CF93DF93E091AF06F091B5
:100FD000B006238121FF1BC0EC0100E010E08991E5
:100FE0006091AF067091B006DB011896ED91FC910F
:100FF0001997882331F00995892B89F30FEF1FEF9B
:10100000EECF8AE00995892B11F4C80102C08FEF59
:101010009FEFDF91CF911F910F910895F894FFCF2B
:101020000000B306200000000002000000005D0088
:101030000000000000FF010096000000000000001A
:1010400001000200CA000000000000000201FF00D1
:101050009A000000F20099000301FF009F000000C9
:101060009D009E0004010500A4000000A200A30052
:101070000504FF00A9000000A700A800060407005F
:10108000AE000000AC00AD000706FF00B30000009A
:10109000B100B2000806FF00B8000000B600B700BB
:1010A0000906FF00BD000000BB00BC000A06FF00EF
:1010B000C2000000C000C1000B00FF00C70000001C
:1010C000C500C6000A5354415254555000656E7411
:1010D00072792041736B466F7243616C6962726111
:0810E00074696F6E004080008E
:00000001FF
